:020000040800F2
:10000000E0360020290200084B1B0008C319000835
:10001000491B000867060008D52000080000000002
:100020000000000000000000000000009101000836
:100030009D06000800000000D5010008951C00087E
:10004000430200084302000843020008430200087C
:10005000430200084302000845070008590700084A
:10006000430200084302000843020008430200085C
:10007000430200084302000843020008430200084C
:10008000430200084302000843020008430200083C
:100090004302000843020008430200086D070008FD
:1000A000430200084302000843020008430200081C
:1000B000211D00082D1D0008391D000843020008FD
:1000C00043020008430200084302000843020008FC
:1000D0004302000879200008430200084302000898
:1000E00043020008430200084302000800F002F83F
:1000F00000F03FF80AA090E8000C82448344AAF183
:100100000107DA4501D100F034F8AFF2090EBAE880
:100110000F0013F0010F18BFFB1A43F0010318473B
:10012000DC380000FC380000103A24BF78C878C1E1
:10013000FAD8520724BF30C830C144BF04680C60ED
:10014000704700000023002400250026103A28BF35
:1001500078C1FBD8520728BF30C148BF0B60704739
:10016000752900F0C980002070471FB51FBD10B56C
:1001700010BD00F03EFA1146FFF7F7FF01F0BBFF9C
:1001800000F05CFA03B4FFF7F2FF03BC00F064FA7E
:10019000224B19680868B0E8F00F80F30988BFF3B4
:1001A0006F8F4FF0000080F311884EF00D0E7047F6
:1001B0000000000006480068006880F3088862B606
:1001C00061B6BFF34F8FBFF36F8F00DF00BF00BF7B
:1001D00008ED00E0EFF30980BFF36F8F0F4B1A6853
:1001E00020E9F00F106008B54FF0500080F311883F
:1001F000BFF34F8FBFF36F8F02F010FE4FF0000080
:1002000080F31188BDE8084019680868B0E8F00F6D
:1002100080F30988BFF36F8F704700BF280000206C
:10022000EFF3058070470000094880470948004700
:10023000FEE7FEE7FEE7FEE7FEE7FEE7FEE7FEE796
:10024000FEE7FEE704480549054A064B70470000F3
:100250001D1D0008ED000008E0300020E036002001
:10026000E0320020E03200200FB41CB5074B06AA94
:100270007B4469460090059800F04FF900206946DC
:1002800000F05EF91CBC5DF814FB0000CD0200001C
:100290002DE9F0410E460446002020622046E16828
:1002A000884730B3252805D0D4E901219047206A3A
:1002B000401CF2E7E168204600278847050018D077
:1002C000A5F14100192802D820354FF400673246C5
:1002D000294620462760FFF743FF40B1012804D09C
:1002E000F61D26F007060836D8E7361DD6E728465D
:1002F000DAE7206ABDE8F0812DE9F04106460024E6
:1003000010687529314616A510D0AFF3008000287B
:1003100002DA404213A507E031688A0701D512A529
:1003200002E0490704D511A5012401E0AFF30080E4
:1003300000210A2206F1240709E0B0FBF2FCB0FB21
:10034000F2F302FB1C00303078541846491C002898
:10035000F3D123462A463046BDE8F04100F07FB88D
:10036000000000002D0000002B0000002000000015
:10037000032A40F2308010F0030C00F0158011F8D1
:10038000013BBCF1020F624498BF11F801CB00F8A9
:10039000013B38BF11F8013BA2F1040298BF00F8FD
:1003A00001CB38BF00F8013B11F0030300F0CD8012
:1003B000083AC0F0088051F8043B083A51F804CBE1
:1003C000A0E80810F5E7121D5CBF51F8043B40F8A7
:1003D000043BAFF30080D20724BF11F8013B11F8B2
:1003E00001CB48BF11F8012B24BF00F8013B00F8F6
:1003F00001CB48BF00F8012B704702F0FF0343EA2E
:10040000032242EA024200F0D4B84FF0000200B5E5
:10041000134694469646203922BFA0E80C50A0E827
:100420000C50B1F12001BFF4F7AF090728BFA0E8D5
:100430000C5048BF0CC05DF804EB890028BF40F8A1
:10044000042B08BF704748BF20F8022B11F0804FE3
:1004500018BF00F8012B70477047704770472DE9AF
:10046000F0470D4699469246044600F1240801687B
:10047000880604D5E06921F01001216000E0012028
:10048000A84201DD471B00E00027A1697A1902EBB1
:100490000900081AA0612078C00602D42046AFF3F4
:1004A0000080002608E0D4E901211AF806009047F0
:1004B000206A401C761C20624E45F4DB2078C00682
:1004C0000AD52046AFF3008006E0D4E901213020B0
:1004D0009047206A401C2062381EA7F10107F4DC17
:1004E00007E0D4E9012118F805009047206A401C74
:1004F0002062281EA5F10105F3DC2046AFF3008041
:100500002078000602D50220BDE8F0870120FBE735
:1005100001694A1C02610878704700B58FB0CDE9C7
:1005200001310021059105497944CDE903101146B7
:100530006846FFF7ADFE0FB000BD0000E5FFFFFF0E
:100540000A6802F8010B0A60704710B5203AC0F043
:100550000B80B1E81850203AA0E81850B1E81850C4
:10056000A0E81850BFF4F5AF5FEA027C24BFB1E801
:100570001850A0E8185044BF18C918C0BDE8104072
:100580005FEA827C24BF51F8043B40F8043B08BF7B
:100590007047D20728BF31F8023B48BF11F8012B42
:1005A00028BF20F8023B48BF00F8012B70474FF0EE
:1005B00000020429C0F0128010F0030C3FF427AFB2
:1005C000CCF1040CBCF1020F18BF00F8012BA8BF3E
:1005D00020F8022BA1EB0C01FFF719BF5FEAC17CE9
:1005E00024BF00F8012B00F8012B48BF00F8012BB5
:1005F0007047754600F02CF8AE4605006946534634
:1006000020F00700854618B020B5FFF71BFEBDE8B7
:1006100020404FF000064FF000074FF000084FF069
:10062000000B21F00701AC46ACE8C009ACE8C009FA
:10063000ACE8C009ACE8C0098D46704710B5044667
:10064000AFF300802046BDE81040FFF79BBD0000DF
:10065000004870477C30002001491820ABBEFEE7FF
:10066000260002007047FEE710B501F0A7FB024923
:100670000020086010BD00001000002010B54FF0F1
:10068000E022002104461161084600F033FE0249D1
:10069000E008088010BD0000140000207047000032
:1006A000F0B5254885B0816941F008018161816913
:1006B00001F008010491816941F0010181618069C3
:1006C0001E4D00F001000490402001240326CDE9D6
:1006D00000051B4FCDE902466946384600F0BCF9DB
:1006E000CDE90246CDE900456946384600F0B4F947
:1006F0000220CDE90005CDE902466946384600F002
:10070000ABF902220521172000F034FB032205215A
:10071000062000F02FFB03220521072000F02AFB12
:10072000172000F019FB062000F016FB072000F050
:1007300013FB05B0F0BD00000010024000002110C6
:10074000000C014010B5012000F07AF901490120A8
:10075000086010BD1404014010B5022000F070F9CB
:1007600001490220086010BD1404014010B540206A
:1007700000F066F901494020086010BD14040140F2
:1007800008B50026DFF84880124FDFF84C90134C74
:10079000009698F800004546012808D099F8000016
:1007A0004D46012807D0207801280CD00CE001220A
:1007B0006B46114602E002226B460021786802F087
:1007C0008BFE2E7000E026700A2001F0AAFCE0E704
:1007D0000B000020000000200C0000200D00002075
:1007E0008EB000202C4C471E4FF480664FF4FA6503
:1007F0000D903B460DAA3046314602F057FF2B467E
:10080000162226A1244801F08BF820680168C9430C
:100810004906FBD427A168460D9AFFF725FD0D98E0
:1008200009280BD82B46012269461B4801F078F8AD
:1008300020680168C9434906FBD40DE00A385928ED
:100840000AD82B4602226946134801F069F820684D
:100850000168C9434906FBD40D986438B0F5617F3F
:100860000AD22B46032269460B4801F059F820684A
:100870000168C9434906FBD42B4604220EA1064851
:1008800001F04EF820680168C9434906FBD40A20EC
:1008900001F047FCADE70000B40F0020BCC6CAFD64
:1008A000D0CDD0C5BAC5CDA8D6AABBF1C8A1B3C911
:1008B000B9A60000257500000D0A00001CB502F065
:1008C00023F90D490120CDE90001002380220BA16D
:1008D0000C4802F0A7FD08490220091DCDE90001DE
:1008E0000023802208A10A4802F09CFD02F02CF9A6
:1008F000BDE81C4002F046BA000000205461736B52
:1009000031000000810700085461736B3200000061
:10091000E107000810B590F821100022022905D047
:100920000421816380F82020012010BD01680B683C
:1009300023F00E030B6001680B6823F001030B60CA
:1009400090F84030012404FA03F1C36B596080F839
:10095000214080F82020104610BD000010B590F80E
:1009600021100024022903D00421816301243DE0E9
:1009700001680A6822F00E020A6001680A6822F023
:1009800001020A601A4A0168914201D1012121E065
:10099000174A1432914201D110211BE0144A283227
:1009A000914201D1891515E0114A3C32914201D1A1
:1009B00089140FE00E4A5032914202D14FF4803137
:1009C00008E00B4A6432914202D14FF4801101E0F9
:1009D0004FF08071064A083A5160012180F82110D9
:1009E000002180F82010416B01B18847204610BDDE
:1009F0000800024070B5104A0124104D40280BD069
:100A0000022811D0012806D10121104600F00AF970
:100A1000002800D16C7070BD4021104600F002F932
:100A20000028F8D12C7070BD0221104600F0FAF8B1
:100A30000028F8D1AC7070BD000C01400B00002004
:100A4000044910B50A68024202D00860FFF7D2FFDD
:100A500010BD0000140401402DE9F84FDFF8A49107
:100A60000024A9F1040B23464FF00F0809F1040AF2
:100A7000ABF1040EBEE00127A7403A40BA4272D162
:100A8000DFF884C14D68A5EB0C0665452BD00DDC65
:100A9000032D34D005DC35B3012D19D0022D2FD113
:100AA0001BE0112D16D0122D2AD119E0B6F5881FA2
:100AB00019D006DCB6F5803F15D0B6F5801F1FD1E2
:100AC00011E0B6F5001F0ED0B6F5041F18D10AE0EC
:100AD000CB6815E0CB681B1D12E0CB6808330FE034
:100AE000CB680C330CE08B682BB1012B4FF0080363
:100AF00003D0476104E0042302E0076100E0002323
:100B0000FF2A01D8064601E000F104064FEA8405F9
:100B100001D9A5F12005376808FA05FC27EA0C077A
:100B200003FA05F547EA050737604D68ED0060D523
:100B3000364DAE6946F00106AE61AD6924F003069C
:100B400005F001050095324D7719BE68A5072D0FF8
:100B500008FA05FC26EA0C06DFF8B8C0604503D1A8
:100B60004FF0000C17E044E0DFF8ACC0604502D164
:100B70004FF0010C0FE0DFF8A4C0604502D14FF048
:100B8000020C08E0DFF898C0604502D14FF0030C7A
:100B900001E04FF0040C0CFA05FC4CEA060CC7F817
:100BA00008C04D68D9F80060ED024D4601D51643E6
:100BB00000E096432E604D68DAF80060AD025546BD
:100BC00001D5164300E096432E604D68DBF80060C7
:100BD000AD035D4601D5164300E096432E604D6897
:100BE000DEF80060ED03754601D5164300E096433C
:100BF0002E60641C0A6832FA04F57FF43CAFBDE84D
:100C0000F88F00000804014000001110001002409D
:100C10000000014000080140000C014000100140AC
:100C2000001401408068084000D0012070470AB1DC
:100C3000016170470904FBE70148806870470000C4
:100C400018000020024881680278114481607047D2
:100C500018000020074810B5016841F0100101603C
:100C6000032000F0A7F80F2000F006F800F050F87D
:100C7000002010BD0020024030B505461F4887B057
:100C8000C16941F00401C161C06906A900F0040016
:100C90000590684600F03CF90398B0B100F058F9AF
:100CA00040001749174AB0FBF1F11748491E02608E
:100CB000416040F2E7320021C0E903218160816197
:100CC00000F026FB040003D015E000F041F9E8E74E
:100CD0000D4800F06BFB04000DD11E2000F03CF825
:100CE000102D07D2002229461E2000F043F80748A5
:100CF000056000E0012407B0204630BD001002402E
:100D000040420F00000800406C0700201C0000203B
:100D10000F4808B5816941F001018161816901F0E5
:100D200001010091C16941F08051C161C069002297
:100D300000F0805000900F21901E00F01BF8054934
:100D4000486820F0E06040F00070486008BD000096
:100D50000010024000000140002809DB00F01F02E3
:100D6000012191404009800000F1E020C0F800110D
:100D700070470000F0B40E4B1B68C3F30223C3F1AD
:100D80000704042C00D904241D1D072D01D20023C3
:100D900000E0DB1E012606FA04F56D1E0D409D40A5
:100DA0009E40761E164045EA0601F0BC01F093B95C
:100DB0000CED00E0064A00F0070110684FF6FF0353
:100DC000184040EA012003490843106070470000C2
:100DD0000CED00E00000FA052DE9F0470D46040097
:100DE00067D0DFF81881D8F8000000F00700A842AB
:100DF0000CD2D8F8001021F007012943C8F80010E0
:100E0000D8F8000000F00700A84252D120683C4EFC
:100E1000810712D5400703D5706840F4E060706028
:100E20002078000703D5706840F4605070607068E7
:100E3000A16820F0F000084370602078C00727D038
:100E40006068012810D03168022810D08907002975
:100E50002FDA716821F0030101437160FFF7ECFEA6
:100E6000074641F288390CE031688903EFE78901D0
:100E7000EDE7FFF7E1FEC11B494502D90320BDE8BC
:100E8000F0877068616800F00C00B0EB810FF0D162
:100E9000D8F80010404601F00701A9420BD90168BB
:100EA00021F0070129430160006800F00700A84213
:100EB00001D00120E3E72078400705D57068E1689C
:100EC00020F4E060084370602078000706D5706861
:100ED000216920F4605040EAC100706000F058F8C9
:100EE0007168084AC1F30311515CC84006490860A3
:100EF00006480068FFF7C0FE0020C0E7002002405F
:100F000000100240E2390008240000201C000020EC
:100F10000F2202600C4A536803F0030343605368D6
:100F200003F0F0038360536803F4E063C360526826
:100F30004FF4E06303EAD20202610448006800F063
:100F400007000860704700000010024000200240C7
:100F50000448054900684968044AC1F30221515C0C
:100F6000C84070472400002000100240F2390008F9
:100F70000448054900684968044AC1F3C221515C2C
:100F8000C84070472400002000100240F2390008D9
:100F90000E4B59680E4801F00C02042A11D0082AA1
:100FA0000FD10C48C1F38342C903805C0AD559684C
:100FB000084AC1F34041921E515C054A5043B0FBC0
:100FC000F1F07047044948437047000000100240A8
:100FD00000127A00D239000800093D002DE9F84FCF
:100FE00004006FD02078BE4DC00747D06868C0F3BA
:100FF0008100012807D06868C0F38100022809D168
:101000006868C00306D52868800337D56068002863
:10101000E7D033E06068B0F5803F0BD010B1B0F599
:10102000A02F11D0286820F480302860286820F490
:10103000802002E0286840F480302860606888B131
:10104000FFF7FAFD064609E0286840F48020286092
:10105000F0E7FFF7F1FD801B642873D82868800350
:10106000F7D50BE0FFF7E8FD064604E0FFF7E4FDE7
:10107000801B6428F1D828688003F7D42078DFF833
:10108000648280074FF0010A4FF0000939D5686883
:1010900010F00C0F07D06868C0F38100022809D156
:1010A0006868C00306D42868800714D52069012821
:1010B00008D110E02069B0B1C8F800A0FFF7BCFD6E
:1010C000064605E007E1FFF7B7FD801B0228C4D8FC
:1010D00028688007F7D52868616920F0F80040EAA1
:1010E000C10028600DE0C8F80090FFF7A5FD064696
:1010F00004E0FFF7A1FD801B022823D828688007A1
:10110000F7D4207800072CD57748A169D9B1C0F869
:1011100000A0FFF791FD064604E0FFF78DFD801B60
:1011200002280FD8686A8007F7D570484FF4FA5143
:101130000068B0FBF1F0009000BF0098411E0091E4
:10114000FAD20EE07CE0C0F80090FFF775FD06468D
:1011500004E0FFF771FD801B022871D8686A8007E0
:10116000F7D4207840075BD5E8690027C00008D491
:10117000E86940F08050E861E869012700F080509C
:1011800000905B480168C90511D40168834641F4A9
:1011900080710160FFF750FD064604E0FFF74CFD4B
:1011A000801B64284CD8DBF80000C005F6D5E06849
:1011B00001280AD008B1052813D0286A20F00100C0
:1011C0002862286A20F0040002E0286A40F001004A
:1011D0002862E06841F2883B88B1FFF72DFD0646A2
:1011E00009E0286A40F004002862EEE7FFF724FDDA
:1011F000811B59455BD8286A8007F7D50BE0FFF7BC
:101200001BFD064604E0FFF717FD811B59454ED82C
:10121000286A8007F7D41FB1E86920F08050E861A0
:10122000E069A8B36968C1F38101022946D00228A8
:10123000484606D0C8F86000FFF7FEFC044639E0D7
:1012400035E04746C8F86000FFF7F6FC064604E0C4
:10125000FFF7F2FC801B022829D828688001F7D408
:10126000206AB0F5803F05D16868A16820F400309D
:1012700008436860D4E908010843696821F47411DF
:1012800008436860C7F860A0FFF7D6FC044605E095
:1012900023E0FFF7D1FC001B022808D82868800152
:1012A000F7D51AE0FFF7C8FC001B022802D903207B
:1012B000BDE8F88F28688001F4D40EE00128F7D04B
:1012C0006868226A00F48031914204D1616A00F4B6
:1012D0007010884201D00120EAE70020E8E7000012
:1012E00000100240000042428004424224000020DC
:1012F000007000404FF0E0210428086903D020F07E
:1013000004000861704740F00400FAE77047704736
:1013100010B5040003D094F83D0010B107E001209F
:1013200010BD002084F83C00204600F01FF8022089
:1013300084F83D00211D206800F004FD012084F8A0
:10134000460084F83E0084F83F0084F8400084F8AA
:10135000410084F8420084F8430084F8440084F893
:10136000450084F83D00002010BD000008B502686B
:101370000C49B2F1804F07D1CA6942F00102CA613B
:10138000CA6902F0010200920068074A904207D140
:10139000C86940F00200C861C86900F0020000900E
:1013A00008BD0000001002400004004090F83D100D
:1013B000012901D001207047022180F83D10016809
:1013C000CA6842F00102CA6000680B49884208D02E
:1013D000B0F1804F05D00949884202D008498842BF
:1013E00004D1816801F00701062903D0016841F0AA
:1013F0000101016000207047002C01400004004002
:101400000008004070472DE9F04104460068C668B6
:1014100005694FF00007A90713D5B10711D5F91ECB
:10142000016101202077206880698007204602D072
:10143000FFF7E8FF04E000F07EF8204600F07CF8BB
:101440002777680716D5700714D521686FF0040058
:101450000861022020772068806910F4407F2046D0
:1014600002D0FFF7CFFF04E000F065F8204600F05F
:1014700063F82777280715D5300713D521686FF053
:1014800008000861042020772068C0698007204692
:1014900002D0FFF7B7FF04E000F04DF8204600F05F
:1014A0004BF82777E80616D5F00614D521686FF0BB
:1014B00010000861082020772068C06910F4407F80
:1014C000204602D0FFF79EFF04E000F034F82046EB
:1014D00000F032F82777E80708D0F00706D0216837
:1014E0006FF001000861204600F028F8280608D5B2
:1014F000300606D521686FF0800008612046FFF7AE
:1015000005FF680608D5700606D521686FF0400013
:101510000861204600F040F8A8060AD5B00608D5B4
:1015200021686FF0200008612046BDE8F041FFF718
:10153000EEBEBDE8F08170477047000010B504466C
:1015400000680F49884201D1FFF77CFB2068B0F1A9
:10155000804F03D10B480168491C01600A4920688B
:1015600088420CD14FF47A73072208A1094800F091
:10157000D7F9084800680168C9434906FBD410BD83
:1015800000080040100000200004004074696D65F0
:10159000330D0A00B40F00207047704770470000F9
:1015A000F8B5016804460868CA684B6910F00F0F67
:1015B0004FF0000559D003F0010602F4907737434D
:1015C00065D0C10705D0D10503D5616C41F001019B
:1015D0006164410705D5D90703D0616C41F0020170
:1015E0006164810705D5D90703D0616C41F004011E
:1015F0006164010707D502F02001314303D0616C1B
:1016000041F008016164616C00293AD0800604D57C
:10161000900602D5204600F01EFC20684069616CEF
:10162000C0F38010090700D460B3204600F0ECFB43
:1016300020684069400621D52068143050E8001F1A
:1016400021F0400140E80012002AF5D1E06BA8B17A
:101650006D494163E06BFFF781F9002811D0E06B21
:10166000416B01B0BDE8F040084783060FD59306F3
:101670000DD52046BDE8F84000F0EDBB2046FFF751
:101680008DFFF8BD2046FFF789FF6564F8BD266B26
:101690002023012E7CD1C6067AD5D60678D50868D7
:1016A0004868009048694FF00206400640D5E16B5B
:1016B000086840680004000CE8D0A28D8242E5D999
:1016C000E085886920282DD020680C3050E8001F64
:1016D00021F4807140E80012002AF5D1206814300E
:1016E00050E8001F21F0010140E80012002AF5D166
:1016F0002068143050E8001F21F0400140E800123B
:10170000002AF5D184F84230256320680C3050E877
:10171000001F21F0100140E80012002AF5D1E06B13
:10172000FFF7F8F86663A08DE18D401A81B22AE0D8
:10173000A08DE18D401A81B2E08D0028A6D000294D
:10174000A4D020680C3050E8002F22F4907240E8BA
:101750000027002FF5D12068143050E8002F22F028
:10176000010240E80027002FF5D184F842302563BC
:1017700020680C3050E8002F22F0100240E80023CF
:10178000002BF5D166632046FFF707FFF8BDFFE7A2
:1017900005062BD5150629D594F841002128F5D149
:1017A000A068B0F5805F01D12069B0B1206A411C0A
:1017B0002162216800784860E08C401E0004000C23
:1017C000E084E3D12068C16821F08001C160206815
:1017D000C16841F04001C160D8E7206A0088C0F3C9
:1017E00008004860206A801C2062E5E74006CDD5ED
:1017F0005006CBD5CA68204622F04002CA6084F861
:10180000413000F0DDF8C1E7F91D000870B50400B3
:1018100004D094F84100002510B106E0012070BD0D
:1018200084F84050204600F023F8242084F841003A
:101830002068C16821F40051C160204600F06CFBB3
:101840002068016921F4904101612068416921F01B
:101850002A0141612068C16841F40051C16065649A
:10186000202084F8410084F842006563002070BDA8
:1018700070B500681A4986B088422FD1194881692D
:1018800041F004018161816901F0040104918169E1
:1018900041F4804181618069002500F4804004901A
:1018A00002200190032400020F4ECDE90254009063
:1018B00069463046FFF7D0F83015CDE90005012024
:1018C000CDE9020469463046FFF7C6F8002202213E
:1018D0002520FFF74FFA2520FFF73EFA06B070BD2E
:1018E00000380140001002400008014090F84230EA
:1018F000202B01D00220704721B11AB100230363CD
:1019000000F066BB0120704700680349884202D19D
:10191000024901200870704700380140080000208B
:101920002DE9F843044690F841001F4615460E463F
:10193000202802D00220BDE8F8838EB185B10020B6
:101940006064212084F84100FFF776F9A584814680
:10195000E584A0684FF02008B0F5805F02D003E076
:101960000120E8E7206910B1354600260EE0002589
:101970000CE08021204600F046FBA0B9BDB115F86F
:10198000010B21684860E08C401EE084E08C4B46EF
:101990004FF0000200970028EBD14FF040012046A5
:1019A00000F031FB40B184F841800320C3E736F8F2
:1019B000020BC0F30800E4E784F841800020BAE796
:1019C0007047FEE7F0B50F4885B0816941F0080126
:1019D00081618069112400F0080004904FF4806058
:1019E000002503268DE87100074F69463846FFF74A
:1019F00033F8F8148DE8710069463846FFF72CF883
:101A000005B0F0BD00100240000C01404FF4006131
:101A10000148FFF707B90000000C014010B5012094
:101A200000F042F8012000F037F8FFF7EFFF04461E
:101A3000002000F031F8204610BD70B500240546A6
:101A4000802626FA04F0284000F02EF8012000F04D
:101A500023F8002000F020F8641CE4B2082CF0D336
:101A600070BD10B5012000F01FF8012000F014F83F
:101A7000002000F019F8BDE81040002000F00CB87C
:101A800010B5002000F010F8012000F005F8BDE8C6
:101A90001040012000F008B802464FF48061014870
:101AA000FFF7C5B8000C014002464FF40061014841
:101AB000FFF7BDB8000C0140F0B585B00024204808
:101AC0000094019402940394816941F010018161B2
:101AD000816901F010010491816941F02001816167
:101AE000816901F020010491816941F00401816163
:101AF000816901F004010491816941F0080181616B
:101B00008069104F00F00800049000221021384630
:101B1000FFF78DF810200126CDE900060325694660
:101B20003846CDE90245FEF797FF0820CDE90006CB
:101B300069463846CDE90245FEF78EFF05B0F0BD97
:101B400000100240000C0140FEE7FEE770B5084DB2
:101B500000240021204600F057F805EBC410802136
:101B600000F07AF8641CE4B2082CF2D370BD0000D7
:101B7000B407002010B5FFF725FFAE2000F055F8A0
:101B8000D52000F052F8802000F04FF8A82000F097
:101B90004CF83F2000F049F8D32000F046F8002030
:101BA00000F043F8402000F040F8A12000F03DF89C
:101BB000C82000F03AF8DA2000F037F8122000F0E0
:101BC00034F8812000F031F8CF2000F02EF8D92031
:101BD00000F02BF8F12000F028F8DB2000F025F8C9
:101BE000302000F022F8A42000F01FF8A62000F01A
:101BF0001CF88D2000F019F8142000F016F8BDE84C
:101C00001040AF2000F011B810B50C4640F0B00005
:101C100000F00BF8102040EA141000F006F804F071
:101C20000F00BDE81040AFF3008010B50446FFF789
:101C300018FF7820FFF701FFFFF7F0FE0020FFF705
:101C4000FCFEFFF7EBFE2046FFF7F7FEFFF7E6FE90
:101C5000BDE81040FFF714BF70B50D460646FFF70C
:101C600000FF7820FFF7E9FEFFF7D8FE4020FFF7DE
:101C7000E4FEFFF7D3FE002406E0305DFFF7DDFE53
:101C8000FFF7CCFE641CE4B2AC42F6D3BDE8704072
:101C9000FFF7F6BE10B5502080F31188BFF34F8FC9
:101CA000BFF36F8F01F09CFC18B104494FF08050D6
:101CB0000860002080F3118810BD000004ED00E0F2
:101CC00030B58FB028216846FEF79FFB14210AA883
:101CD000FEF79BFB0120010400248DE81300049013
:101CE0004FF4E010CDE90810022507956846FFF78C
:101CF00075F908B172B6FEE70F20CDE90A054FF479
:101D00008060CDE90C4002210AA80E94FFF764F828
:101D1000002801D072B6FEE70FB030BD704700005A
:101D20000148FFF770BB0000FC0F00200148FFF7DF
:101D30006ABB0000441000200148FFF764BB0000AC
:101D40006C070020F0B50268194C1A4D1A4E4FF07E
:101D50008047A04205D0B84203D0A84201D0B0428B
:101D600003D122F070034A681A43A04205D0B8425A
:101D700003D0A84201D0B04203D122F44073CA6814
:101D80001A434B6922F080021A4302608A68C262D9
:101D90000A688262A04201D109690163012141619F
:101DA0000169C90703D0016921F001010161F0BD9A
:101DB000002C014000040040000800400D4810B510
:101DC0004FF0804101600921416000214722C0E9B4
:101DD00002120161FFF79CFA002206211C20FEF787
:101DE000C9FF1C20FEF7B8FFBDE810400148FFF70F
:101DF000DDBA0000FC0F002010B5406A0021C1854B
:101E0000C184FFF7CBFB10BD01680C3151E8002FF6
:101E100022F4907241E80023002BF5D101681431BF
:101E200051E8002F22F0010241E80023002BF5D1F8
:101E3000016B012909D101680C3151E8002F22F012
:101E4000100241E80023002BF5D1202180F8421038
:101E500000210163704708B590F84210222901D093
:101E6000022008BD81684FF48053994201D1026974
:101E700022B1826A99421BD049B10AE00268816AA4
:101E80005268C2F308020A80816A891C08E001696D
:101E900071B10168496801F07F011170816A491CC4
:101EA0008162C18D491E0904090CC18503D01BE064
:101EB00001684968F1E70168CA6822F02002CA6037
:101EC0000168CA6822F48072CA6001684A6922F017
:101ED00001024A61202180F8421000214163026B17
:101EE000012A03D0FFF710FD002008BD016301683F
:101EF0000C3151E8002F22F0100241E80023002BA2
:101F0000F5D101680A68D20602D50A6849680091CD
:101F1000818DFFF742FBE7E770B504460068016971
:101F2000E26821F4405111430161A1682069014335
:101F3000606901432068C26841F20C639A430A4316
:101F4000C26020684169A26921F440711143416176
:101F50001E492068884202D1FFF70AF801E0FEF727
:101F6000F7FF00EBC00101EB001160686422800004
:101F7000B1FBF0F3B3FBF2F36FF018067343B1FB60
:101F8000F0F5B1FBF0F605EB8305322303EB051505
:101F9000B5FBF2F5B6FBF2F605F0F00505EB06151C
:101FA000B1FBF0F6B1FBF0F0B0FBF2F06FF018010E
:101FB000484306EB800003EB0010B0FBF2F0216811
:101FC00000F00F002844886070BD00000038014018
:101FD00081628285C28500214164222180F84210FD
:101FE000016921B10168CA6842F48072CA6001685F
:101FF0004A6942F001024A610068C16841F020016B
:10200000C160002070472DE9F8431F4690460D46F9
:102010000446089E23E0701C21D0FEF70DFEC01B75
:10202000B0421AD8CEB12068C168490717D5802DB3
:1020300015D0402D13D00168C94309070FD401689A
:102040000025406800902046FFF7DEFE082060640F
:1020500084F840500120BDE8F8830320FBE72068A6
:10206000006835EA000004D000204045D3D00020AD
:10207000F1E70120F9E7000010B50548FFF790FAF5
:10208000BDE81040022203490148FFF72FBC0000C1
:10209000B40F0020090000200C4810B50A49016067
:1020A0004FF41651416000210C22C0E90521016165
:1020B000C1608160FFF7AAFBBDE81040022204491D
:1020C0000248FFF713BC000000380140B40F0020A5
:1020D00009000020FEE70907090E002804DB00F1D3
:1020E000E02080F80014704700F00F0000F1E020BD
:1020F00080F8141D704710B5FEF7ACFDFFF7E0FD4A
:102100004820FEF7BBFAFFF7D7FCFFF733FDFFF7D8
:102110001DFDFEF7C5FAFFF7BFFFFEF7CFFB00205E
:1021200010BD10B500B9012000F0C4FD002010BDA5
:102130002DE9F041184E0F460446F5683068001D41
:1021400000F086FC38B9306890F82C1001208840E7
:10215000316981433161601C07D137B13168BDE815
:10216000F0410E48091D00F0C3BC30682C44AC425D
:102170004460316805D2306CBDE8F041091D00F0C3
:102180009FBCF06B091D00F09BFCB06A844200D23A
:10219000B462BDE8F0810000280000209C130020FC
:1021A0002DE9F041054600F0AFFC2D4EB068401C13
:1021B000B06030682B4F10B1706930B32BE03560E0
:1021C000B068012827D1002404EB840007EB8000CD
:1021D00000F068FC641C202CF6D3234800F062FC5D
:1021E0002148143000F05EFC1F48283000F05AFCF3
:1021F0001D483C3000F056FC1B48503000F052FCAB
:102200001948F0631430306405E03068E96AC06A48
:10221000884200D83560706A0121401C7062686491
:10222000E86A326981401143316100EB800007EBBD
:102230008000291D00F05CFC00F086FC706900281D
:102240000CD03068E96AC06A884207D207494FF06B
:1022500080500860BFF34F8FBFF36F8FBDE8F081F0
:1022600028000020CC1000204C13002004ED00E0DA
:1022700038B500F049FC104C2068C8B90F4800F090
:1022800011FC0E48143000F00DFC0C48E0601430D6
:1022900020610A4B0020A43B009003F1540210215E
:1022A000052000F04BFE206010B105A100F0CEFC2F
:1022B000BDE8384000F048BC6C00002054140020F9
:1022C000546D72510000000030B4026C0B46002ABD
:1022D0000BD0C1681144C1608468A14201D3016878
:1022E000C16030BC1846FEF743B830BC70472DE9DA
:1022F000F041856B174604460026026C82B1C7B1D7
:10230000E068FEF735F8E168206C091AE1602268A0
:10231000914202D2A168081AE060022F16D017E09D
:102320002068A8B9A06801F007FA06460020A0605E
:102330000EE06068FEF71CF8216C6068084460607D
:10234000A168884204D32068606001E005B16D1E79
:102350006D1CA5633046BDE8F08110B5044690F8C9
:102360005D0058B101280CD002280FD0502080F316
:102370001188BFF34F8FBFF36F8FFEE7206B00F024
:10238000F7FB2046BDE8104000F0F2BB10BD000096
:1023900010484FF4E051420706D0C01D0D4920F00F
:1023A0000700411AC1F5E0510B4A00230144C2E97C
:1023B00000030839183A21F0070111604B600B60E7
:1023C0000B1AC0E9001393604FF000405360506156
:1023D000704700007C14002098000020134E144D1C
:1023E000A6F52F774FF08058DFF8489011E000F005
:1023F0008BFBF068C468201D00F02AFBA868401E13
:10240000A8606868401E686000F09EFB2046FFF7E9
:10241000A4FF68680028EAD138680128F9D9C9F80A
:102420000080BFF34F8FBFF36F8FF2E78813002058
:102430002800002004ED00E070B51D46049C59B151
:102440002260C4E90F010121204600F0ABFD84F8B1
:1024500050500020A06470BD2460F2E72DE9F05FC9
:102460000E46DDE90B941746834691009A460A9D75
:10247000A522206BFDF7C1FF6FF00301206B01EB7C
:102480008701084420F00707780707D0502080F321
:102490001188BFF34F8FBFF36F8FFEE74FF0000837
:1024A00066B100202218315C82F83410315C11B121
:1024B000401C1028F6D384F8438001E084F834806F
:1024C000202D00D31F25E562C4E91358201D00F01C
:1024D000F4FA04F1180000F0F0FA2461C5F12000CC
:1024E0006462A061C4F85480C4F8588084F85C80A9
:1024F00052465946384600F099FA2060B9F1000F6B
:1025000001D0C9F80040BDE8F09F000030B5114986
:1025100000E011460A688242FBD34B685C18844293
:1025200003D1406818444860084643681C18944228
:1025300009D1084C183C2468A24209D052681A44B8
:1025400042600A6812680260814200D0086030BDB3
:102550000460F9E79800002070B5002441600B4D3D
:102560000061914206D8D11A8269914206D2011DBA
:10257000286907E09A4203D2994201D3012403E07B
:10258000011DE86800F09CFA204670BD6C00002038
:1025900010B5044600F0B8FAA06B20B1002400F09A
:1025A000D3FA204610BD0124F9E7F1B500260098C2
:1025B000846C5CB1A16BE06B81420FD3502080F33F
:1025C0001188BFF34F8FBFF36F8FFEE7502080F36A
:1025D0001188BFF34F8FBFF36F8FFEE7A16B81426E
:1025E0000CD294F94550002269462046FFF77FFE41
:1025F0000646681C04D06D1C84F845503046F8BD72
:10260000606A0028FAD004F1240001F0E1F8002803
:10261000F4D00126F2E7000030B587B03C4D6EE003
:102620000198002806DADDE90301029A9047019833
:10263000002864DB039C606910B1201D00F008FADB
:1026400005A800F0D7F8024601980A2857D2DFE81B
:1026500000F00505052D334A05052D3394F82800B3
:1026600040F0010084F828000298A1690346014463
:102670002046FFF771FF68B3216A2046884794F827
:10268000280040073BD5002000900298A169002354
:1026900042181946204601F069F9D8B9502080F354
:1026A0001188BFF34F8FBFF36F8FFEE714F8280F29
:1026B00020F00100207022E094F8280040F0010092
:1026C00084F828000298A06128B18118134620469A
:1026D000FFF742FF13E0502080F31188BFF34F8FC4
:1026E000BFF36F8FFEE794F82800810703D42046DC
:1026F00000F03EFA03E020F0010084F828000022F8
:1027000001A9286800F0B8FD002889D107B030BDC4
:102710006C0000202DE9FC410F46054600F076FBD9
:1027200001A800F067F80446019818B101F08CF890
:10273000BDE8FC81254EAFB130690068D0B30027F9
:10274000291B3A46306800F093FA01F07DF8002822
:10275000EED11F494FF080500860BFF34F8FBFF399
:102760006F8FE5E7A542EBD801F06EF8F0682746D9
:10277000C068C468201D00F06BF994F82800410778
:1027800019D5A0692B4641193A462046FFF7E4FEC9
:10279000A8B100200346014600902A46204601F0D9
:1027A000E5F860B9502080F31188BFF34F8FBFF375
:1027B0006F8FFEE707E020F0010084F82800216A0F
:1027C00020468847B4E70127BAE700006C000020E4
:1027D00004ED00E00648C16B096829B1C16BC96806
:1027E000C9684968816270474FF0FF31FAE700001D
:1027F0002800002070B5054600F0ECFE064E0446A9
:10280000B068844203D200F009F8012000E0002003
:1028100028602046B46070BD6C000020F8B5194EE9
:1028200020E0C068C4680568201D00F011F9216A25
:102830002046884794F82800400713D5A06928440B
:10284000A84206D924616060211DF06800F038F9C3
:1028500008E000200346014600902A46204601F089
:1028600085F838B1F06801680029DAD13169C6E924
:102870000310F8BD502080F31188BFF34F8FBFF3D2
:102880006F8FFEE76C00002008484068401C4FF046
:10289000500080F3118804D0BFF34F8FBFF36F8FC8
:1028A000FEE7BFF34F8FBFF36F8FFEE7A00000205E
:1028B000084CE068016839B1002139B10020FFF708
:1028C00029FFFFF7A9FEF4E70121F6E7C0680068D9
:1028D000F5E700006C0000202DE9F041044600F00F
:1028E00013F994F9455004F124060FE0A06C18B1D7
:1028F0002046FFF75AFE04E0606A48B1304600F017
:1029000067FF08B100F004FA6D1E6DB2002DEDDC1A
:102910004FF0FF3684F8456000F016F900F0F4F847
:1029200094F9445004F1100709E0206948B1384691
:1029300000F04EFF08B100F0EBF96D1E6DB2002DF6
:10294000F3DC84F84460BDE8F04100F0FDB800001D
:102950002DE9F0410546002600F058FA324F38685C
:1029600008B9FFF715FD786905424ED1C5B30835A2
:1029700068070ED005F00700C0F10800054468079D
:1029800007D0502080F31188BFF34F8FBFF36F8FB4
:10299000FEE72DB37868854237D8234918310846B9
:1029A000046801E0214604466068A84202D220681B
:1029B0000028F7D13868844227D00E682068086064
:1029C00060680836411B10290FD96019420708D0EA
:1029D000502080F31188BFF34F8FBFF36F8FFEE756
:1029E00013E041606560FFF791FD61687868401A07
:1029F0007860BA68904200D2B860786901430020DC
:102A0000C4E90001F868401CF86000F01DFF700781
:102A100007D0502080F31188BFF34F8FBFF36F8F23
:102A2000FEE73046BDE8F0818000002010B5031FAE
:102A30004FF080741C601B1F21F001011960191FE9
:102A4000024B0B60143940380A6010BD8928000819
:102A5000D0E9013201699A60D0E901235A604A68DD
:102A6000824201D182684A60002202610868401EE9
:102A70000860086870470000034B036003F16000C2
:102A80000860802010607047AC000020044B036099
:102A9000A3F5806008604FF48070106070470000FC
:102AA0000C07002000F108014FF0FF32C0E90112CD
:102AB000C160016100210160704700210161704720
:102AC00030B50C68621C02D000F1080202E0026915
:102AD00004E01A4653681D68A542FAD953684B6052
:102AE00099608A60516008610168491C016030BDCD
:102AF00042684A6093688B6093685960916008618E
:102B00000168491C01607047502080F31188BFF3B1
:102B10004F8FBFF36F8F0A494868401C48600128F7
:102B20000CD10848006810F0FF0F07D0502080F348
:102B30001188BFF34F8FBFF36F8FFEE77047000020
:102B4000A000002004ED00E00849486828B1401EBC
:102B5000486001D180F311887047502080F31188BC
:102B6000BFF34F8FBFF36F8FFEE70000A000002080
:102B700070B500282AD0164DA0F108046068696974
:102B8000084207D1502080F31188BFF34F8FBFF365
:102B90006F8FFEE722683AB1502080F31188BFF3AF
:102BA0004F8FBFF36F8FFEE78843606000F02EF910
:102BB00060686968084468602046FFF7A7FC2869D8
:102BC000401C2861BDE8704000F03EBE70BD0000B2
:102BD000800000204FF0E020002101618161054963
:102BE0004FF47A720968B1FBF2F1491E4161072185
:102BF000016170472400002010B5FDF711FB114959
:102C000010280ED300F1E02090F8F0030A789042EB
:102C100007D2502080F31188BFF34F8FBFF36F8F1F
:102C2000FEE709480068896800F4E060884207D937
:102C3000502080F31188BFF34F8FBFF36F8FFEE7F3
:102C400010BD0000A00000200CED00E010B5074B07
:102C5000002253F832401CB1521C082AF9D310BD8F
:102C600043F8321003EBC201486010BD8C10002005
:102C700070B515460E460446FFF746FF94F944101A
:102C80000020491C01D184F8440094F94510491CE6
:102C900001D184F84500FFF757FFA06B28B92A46F9
:102CA000314604F1240000F051F82046BDE87040A0
:102CB000FFF712BE10B5020014D00F48006B38B1F8
:102CC000502080F31188BFF34F8FBFF36F8FFEE763
:102CD00000F09CF800211046FFF72AFA00F0B4FD3E
:102CE000002807D105494FF080500860BFF34F8F8F
:102CF000BFF36F8F10BD00002800002004ED00E03E
:102D000002490A6A0260C9684160704728000020D1
:102D100001490120C86170472800002010B50C4609
:102D200050B1094909681831FFF7CAFE2046BDE8CD
:102D300010400121FFF7FCB9502080F31188BFF348
:102D40004F8FBFF36F8FFEE72800002070B5144649
:102D50000D4668B10A4909681831FFF7C9FE0CB180
:102D60004FF0FF3521462846BDE87040FFF7E0B937
:102D7000502080F31188BFF34F8FBFF36F8FFEE7B2
:102D80002800002030B587B00025039505AA04A9C6
:102D900003A80495FFF770FEDDE903010095CDE976
:102DA0000110002315A11748059A00F068FB164C86
:102DB000E06218B100F0AAFD012809D0401C1BD127
:102DC000502080F31188BFF34F8FBFF36F8FFEE762
:102DD000502080F31188BFF34F8FBFF36F8F4FF0F8
:102DE000FF30A06201206061E560FDF73DFC07B0A7
:102DF000BDE8304000F04EB807B030BD49444C4506
:102E000000000000DD230008280000200248016BBC
:102E1000491C016370470000280000201A4B10B5C0
:102E2000186B10B10120D86110BD0020D86117487F
:102E3000006898635A6B904204D91968821A4C6DE5
:102E400022444A65586318691149B0FA80F0C0F10C
:102E50001F0000EB800051F820206AB101EB8000D8
:102E600000F10802416849684160914201D1496816
:102E70004160C868186010BD502080F31188BFF30E
:102E80004F8FBFF36F8FFEE7280000201000002057
:102E9000CC1000201CB5264908780190FF2008704E
:102EA00008788DF800009DF800009DF8002000F0E3
:102EB000F000904207D0502080F31188BFF34F8F6D
:102EC000BFF36F8FFEE79DF800001A4C00F0500032
:102ED00020700720A06006E0401EA0609DF8000062
:102EE00040008DF800009DF800000006A068F3D4B3
:102EF000032807D0502080F31188BFF34F8FBFF312
:102F00006F8FFEE74FF44070A060019808700A4888
:102F1000016841F470010160016841F07041016095
:102F2000FFF758FE00206060FDF744F900201CBD4B
:102F300000E400E0A000002020ED00E038B5049D92
:102F400018B153B1CAB181B120E0502080F311888B
:102F5000BFF34F8FBFF36F8FFEE7502080F31188D0
:102F6000BFF34F8FBFF36F8FFEE7502080F31188C0
:102F7000BFF34F8FBFF36F8FFEE739B1502080F35F
:102F80001188BFF34F8FBFF36F8FFEE754241C46A9
:102F9000012384F846302B460094FFF74DFA204673
:102FA00038BD000070B50D46040025D0FFF7ACFD1C
:102FB000D4E90F20216802FB0011A1600021A16368
:102FC000216861600A46D4E90F01401E00FB01211F
:102FD000E16021464FF0FF3001F8440F487004F1E2
:102FE00010008DB1FFF75EFD04F12400FFF75AFDDC
:102FF000FFF7AAFD012070BD502080F31188BFF3B8
:103000004F8FBFF36F8FFEE721690029F0D000F0EA
:10301000DFFB0028ECD004494FF080500860BFF37C
:103020004F8FBFF36F8FE3E704ED00E02DE9FF4F13
:1030300083B01F468B4604004FF0000603D0BBF15F
:10304000000F08D011E0502080F31188BFF34F8F9C
:10305000BFF36F8FFEE7206C38B1502080F31188EA
:10306000BFF34F8FBFF36F8FFEE7022F0AD1E06BE4
:10307000012807D0502080F31188BFF34F8FBFF392
:103080006F8FFEE700F098FADFF814914FF0000A16
:103090004FF0805848B9059838B1502080F3118816
:1030A000BFF34F8FBFF36F8FFEE7FFF72DFDA06BD0
:1030B000E16B884205D3022F03D0059818B32EB3D5
:1030C00028E0A56B3A4659462046FFF710F9A16C57
:1030D00031B1022F00D185B92046FFF766FA05E02D
:1030E000616A19B104F1240000F072FB28B1C9F83B
:1030F0000080BFF34F8FBFF36F8FFFF725FD0120D7
:1031000007B0BDE8F08FFFF71FFD21E06846FFF72D
:10311000F7FD0126FFF718FDFFF778FEFFF7F4FC37
:1031200094F94400401C01D184F844A094F945006E
:10313000401C01D184F845A0FFF706FD05A96846AB
:1031400000F036F930B12046FFF7C6FB00F07CFBFB
:103150000020D5E7FFF7D8FCA06BE16B884201D1D6
:10316000012500E00025FFF7EFFC95B104F1100008
:103170000599FFF7D3FD2046FFF7AEFB00F064FB97
:10318000002892D1C9F80080BFF34F8FBFF36F8F33
:103190008BE72046FFF7A0FB00F056FB85E7000019
:1031A00004ED00E02DE9F0471F4615468A4604006D
:1031B00003D0BAF1000F08D011E0502080F311883D
:1031C000BFF34F8FBFF36F8FFEE7206C38B15020F5
:1031D00080F31188BFF34F8FBFF36F8FFEE7022F8D
:1031E0000AD1E06B012807D0502080F31188BFF38B
:1031F0004F8FBFF36F8FFEE7FFF7FEFC5021EFF319
:10320000118081F31188BFF34F8FBFF36F8F80461A
:10321000A06BE16B884206D3022F04D0002088F314
:103220001188BDE8F08794F94560D4F838903A46A3
:1032300051462046FFF75BF8701C04D0761C84F8DA
:1032400045600120EBE7A06C012640B1022F02D1BE
:10325000B9F1000FF5D12046FFF7A7F906E0606A43
:103260000028EED004F1240000F0B2FA0028E8D0E3
:10327000002DE6D02E60E4E72DE9F74783B08A46BB
:1032800004004FF0000603D0BAF1000F08D011E09F
:10329000502080F31188BFF34F8FBFF36F8FFEE78D
:1032A000206C38B1502080F31188BFF34F8FBFF3EB
:1032B0006F8FFEE700F080F9DFF8F09000274FF005
:1032C000805848B9059838B1502080F31188BFF371
:1032D0004F8FBFF36F8FFEE7FFF716FCA56BC5B1ED
:1032E00051462046FEF7F0FF6D1EA563206950B1E0
:1032F00004F1100000F06CFA28B1C9F80080BFF3A7
:103300004F8FBFF36F8FFFF71FFC012006B0BDE8A2
:10331000F087059808B11EB106E0FFF715FC27E01D
:103320006846FFF7EDFC0126FFF70EFCFFF76EFD88
:10333000FFF7EAFB94F94400401C01D184F8447083
:1033400094F94500401C01D184F84570FFF7FCFB5F
:1033500005A9684600F02CF8002820460AD0FFF79F
:10336000BBFA00F071FA2046FFF712F90028B3D03B
:103370000020CBE7FFF70CF990B104F12400059988
:10338000FFF7CCFC2046FFF7A7FA00F05DFA002813
:10339000A2D1C9F80080BFF34F8FBFF36F8F9BE7B7
:1033A0002046FFF799FA00F04FFA95E704ED00E0A8
:1033B0002DE9F0410C46050011D0C4B1FFF7A4FB84
:1033C000174EF1686B682268C81A571C17D02F680F
:1033D000366AB74219D08B4217D8012410E050202A
:1033E00080F31188BFF34F8FBFF36F8FFEE750203C
:1033F00080F31188BFF34F8FBFF36F8FFEE7002478
:10340000FFF7A2FB2046BDE8F081824205D9101AE1
:1034100020602846FFF774FCF1E700202060DCE71D
:10342000280000202DE9FF5F8346DDE90E879946DD
:1034300016468A469000FFF78BFA05001CD06020E4
:10344000FFF786FA040014D00020256384F85D009D
:10345000CDE90240CDE900874B46324651465846F9
:10346000FEF7FCFF2046FEF79BFE012004B0BDE8FE
:10347000F09F2846FFF77CFB4FF0FF30F6E7F0B5F2
:1034800085B00546DDE90B040A9EA8B1E4B16027CA
:1034900000972063022084F85D000020CDE90240FF
:1034A00004AF2846CDE90067FEF7D8FF2046FEF7B7
:1034B00077FE049805B0F0BD502080F31188BFF36B
:1034C0004F8FBFF36F8FFEE7502080F31188BFF35B
:1034D0004F8FBFF36F8FFEE72DE9F0411F469046F7
:1034E0000D46012690B10446FFF70EFB0FB1A06D0B
:1034F000386094F85C00022184F85C10B8F1050F84
:1035000019D2DFE808F0230B0E141200502080F3CC
:103510001188BFF34F8FBFF36F8FFEE7A16D294373
:1035200001E0A16D491CA16510E0022801D0A5654C
:103530000CE0002635E0A16D491C07D0502080F337
:103540001188BFF34F8FBFF36F8FFEE7012828D19B
:10355000201DFFF77DFA154DE06A01212A6981409F
:1035600011432961124900EB800001EB8000211D0D
:10357000FFF7BEFAA06A38B1502080F31188BFF37C
:103580004F8FBFF36F8FFEE7E06A2968C96A8842F0
:1035900007D908494FF080500860BFF34F8FBFF341
:1035A0006F8FFFF7D1FA3046BDE8F0812800002088
:1035B000CC10002004ED00E00548416919B1006B12
:1035C00018B10020704701207047022070470000AA
:1035D000280000200148C068704700002800002033
:1035E0002DE9F0412F4F0026386B28B1B869401CF7
:1035F000B8613046BDE8F081FD686D1CFD6013D1F7
:10360000F86B006838B1502080F31188BFF34F8FFA
:10361000BFF36F8FFEE7F86B396CF9633864386A73
:10362000401C3862FFF7D6F8B86ADFF87C80854224
:1036300009D3F86B0068A0B1F86BC068C468606813
:10364000854211D2B8623868C06A00EB800158F830
:103650002100012800D90126F8690028C9D00126D7
:10366000C7E74FF0FF30EDE7201DFFF7F1F9A06A43
:1036700018B104F11800FFF7EBF9E06A01213A698B
:1036800081401143396100EB800108EB8100211D6D
:10369000FFF72EFAE06A3968C96A8842C9D3012661
:1036A000C7E7000028000020CC1000202DE9F041E1
:1036B0001E46154688460746FFF726FA1C4C20682A
:1036C00090F85C00022814D02068816DB9438165B0
:1036D0002168012081F85C005EB101213046FEF7CF
:1036E00027FD14494FF080500860BFF34F8FBFF3A0
:1036F0006F8FFFF729FAFFF707FA15B12068806D81
:103700002860206890F85C00022801D0002505E0C0
:103710002068816D21EA080181650125216800206A
:1037200081F85C00FFF710FA2846BDE8F081000040
:103730002800002004ED00E070B504004FF0000008
:1037400041D0214D29688C4207D0502080F3118848
:10375000BFF34F8FBFF36F8FFEE7216D71B1491E2D
:103760002165E36CE26A9A422DD000292BD1201DFD
:10377000FFF76EF91549012240B112E0502080F3A5
:103780001188BFF34F8FBFF36F8FFEE7E06A00EB46
:10379000800351F8233023B92B6902FA00F08343E8
:1037A0002B61E06CE062C0F12000A061E06A2B694F
:1037B00082401A432A6100EB800001EB8000211D4A
:1037C000FFF796F9012070BD28000020CC100020E2
:1037D0002DE9F041C068C468ACB104F11800074697
:1037E000FFF736F9154D286B0126A0B1394614486C
:1037F000FFF77EF9E06A2968C96A88421BD901206F
:10380000EE61BDE8F081502080F31188BFF34F8F47
:10381000BFF36F8FFEE7201DFFF71AF9E06A2A69F0
:1038200006FA00F111432961064900EB800001EB23
:103830008000211DDCE70020E3E7000028000020D5
:1038400074130020CC1000202DE9F0472C4D0024EB
:103850002746286B38B1FFF757F9286B401E2863BD
:10386000286B40B146E0502080F31188BFF34F8FA2
:10387000BFF36F8FFEE7A86822490126D0B3A1F5F8
:103880002A798846D8F80010E9B1D8F80C00C46845
:1038900004F11800FFF7DCF8201DFFF7D9F8E06A03
:1038A0002A6906FA00F11143296100EB800109EB56
:1038B0008100211DFFF71CF9E06A2968C96A884266
:1038C000E0D3EE61DEE70CB1FEF784FFAC693CB1FA
:1038D000FFF786FE00B1EE61641EF9D10020A861F9
:1038E000E86938B10849012738070860BFF34F8FEE
:1038F000BFF36F8FFFF728F93846BDE8F087000067
:10390000280000207413002004ED00E010B586B0FC
:10391000FEF7AEFC114C2068B8B100200390049073
:1039200005AA04A903A8FFF7B1F8DDE903211F20C8
:103930008DE8070000230AA10B48059AFFF79FFDB9
:10394000606010B106B0012010BD502080F31188D6
:10395000BFF34F8FBFF36F8FFEE700006C000020B6
:10396000546D722053766300B12800082DE9FF41A1
:103970001F4603000A9E4FF0000015D0134D2C681F
:10398000002C0ED08DE80E00062917DAFFF714FE82
:1039900002284FF000030FD0002269462868FFF785
:1039A00045FB04B0BDE8F081502080F31188BFF3DF
:1039B0004F8FBFF36F8FFEE73246EEE700233A46A4
:1039C00069462046FFF7EEFBEBE700006C000020A5
:1039D000010202030405060708090A0B0C0D0E0F6D
:1039E00010100000000000000000010203040607A0
:1039F0000809000000000102030400001C3A00084E
:103A000000000020AC00000028010008C83A0008AF
:103A1000AC00002034360000440100080000000023
:103A20000000000000000000000000000000000096
:103A30000000000001000000100000000000000075
:103A400000127A00000000000000000000000000EA
:103A50000000000000000000000000000000000066
:103A60000000000000000000000000000000000056
:103A70000000000000000000000000000000000046
:103A80000000000000000000000000000000000036
:103A90000000000000000000000000000000000026
:103AA0000000000000000000000000000000000016
:103AB0000000000000000000000000000000000006
:083AC000AAAAAAAA0000000056
:04000005080000ED02
:00000001FF
