:020000040800F2
:10000000580F002089010008E3110008BD10000806
:10001000E11100088F020008991900080000000093
:10002000000000000000000000000000AD17000804
:10003000E102000800000000AB160008AF1700083E
:10004000E51A0008A3010008A3010008A3010008A5
:10005000A3010008A3010008A3010008E5020008AD
:10006000A3010008A3010008A3010008A3010008E0
:10007000A3010008A3010008A3010008A3010008D0
:10008000A3010008A3010008A3010008A3010008C0
:10009000A3010008A3010008A3010008A3010008B0
:1000A000A3010008A3010008A30100081518000817
:1000B000A3010008A3010008A3010008A301000890
:1000C000A3010008A3010008A3010008A301000880
:1000D000A301000879190008A3010008A301000882
:1000E000A3010008A3010008A301000800F002F822
:1000F00000F03AF80AA090E8000C82448344AAF188
:100100000107DA4501D100F02FF8AFF2090EBAE885
:100110000F0013F0010F18BFFB1A43F0010318473B
:100120002023000040230000103A24BF78C878C183
:10013000FAD8520724BF30C830C144BF04680C60ED
:10014000704700000023002400250026103A28BF35
:1001500078C1FBD8520728BF30C148BF0B60704739
:100160001FB51FBD10B510BD00F058F81146FFF7C0
:10017000F7FF01F0CDFC00F076F803B4FFF7F2FFD3
:1001800003BC00F07DF8000009488047094800479B
:10019000FEE7FEE7FEE7FEE7FEE7FEE7FEE7FEE737
:1001A000FEE7FEE704480549054A064B7047000094
:1001B00011180008ED00000858090020580F002011
:1001C000580B0020580B00204FF0000200B51346DA
:1001D00094469646203922BFA0E80C50A0E80C5067
:1001E000B1F12001BFF4F7AF090728BFA0E80C5018
:1001F00048BF0CC05DF804EB890028BF40F8042B11
:1002000008BF704748BF20F8022B11F0804F18BF7D
:1002100000F8012B7047704770477047754600F033
:100220002BF8AE4605006946534620F00700854688
:1002300018B020B5FFF7B6FFBDE820404FF000062C
:100240004FF000074FF000084FF0000B21F00701BE
:10025000AC46ACE8C009ACE8C009ACE8C009ACE801
:10026000C0098D46704710B50446AFF300802046A4
:10027000BDE81040FFF781BF00487047F408002038
:1002800001491820ABBEFEE7260002007047FEE7DA
:1002900010B504464FF0E0210020086100F096FC04
:1002A0000149E008088010BD0C0000200B490988B6
:1002B00048434FF0E021486100228A61086940F01C
:1002C000010008610869C30701D0C003FAD50869B5
:1002D00020F0010008618A61704700000C000020D6
:1002E0007047000010B5022000F08EF8014902208E
:1002F000086010BD1404014010B590F821100022D0
:10030000022905D00421816380F82020012010BD3E
:1003100001680B6823F00E030B6001680B6823F083
:1003200001030B6090F84030C46B012101FA03F324
:10033000636080F8211080F82020104610BD000076
:1003400010B590F821100024022903D00421816304
:1003500001243DE001680A6822F00E020A6001688B
:100360000A6822F001020A601A4A0168914201D12A
:10037000012121E0174A1432914201D110211BE0E2
:10038000144A2832914201D1891515E0114A3C32B4
:10039000914201D189140FE00E4A5032914202D1AC
:1003A0004FF4803108E00B4A6432914202D14FF49D
:1003B000801101E04FF08071064A083A5160012136
:1003C00080F82110002180F82010416B01B188478E
:1003D000204610BD0800024010B504460520FFF776
:1003E00065FF022C09D10421054800F009F90549EF
:1003F0000128088802D0401E088010BD401CFBE781
:100400000008014012000020044910B50A680242A9
:1004100002D00860FFF7E0FF10BD000014040140A7
:100420002DE9F84FDFF8B8910024A9F1040B234619
:100430000F2709F1040AABF1040EC9E00125A5401C
:100440002A40AA427DD1674ED1F804C0ACEB060821
:10045000B44532D014DCBCF1030F3AD009DCBCF156
:10046000000F2AD0BCF1010F1CD0BCF1020F31D11A
:100470001DE0BCF1110F17D0BCF1120F2AD119E009
:10048000B8F5881F19D006DCB8F5803F15D0B8F54F
:10049000801F1FD111E0B8F5001F0ED0B8F5041F62
:1004A00018D10AE0CB6815E0CB681B1D12E0CB68C1
:1004B00008330FE0CB680C330CE08B682BB1012BB9
:1004C0004FF0080303D0456104E0042302E0056116
:1004D00000E00023FF2A01D8064601E000F10406EF
:1004E0004FEA840501D9A5F12005D6F8008007FA66
:1004F00005FC28EA0C0803FA05F548EA0508C6F8E1
:1005000000804D68ED0062D5374DAE6946F00106BA
:10051000AE61AD6924F0030605F001050095334D89
:1005200006EB050CDCF80850A607360F07FA06F8AC
:1005300025EA0805DFF8B880404503D14FF00008F0
:1005400017E044E0DFF8AC80404502D14FF00108ED
:100550000FE0DFF8A480404502D14FF0020808E028
:10056000DFF89880404502D14FF0030801E04FF0DA
:10057000040808FA06F848EA0508CCF808804D682F
:10058000D9F80060ED024D4601D5164300E09643D0
:100590002E604D68DAF80060AD02554601D516436D
:1005A00000E096432E604D68DBF80060AD035D46C9
:1005B00001D5164300E096432E604D68DEF80060DA
:1005C000ED03754601D5164300E096432E60641C8A
:1005D0000D682A46E5407FF431AFBDE8F88F000092
:1005E000080401400000111000100240000001400A
:1005F00000080140000C01400010014000140140BF
:100600008068084000D0012070470AB1016170473E
:100610000904FBE701488068704700001C000020C7
:100620000248816802781144816070471C000020F4
:10063000074810B5016841F010010160052000F085
:1006400067F8002000F006F800F024F8002010BD44
:100650000020024070B50D4D04464FF47A712878A1
:10066000B1FBF0F00A490968B1FBF0F000F0BAFA0A
:1006700048B9102C07D200222146501E00F028F85D
:1006800000206C6070BD012070BD00001C000020C7
:10069000280000200C4808B5816941F00101816102
:1006A000816901F001010091C16941F08051C1618E
:1006B000C06900F0805000900448416821F0E0617A
:1006C00041F00071416008BD00100240000001408F
:1006D000F0B40E4B1B680C46C3F30223C3F10705AD
:1006E000042D00D90425191D072901D2002300E09B
:1006F000DB1E012606FA05F1491E214099409E4065
:10070000761E16403143F0BC01F0F2B90CED00E06A
:10071000064900F0070208684FF6FF03184040EA58
:100720000220034A10430860704700000CED00E00F
:100730000000FA052DE9F0470F46050061D0434E51
:10074000306800F00700B84209D2306820F0070096
:1007500038433060306800F00700B84251D1286853
:100760003B4C810712D5400703D5606840F4E06038
:1007700060602878000703D5606840F460506060CE
:100780006068A96820F0F000084360602878C0071E
:1007900028D06868012810D02168022810D0890765
:1007A00000292EDA616821F0030101436160FFF73F
:1007B00031FF804641F288390DE021688903EFE777
:1007C0008901EDE7FFF726FFA0EB0801494502D9B3
:1007D0000320BDE8F0876068696800F00C00B0EBAA
:1007E000810FEFD1306800F00700B8420BD93068B4
:1007F00020F0070038433060306800F00700B8424E
:1008000001D00120E5E72878400705D56068E96850
:1008100020F4E060084360602878000706D560682F
:10082000296920F4605040EAC100606000F018F8C7
:100830006168084AC1F30311515CC8400649086069
:1008400006480068FFF706FF0020C2E700200240CC
:100850000010024030240008280000202000002062
:100860000E4A51680E4801F00C03042B11D0082BDE
:100870000FD10C48C1F38343C903C05C0AD551684A
:10088000084AC1F34041921E515C054A5043B0FBF7
:10089000F1F07047044948437047000000100240DF
:1008A00000127A002024000800093D002DE9F84FCD
:1008B000040070D02078C04DC00749D06868C0F3EC
:1008C0008100012807D06868C0F38100022809D19F
:1008D0006868C00306D52868800339D56068002899
:1008E000E7D035E06068B0F5803F0BD010B1B0F5CF
:1008F000A02F11D0286820F480302860286820F4C8
:10090000802002E0286840F480302860606890B160
:10091000FFF780FE06460AE0286840F48020286041
:10092000F0E700BFFFF776FE801B642873D82868C5
:100930008003F7D50CE0FFF76DFE064605E000BF2B
:10094000FFF768FE801B6428F0D828688003F7D47E
:1009500020789A4E80074FF001094FF0000839D5F2
:10096000686810F00C0F07D06868C0F38100022897
:1009700009D16868C00306D42868800714D52069A7
:10098000012808D110E02069B0B1C6F80090FFF747
:1009900041FE074605E00AE1FFF73CFEC01B0228C6
:1009A000C4D828688007F7D52868616920F0F80066
:1009B00040EAC10028600DE0C6F80080FFF72AFE7B
:1009C000074604E0FFF726FEC01B022823D828684C
:1009D0008007F7D4207800072CD57948A169D9B1D0
:1009E000C0F80090FFF716FE074604E0FFF712FE7E
:1009F000C01B02280FD8686A8007F7D571484FF4EA
:100A0000FA510068B0FBF1F0009000BF0098411E61
:100A10000091FAD20EE080E0C0F80080FFF7FAFD06
:100A2000074604E0FFF7F6FDC01B022875D8686A88
:100A30008007F7D42078400760D5E8690027C00018
:100A400008D4E86940F08050E861E869012700F0C7
:100A5000805000905C480168C90513D40168834642
:100A600041F480710160FFF7D5FD824606E000BFCA
:100A7000FFF7D0FDA0EB0A0064284ED8DBF8000099
:100A8000C005F5D5E06801280AD008B1052813D0C3
:100A9000286A20F001002862286A20F0040002E0A1
:100AA000286A40F001002862E06841F2883B98B172
:100AB000FFF7B0FD82460BE0286A40F00400286290
:100AC000EEE700BFFFF7A6FDA0EB0A0159455AD893
:100AD000286A8007F6D50CE0FFF79CFD824605E00A
:100AE000FFF798FDA0EB0A0159454CD8286A80070A
:100AF000F6D41FB1E86920F08050E861E06988B35E
:100B00006968C1F38101022944D00228C6F86080D7
:100B100004D0FFF77FFD044638E034E0FFF77AFDAC
:100B2000074604E0FFF776FDC01B02282BD8286893
:100B30008001F7D4206AB0F5803F05D16868A168CC
:100B400020F4003008436860D4E90801084369686C
:100B500021F4741108436860C6F86090FFF75AFDED
:100B6000044606E025E000BFFFF754FD001B022805
:100B700009D828688001F7D51BE000BFFFF74AFDC0
:100B8000001B022802D90320BDE8F88F28688001E5
:100B9000F4D40EE00128F7D06868226A00F48031AE
:100BA000914204D1616A00F47010884201D00120A2
:100BB000EAE70020E8E7000000100240000042429F
:100BC0008004424228000020007000404FF0E021E5
:100BD0000428086903D020F004000861704740F041
:100BE0000400FAE710B5401EB0F1807F01D3012068
:100BF00010BD4FF0E02460610F21601700F078FF16
:100C00000020A06107202061002010BD70477047C0
:100C100010B5104A0168914214D1007F0E4C012892
:100C200011D002280ED104210C4800F0B4F8401C69
:100C300080B220806421401C48436188491CB0FB7D
:100C4000F1F0A08010BD0021044800F0A4F8401C81
:100C5000608010BD002C0140140000208808002096
:100C60002DE9F04104460068C66805694FF00007A9
:100C7000A90713D5B10711D5F91E0161012020770D
:100C8000206880698007204602D0FFF7C1FF04E09A
:100C900000F07EF8204600F07CF82777680716D52C
:100CA000700714D521686FF00400086102202077D6
:100CB0002068806910F4407F204602D0FFF7A8FF2B
:100CC00004E000F065F8204600F063F82777280775
:100CD00015D5300713D521686FF00800086104208E
:100CE00020772068C0698007204602D0FFF790FF78
:100CF00004E000F04DF8204600F04BF82777E806B6
:100D000016D5F00614D521686FF010000861082090
:100D100020772068C06910F4407F204602D0FFF79A
:100D200077FF04E000F034F8204600F032F827772F
:100D3000E80708D0F00706D021686FF001000861CD
:100D4000204600F027F8280608D5300606D5216889
:100D50006FF0800008612046FFF758FF680608D54D
:100D6000700606D521686FF040000861204600F04B
:100D700027F8A8060AD5B00608D521686FF020002C
:100D800008612046BDE8F041FFF741BFBDE8F081B2
:100D90007047704770470246002041B1042909D0CE
:100DA00008290AD00C2901D11068006C704710681E
:100DB000406B70471068806B70471068C06B70475D
:100DC0007047704770470000F8B50168044608682E
:100DD000CA684B6910F00F0F4FF0000559D003F0AF
:100DE000010602F49077374365D0C10705D0D105DD
:100DF00003D5616C41F001016164410705D5D90754
:100E000003D0616C41F002016164810705D5D90707
:100E100003D0616C41F004016164010707D502F061
:100E20002001314303D0616C41F008016164616CC1
:100E300000293AD0800604D5900602D5204600F05D
:100E40001EFD20684069616CC0F38010090700D462
:100E500060B3204600F0ECFC20684069400621D5D4
:100E60002068143050E8001F21F0400140E80012D3
:100E7000002AF5D1E06BA8B16D494163E06BFFF743
:100E80005FFA002811D0E06B416B01B0BDE8F04083
:100E9000084783060FD593060DD52046BDE8F840D8
:100EA00000F0EDBC2046FFF78DFFF8BD2046FFF7B0
:100EB00089FF6564F8BD266B2023012E7CD1C60610
:100EC0007AD5D60678D508684868009048694FF00A
:100ED0000206400640D5E16B086840680004000C3B
:100EE000E8D0A28D8242E5D9E085886920282DD0FE
:100EF00020680C3050E8001F21F4807140E8001297
:100F0000002AF5D12068143050E8001F21F00101BB
:100F100040E80012002AF5D12068143050E8001F84
:100F200021F0400140E80012002AF5D184F8423057
:100F3000256320680C3050E8001F21F0100140E8C4
:100F40000012002AF5D1E06BFFF7D6F96663A08D99
:100F5000E18D401A81B22AE0A08DE18D401A81B264
:100F6000E08D0028A6D00029A4D022680C3252E8D7
:100F7000000F20F4907042E80007002FF5D12068A0
:100F8000143050E8002F22F0010240E80027002F23
:100F9000F5D184F84230256320680C3050E8002FEA
:100FA00022F0100240E80023002BF5D166632046B2
:100FB000FFF707FFF8BDFFE705062BD5150629D576
:100FC00094F841002128F5D1A068B0F5805F01D1E7
:100FD0002069B0B1206A411C216221680078486014
:100FE000E08C401E0004000CE084E3D12068C1685E
:100FF00021F08001C1602068C16841F04001C160FA
:10100000D8E7206A0088C0F308004860206A801C86
:101010002062E5E74006CDD55006CBD5CA6820460C
:1010200022F04002CA6084F8413000F01DF8C1E7A8
:101030002118000890F84230202B01D00220704780
:1010400021B11AB10023036300F07ABC012070477C
:1010500000680349884202D1024901204870704764
:10106000003801400E0000207047000010B50068F5
:101070000549884206D1054800F01BF80449088854
:10108000401C088010BD0000002C004074080020A7
:101090001000002010B501684A68D243920507D4B9
:1010A0008A68D243D20703D1921E8A60FFF7DEFF1F
:1010B00010BDC1680068016000207047FEE70000B5
:1010C000F0B5114885B0816941F0080181618069FE
:1010D000112400F0080004904FF4806000250326DE
:1010E0008DE87100094F69463846FFF799F9F81401
:1010F0008DE8710069463846FFF792F94820FFF7FE
:10110000C7F805B0F0BD000000100240000C01401F
:1011100010B54FF400610448FFF772FA04460A2044
:10112000FFF7C4F8204610BD000C014010B50120A7
:1011300000F048F8012000F037F8FFF7E9FF044617
:10114000002000F031F8204610BD70B5002405469F
:10115000802626FA04F0284000F034F8012000F040
:1011600023F8002000F020F8641CE4B2082CF0D32F
:1011700070BD10B5012000F025F8012000F014F832
:10118000002000F01FF8BDE81040002000F00CB86F
:1011900010B5002000F016F8012000F005F8BDE8B9
:1011A0001040012000F00EB810B502464FF48061E7
:1011B0000348FFF72AFABDE810400A20FFF776B887
:1011C000000C014010B502464FF400610348FFF7E0
:1011D0001CFABDE810400A20FFF768B8000C014077
:1011E000FEE7FEE770B5084D00240021204600F020
:1011F00079F805EBC410802100F031FA641CE4B2E8
:10120000082CF2D370BD00002C000020F0B50126A0
:10121000DFF838E087180B4414E001F0070206FA03
:1012200002F5CA0804460EEBC21207E012F804C029
:101230002CEA050C02F804C0641CE4B2A742F5D203
:10124000491CC9B28B42E8D2F0BD00002C0400203A
:1012500010B5FFF735FFAE2000F0EAF9D52000F019
:10126000E7F9802000F0E4F9A82000F0E1F93F2040
:1012700000F0DEF9D32000F0DBF9002000F0D8F90F
:10128000402000F0D5F9A12000F0D2F9C82000F0EC
:10129000CFF9DA2000F0CCF9122000F0C9F9812052
:1012A00000F0C6F9CF2000F0C3F9D92000F0C0F952
:1012B000F12000F0BDF9DB2000F0BAF9302000F099
:1012C000B7F9A42000F0B4F9A62000F0B1F98D2000
:1012D00000F0AEF9142000F0ABF9BDE81040AF20EB
:1012E00000F0A6B910B50C4640F0B00000F0A0F92F
:1012F000102040EA141000F09BF904F00F00BDE844
:10130000104000F095B900002DE9FF4F83B08146F1
:101310001C4610984121422343274FF0440B4FF0C5
:10132000450E01AD10281CD0062876D1DFF888A123
:10133000002000BF02F00F0CBCF10A0F75D0BCF109
:101340000B0F74D0BCF10C0F73D0BCF10D0F72D029
:10135000BCF10E0F72D06FEA02085FEA087871D014
:1013600072E0DFF858A1002002F00F0CBCF10A0F68
:1013700011D0BCF10B0F10D0BCF10C0F0FD0BCF191
:101380000D0F0ED0BCF10E0F0ED06FEA02085FEA0F
:1013900008780CD00DE029540DE02B540BE02F54AD
:1013A00009E005F800B006E005F800E003E04FF0C2
:1013B000460C05F800C0401C1209C0B20828D3D35F
:1013C00028E000BF09EBC607F8B2102308220499F1
:1013D000FFF71CFF285D09280AD80AEB001000F56A
:1013E00080700090F8B210230822049900F068F889
:1013F000285DA0F1410105290AD80AEB0010A0F5EB
:1014000000700090F8B210230822049900F058F8F8
:10141000761CF6B2641EE4B2D4D207B0BDE8F08FF9
:1014200003E004E005E006E008E029540EE02B5458
:101430000CE02F540AE005F800B007E005F800E0E2
:1014400004E0FFE74FF0460C05F800C0401C12090D
:10145000C0B20828FFF46EAF2AE000BF09EBC60750
:10146000F8B2082306220499FFF7D0FE285D092868
:101470000BD800EB40010AEB410060300090F8B25D
:1014800008230622049900F01BF8285DA0F1410111
:1014900005290BD800EB40010AEB4100C038009051
:1014A000F8B208230622049900F00AF8761CF6B276
:1014B000641EE4B2D2D2B0E7E4210008F41B0008B5
:1014C0002DE9F04F1E4614460D468346FFF79EFE5B
:1014D000761EF117002006EB5171012202EBE10AA2
:1014E00029E0002323E000BF1549099F00EBD50246
:1014F00001EBC21600FB04F91F440BEB030219F8C1
:10150000078005F0070116F802C008FA01F84CEA56
:10151000080C06F802C0324419F8077012F8806F00
:10152000C1F10801CF403E435B1C1670DBB2A34201
:10153000DAD3401CC0B28245D3DCBDE8F08F000096
:101540002C0400202DE9F8470746099800251C4681
:1015500016468A464FF00A09102825D006284AD098
:10156000BDE8F88707EBC50808F0FF001023082244
:101570005146FFF74BFE61B20A2000F08EF8B6FB31
:10158000F0F1B1FBF9F209FB12101D49102301EB38
:10159000001000F58070009008F0FF00082251460E
:1015A000FFF78EFF6D1CEDB2641EE4B2DAD2D7E70E
:1015B00007EBC50808F0FF00082306225146FFF795
:1015C00025FE61B20A2000F068F8B6FBF0F1B1FB2D
:1015D000F9F209FB12100B4900EB400001EB40004F
:1015E0006030009008F0FF00082306225146FFF704
:1015F00067FF6D1CEDB2641EE4B2D9D2B0E7000003
:10160000F41B0008E421000870B5084D00240021F7
:101610002046FFF767FE05EBC410802100F01FF89D
:10162000641CE4B2082CF2D370BD00002C0400202E
:1016300010B50446FFF79DFD7820FFF786FDFFF704
:1016400075FD0020FFF781FDFFF770FD2046FFF7D5
:101650007CFDFFF76BFDBDE81040FFF799BD70B54D
:101660000D460646FFF785FD7820FFF76EFDFFF774
:101670005DFD4020FFF769FDFFF758FD002406E0FF
:10168000305DFFF762FDFFF751FD641CE4B2AC4230
:10169000F6D3BDE87040FFF77BBD0246012000E0B5
:1016A0005043491E49B2FBD27047704770B5184885
:1016B00086B0816941F004018161816901F0040112
:1016C0000491816941F4805181618069114E00F477
:1016D0008050049001200190B02000240325009048
:1016E00069463046CDE90245FEF79AFE4020CDE935
:1016F000000469463046CDE90245FEF791FE01201F
:1017000000F03CF8002000F049F806B070BD000081
:10171000001002400008014040210148FEF770BF60
:1017200000080140002210210148FEF76EBF0000B2
:1017300000080140012210210148FEF766BF0000A9
:101740000008014070B504465FF0000504F0800019
:1017500000F01CF86006040E012000F01FF8FFF7EF
:10176000DBFF08B144F00104002000F017F86D1C05
:10177000EDB2082DEAD3204670BD000002461021CC
:101780000148FEF742BF00000008014002468021E8
:101790000148FEF73ABF0000000801400246202140
:1017A0000148FEF732BF0000000801407047FEF715
:1017B00037BF30B58FB028216846FEF705FD1421EC
:1017C0000AA8FEF701FD01210804CDE9001000245C
:1017D000029402250491CDE907504FF4E0100990DE
:1017E0006846FFF763F808B172B6FEE70F20CDE94F
:1017F0000A054FF48060CDE90C4002210AA80E943E
:10180000FEF798FF002801D072B6FEE70FB030BD9A
:10181000704700000148FFF723BA00008808002045
:1018200010B5406A0021C185C184FFF7CBFA10BD15
:1018300001680C3151E8002F22F4907241E8002336
:10184000002BF5D10168143151E8002F22F001027C
:1018500041E80023002BF5D1016B012909D1016872
:101860000C3151E8002F22F0100241E80023002B38
:10187000F5D1202180F8421000210163704708B59E
:1018800090F84210222901D0022008BD82684FF44E
:1018900080539A4201D1016921B1816A9A421BD0D9
:1018A0004AB10AE00268816A5268C2F308020A80FB
:1018B000816A891C08E0026972B10268526802F00C
:1018C0007F020A70816A491C8162C18D491E090428
:1018D000090CC18503D01BE002685268F1E701687A
:1018E000CA6822F02002CA600168CA6822F48072C5
:1018F000CA6001684A6922F001024A61202180F829
:10190000421000214163026B012A03D0FFF7A0FBC4
:10191000002008BD016301680C3151E8002F22F05E
:10192000100241E80023002BF5D101680A68D206B5
:1019300002D50A6849680091818DFFF742FAE7E70E
:1019400081628285C28500214164222180F8421093
:10195000016921B10168CA6842F48072CA600168F5
:101960004A6942F001024A610068C16841F0200101
:10197000C16000207047000010B50548FFF724FA49
:10198000BDE81040012203490148FFF753BB0000A6
:101990002C0800200E000020FEE710B5044600F0E1
:1019A00096F8FFF7BFFE2020FFF7CCFEC4F30740F8
:1019B000FFF7C8FEC4F30720FFF7C4FEE0B2FFF74D
:1019C000C1FEFFF7B7FEBDE8104000F043B8FFF7D7
:1019D0006DBE70B515460E460446FFF7A3FE032004
:1019E000FFF7B0FEC4F30740FFF7ACFEC4F30720D7
:1019F000FFF7A8FEE0B2FFF7A5FE002405E0FF20F8
:101A000000F025F83055641CE4B2AC42F7D3BDE8D1
:101A10007040FFF78FBE70B50C460546FFF782FE9B
:101A20009F20FFF78FFEFF2000F011F82870FF20A5
:101A300000F00DF80546FF2000F009F840EA052007
:101A40002080FFF777FEBDE8704000F003B8FFF795
:101A500079BE000010B5094CFFF764FE0520FFF7C2
:101A600071FE01E0641E04D0FF20FFF7F0FFC00705
:101A7000F8D1BDE81040FFF75DBE0000A086010070
:101A800070B515460E460446FFF787FF00F01FF8B5
:101A9000FFF748FE0220FFF755FEC4F30740FFF7AB
:101AA00051FEC4F30720FFF74DFEE0B2FFF74AFEF8
:101AB000002404E0305DFFF745FE641CE4B2AC4254
:101AC000F8D3FFF737FEBDE87040FFF7C3BF10B58E
:101AD000FFF728FE0620FFF735FEBDE81040FFF7B0
:101AE00029BE00000148FFF7D5BA000074080020A5
:101AF0000907090E002804DB00F1E02080F800143B
:101B0000704700F00F0000F1E02080F8141D7047CE
:101B100008B5FEF78DFDFFF74CFE4820FEF7B8FB39
:101B2000FFF796FBFFF75EFBFFF751FF3049881E7A
:101B3000FFF771FF2E4D1024AD1E009400210223EB
:101B40002A780846FFF7E0FB009404236A88002106
:101B50003220FFF7D9FBFFF757FD0422291D002093
:101B6000FFF78EFF042205F108010020FFF731FF87
:101B70002E1D0835062400943278032314210020FA
:101B8000FFF7E0FC0094727803231E210020FFF78A
:101B9000D9FC0094B278032328210020FFF7D2FC5F
:101BA0000094F278032332210020FFF7CBFCFFF7EB
:101BB0002BFD00942A78032314211E20FFF7C2FC7A
:101BC00000941E216A7803230846FFF7BBFC0094AB
:101BD000AA78032328211E20FFF7B4FC0094EA789A
:101BE000032332211E20FFF7ADFCFFF70DFDC2E7F6
:101BF00002000020000000000000000000000000C3
:101C000000000000000000F80000000000000033A9
:101C10003000000000160E00160E0000000000004C
:101C20000000000040C07840C0784000043F040439
:101C30003F040400007088FC08300000001820FFFA
:101C4000211E0000F008F000E018000000211C0335
:101C50001E211E0000F00888700000001E212324B1
:101C600019272110000000160E00000000000000DF
:101C700000000000000000E018040200000000075F
:101C80001820400000020418E00000000040201866
:101C900007000000404080F0804040000202010F39
:101CA00001020200000000F0000000000101011F1D
:101CB00001010100000000000000000000B0700001
:101CC0000000000000000000000000000001010111
:101CD00001010101000000000000000000303000A0
:101CE000000000000000000080601804006018067A
:101CF0000100000000E010080810E000000F1020B4
:101D000020100F00001010F8000000000020203FFD
:101D10002020000000700808088870000030282487
:101D20002221300000300888884830000018202028
:101D300020110E000000C02010F80000000704244D
:101D4000243F240000F80888880808000019212092
:101D500020110E0000E0108888180000000F1120EC
:101D600020110E0000380808C83808000000003FA5
:101D7000000000000070880808887000001C222104
:101D800021221C0000E010080810E00000003122B1
:101D900022110F00000000C0C00000000000003051
:101DA00030000000000000C0C0000000000080B053
:101DB00070000000000080402010080000010204B4
:101DC000081020004040404040404000040404040B
:101DD00004040400000810204080000000201008C7
:101DE00004020100007048080808F00000000030FC
:101DF00036010000C030C828E810E000071827248A
:101E000023140B000000C038E0000000203C230237
:101E10000227382008F8888888700000203F20209A
:101E200020110E00C03008080808380007182020CC
:101E30002010080008F808080810E000203F2020C3
:101E400020100F0008F88888E8081000203F2020A4
:101E50002320180008F88888E8081000203F200098
:101E600003000000C03008080838000007182020D0
:101E7000221E020008F808000008F808203F21018F
:101E800001213F20000808F8080800000020203F3A
:101E90002020000000000808F8080800C0808080AA
:101EA0007F00000008F888C028180800203F2001A3
:101EB0002638200008F8080000000000203F2020FD
:101EC0002020300008F8F800F8F80800203F003F14
:101ED000003F200008F830C00008F808203F20002C
:101EE00007183F00E01008080810E0000F1020203D
:101EF00020100F0008F808080808F000203F210112
:101F000001010000E01008080810E0000F18242468
:101F100038504F0008F8888888887000203F2000DB
:101F2000030C302000708808080838000038202191
:101F300021221C00180808F8080818000000203F9B
:101F40002000000008F808000008F808001F202002
:101F500020201F000878880000C8380800000738D3
:101F60000E010000F80800F80008F800033C070024
:101F7000073C0300081868808068180820302C038C
:101F8000032C30200838C800C83808000000203F63
:101F90002000000010080808C83808002038262152
:101FA00020201800000000FE020202000000007F56
:101FB00040404000000C30C0000000000000000164
:101FC0000638C00000020202FE000000004040404F
:101FD0007F0000000020100804081020000000000E
:101FE00000000000000000000000000080808080F1
:101FF00080808080000204080000000000000000D3
:102000000000000000008080808000000019242271
:1020100022223F2008F8008080000000003F1120AD
:1020200020110E000000008080800000000E1120B2
:1020300020201100000000808088F800000E112090
:1020400020103F200000808080800000001F22229E
:1020500022221300008080F0888888180020203F0A
:10206000202000000000808080808000006B94941D
:102070009493600008F8008080800000203F2100D9
:1020800000203F2000809898000000000020203FA2
:1020900020200000000000809898000000C0808090
:1020A000807F000008F8000080808000203F24022C
:1020B0002D302000000808F8000000000020203F1C
:1020C000202000008080808080808000203F2000D1
:1020D0003F20003F008080008080000000203F21E2
:1020E00000203F200000808080800000001F202012
:1020F00020201F00808000808000000080FFA12041
:1021000020110E000000008080808000000E112051
:1021100020A0FF80808080008080800020203F21E0
:102120002000010000008080808080000033242493
:1021300024241900008080E0808000000000001F3F
:10214000202000008080000000808000001F2020F0
:1021500020103F20808080000080808000010E30B1
:102160000806010080800080008080800F300C0312
:102170000C300F0000808000808080000020312E15
:102180000E312000808080000080808080818E70F1
:102190001806010000808080808080000021302CA3
:1021A0002221300000000000807C020200000000BC
:1021B000003F404000000000FF0000000000000061
:1021C000FF0000000002027C800000000040403F51
:1021D00000000000008040408000008000000000FF
:1021E000000101000000000000000000002F0000BE
:1021F00000000700070000147F147F1400242A7FCA
:102200002A12002313086462003649552250000048
:102210000007000000001C224100000041221C00B9
:102220000014083E08140008083E0808000000A03A
:102230006000000808080808000060600000002036
:1022400010080402003E5149453E0000427F400014
:10225000004261514946002141454B31001814129A
:102260007F10002745454539003C4A494930000167
:102270007109050300364949493600064949291EB6
:102280000000363600000000563600000008142218
:102290004100001414141414000041221408000218
:1022A00001510906003E4955592E007C1211127C3D
:1022B000007F49494936003E41414122007F41416A
:1022C000221C007F49494941007F09090901003E5C
:1022D0004149497A007F0808087F0000417F41009A
:1022E000002040413F01007F08142241007F404010
:1022F0004040007F020C027F007F0408107F003EF8
:102300004141413E007F09090906003E4151215EDD
:10231000007F091929460046494949310001017FDA
:102320000101003F4040403F001F2040201F003F70
:102330004038403F00631408146300070870080722
:1023400000615149454300007F41410000020408FB
:102350001020000041417F000004020102040040FF
:1023600040404040000001020400002054545478D2
:10237000007F4844443800384444442000384444F2
:10238000487F00385454541800087E090102001890
:10239000A4A4A47C007F080404780000447D4000CD
:1023A000004080847D00007F102844000000417FB1
:1023B0004000007C04180478007C0804047800388D
:1023C0004444443800FC242424180018242418FC15
:1023D000007C0804040800485454542000043F447E
:1023E0004020003C4040207C001C2040201C003C41
:1023F0004030403C004428102844001CA0A0A07C91
:10240000004464544C440000087F41000000007FF9
:1024100000000000417F08000008040810080102C5
:1024200002030405060708090A0B0C0D0E0F101015
:102430000000000000000000010203040607080974
:1024400060240008000000202C0000002801000883
:102450008C2400082C0000202C0F000044010008F0
:1024600000000000D8054AF900000000000000004C
:10247000000000000000000000000000010000005B
:0C248000100000000000000000127A00B4
:04000005080000ED02
:00000001FF
