:020000040800F2
:100000008831002029020008771A0008EF1800083C
:10001000751A00087B050008012000080000000098
:100020000000000000000000000000009101000836
:10003000AD05000800000000D5010008C11B000844
:10004000430200084302000843020008430200087C
:10005000430200084302000855060008690600082C
:10006000430200084302000843020008430200085C
:10007000430200084302000843020008430200084C
:10008000430200084302000843020008430200083C
:100090004302000843020008430200087D060008EE
:1000A000430200084302000843020008430200081C
:1000B0004D1C0008591C0008651C0008430200087C
:1000C00043020008430200084302000843020008FC
:1000D00043020008A51F000843020008430200086D
:1000E00043020008430200084302000800F002F83F
:1000F00000F03FF80AA090E8000C82448344AAF183
:100100000107DA4501D100F034F8AFF2090EBAE880
:100110000F0013F0010F18BFFB1A43F0010318473B
:1001200098290000B8290000103A24BF78C878C187
:10013000FAD8520724BF30C830C144BF04680C60ED
:10014000704700000023002400250026103A28BF35
:1001500078C1FBD8520728BF30C148BF0B60704739
:10016000752900F0C980002070471FB51FBD10B56C
:1001700010BD00F0C8F91146FFF7F7FF01F051FF7D
:1001800000F0E6F903B4FFF7F2FF03BC00F0EEF96C
:10019000224B19680868B0E8F00F80F30988BFF3B4
:1001A0006F8F4FF0000080F311884EF00D0E7047F6
:1001B0000000000006480068006880F3088862B606
:1001C00061B6BFF34F8FBFF36F8F00DF00BF00BF7B
:1001D00008ED00E0EFF30980BFF36F8F0F4B1A6853
:1001E00020E9F00F106008B54FF0500080F311883F
:1001F000BFF34F8FBFF36F8F02F092FA4FF0000002
:1002000080F31188BDE8084019680868B0E8F00F6D
:1002100080F30988BFF36F8F704700BF280000206C
:10022000EFF3058070470000094880470948004700
:10023000FEE7FEE7FEE7FEE7FEE7FEE7FEE7FEE796
:10024000FEE7FEE704480549054A064B70470000F3
:100250004B1C0008ED000008882B0020883100208E
:10026000882D0020882D00200FB41CB5074B06AA4E
:100270007B4469460090059800F00BF90020694620
:1002800000F01AF91CBC5DF814FB000045020000E8
:100290002DE9F0410E460446002020622046E16828
:1002A000884730B3252805D0D4E901219047206A3A
:1002B000401CF2E7E168204600278847050018D077
:1002C000A5F14100192802D820354FF400673246C5
:1002D000294620462760FFF743FF40B1012804D09C
:1002E000F61D26F007060836D8E7361DD6E728465D
:1002F000DAE7206ABDE8F0812DE9F04106460024E6
:1003000010687529314616A510D0AFF3008000287B
:1003100002DA404213A507E031688A0701D512A529
:1003200002E0490704D511A5012401E0AFF30080E4
:1003300000210A2206F1240709E0B0FBF2FCB0FB21
:10034000F2F302FB1C00303078541846491C002898
:10035000F3D123462A463046BDE8F04100F03AB8D2
:10036000000000002D0000002B0000002000000015
:1003700002F0FF0343EA032242EA024200F0A3B87C
:100380004FF0000200B5134694469646203922BF2E
:10039000A0E80C50A0E80C50B1F12001BFF4F7AF79
:1003A000090728BFA0E80C5048BF0CC05DF804EB5B
:1003B000890028BF40F8042B08BF704748BF20F8C9
:1003C000022B11F0804F18BF00F8012B70477047C7
:1003D000704770472DE9F0470D469946924604460E
:1003E00000F124080168880604D5E06921F01001B5
:1003F000216000E00120A84201DD471B00E000274A
:10040000A1697A1902EB0900081AA0612078C006D8
:1004100002D42046AFF30080002608E0D4E9012191
:100420001AF806009047206A401C761C20624E4550
:10043000F4DB2078C0060AD52046AFF3008006E042
:10044000D4E9012130209047206A401C2062381EE8
:10045000A7F10107F4DC07E0D4E9012118F8050051
:100460009047206A401C2062281EA5F10105F3DC9C
:100470002046AFF300802078000602D50220BDE8B8
:10048000F0870120FBE7000001694A1C026108783F
:10049000704700B58FB0CDE90131002105910549C4
:1004A0007944CDE9031011466846FFF7F1FE0FB01D
:1004B00000BD0000E5FFFFFF0A6802F8010B0A60BB
:1004C00070474FF000020429C0F0128010F0030CB6
:1004D0003FF458AFCCF1040CBCF1020F18BF00F888
:1004E000012BA8BF20F8022BA1EB0C01FFF74ABF9C
:1004F0005FEAC17C24BF00F8012B00F8012B48BF44
:1005000000F8012B7047754600F02CF8AE46050048
:100510006946534620F00700854618B020B5FFF71E
:1005200091FEBDE820404FF000064FF000074FF06D
:1005300000084FF0000B21F00701AC46ACE8C00901
:10054000ACE8C009ACE8C009ACE8C0098D4670470A
:1005500010B50446AFF300802046BDE81040FFF719
:1005600011BE000000487047242B002001491820CC
:10057000ABBEFEE7260002007047FEE710B501F0B3
:10058000B3FB02490020086010BD000010000020ED
:1005900010B504464FF0E0210020086100F040FE55
:1005A0000149E008088010BD1400002070470000D9
:1005B000F0B5254885B0816941F008018161816904
:1005C00001F008010491816941F0010181618069B4
:1005D0001E4D00F001000490402001240326CDE9C7
:1005E00000051B4FCDE902466946384600F0BAF9CE
:1005F000CDE90246CDE900456946384600F0B2F93A
:100600000220CDE90005CDE902466946384600F0F2
:10061000A9F902220521172000F044FB032205213D
:10062000062000F03FFB03220521072000F03AFBE3
:10063000172000F029FB062000F026FB072000F021
:1006400023FB05B0F0BD00000010024000002110A7
:10065000000C014010B5012000F078F9014901209B
:10066000086010BD1404014010B5022000F06EF9BE
:1006700001490220086010BD1404014010B540205B
:1006800000F064F901494020086010BD14040140E5
:100690008EB034216846FFF773FEDFF80091DFF873
:1006A0000081DFF800A1404D404C4FF4FA6B00266A
:1006B00099F800004F4601281DD1142001F082FE58
:1006C000227848F8220050B15B46102238A1364803
:1006D00001F0BCF828680168C9434906FBD42078BA
:1006E000401CC0B220700A2800D326701021344864
:1006F00000F02DFA3E709AF80000574601281ED1EE
:10070000607858F82000A8B101F060FF5B46102225
:100710002CA1254801F09AF828680168C9434906C8
:10072000FBD4607848F82060401CC0B260700A2892
:1007300000D366700821224800F009FA3E7002F0EA
:100740002BF8024623A16846FFF78EFDC8230E2230
:1007500021A1154801F07AF828680168C9434906C3
:10076000FBD4C823052269460F4801F06FF82868BA
:100770000168C9434906FBD4C82304220FA10A48D3
:1007800001F064F828680168C9434906FBD4A670E3
:100790004FF47A7001F05BFC8AE700000B00002048
:1007A000980000200C000020680B002000000020B2
:1007B000C4DAB4E6C9EAC7EBB3C9B9A60D0A0000AA
:1007C000000C0140C4DAB4E6CACDB7C5B3C9B9A6B6
:1007D0000D0A000025750000CAA3D3E0C4DAB4E610
:1007E000B4F3D0A1A3BA00001CB501F0BBFE0849C8
:1007F0000120CDE900010023802206A1074802F074
:1008000025F801F0CFFEBDE81C4001F049BF000013
:10081000040000205461736B310000009106000851
:1008200010B590F821100022022905D0042181631F
:1008300080F82020012010BD01680B6823F00E0312
:100840000B6001680B6823F001030B6090F84030E7
:10085000C46B012101FA03F3636080F8211080F872
:100860002020104610BD000010B590F82110002483
:10087000022903D00421816301243DE001680A6854
:1008800022F00E020A6001680A6822F001020A6082
:100890001A4A0168914201D1012121E0174A14321C
:1008A000914201D110211BE0144A2832914201D11A
:1008B000891515E0114A3C32914201D189140FE0AB
:1008C0000E4A5032914202D14FF4803108E00B4A77
:1008D0006432914202D14FF4801101E04FF08071F7
:1008E000064A083A5160012180F82110002180F861
:1008F0002010416B01B18847204610BD080002401E
:1009000070B5104A0124104D40280BD0022811D098
:10091000012806D10121104600F014F9002800D169
:100920006C7070BD4021104600F00CF90028F8D121
:100930002C7070BD0221104600F004F90028F8D197
:10094000AC7070BD000C01400B000020044910B5D4
:100950000A68024202D00860FFF7D2FF10BD000013
:10096000140401402DE9F84FDFF8B8910024A9F1F3
:10097000040B23460F2709F1040AABF1040EC9E06A
:100980000125A5402A40AA427DD1674ED1F804C076
:10099000ACEB0608B44532D014DCBCF1030F3AD0FE
:1009A00009DCBCF1000F2AD0BCF1010F1CD0BCF156
:1009B000020F31D11DE0BCF1110F17D0BCF1120FA5
:1009C0002AD119E0B8F5881F19D006DCB8F5803FA8
:1009D00015D0B8F5801F1FD111E0B8F5001F0ED05B
:1009E000B8F5041F18D10AE0CB6815E0CB681B1DD1
:1009F00012E0CB6808330FE0CB680C330CE08B6857
:100A00002BB1012B4FF0080303D0456104E0042310
:100A100002E0056100E00023FF2A01D8064601E05C
:100A200000F104064FEA840501D9A5F12005D6F8A6
:100A3000008007FA05FC28EA0C0803FA05F548EAE5
:100A40000508C6F800804D68ED0062D5374DAE69E7
:100A500046F00106AE61AD6924F0030605F001051C
:100A60000095334D06EB050CDCF80850A607360F51
:100A700007FA06F825EA0805DFF8B880404503D1F3
:100A80004FF0000817E044E0DFF8AC80404502D1A9
:100A90004FF001080FE0DFF8A480404502D14FF08D
:100AA000020808E0DFF89880404502D14FF00308C3
:100AB00001E04FF0040808FA06F848EA0508CCF807
:100AC00008804D68D9F80060ED024D4601D5164307
:100AD00000E096432E604D68DAF80060AD0255469E
:100AE00001D5164300E096432E604D68DBF80060A8
:100AF000AD035D4601D5164300E096432E604D6878
:100B0000DEF80060ED03754601D5164300E096431C
:100B10002E60641C0D682A46E5407FF431AFBDE8C5
:100B2000F88F00000804014000001110001002407E
:100B30000000014000080140000C0140001001408D
:100B4000001401408068084000D001207047C2684E
:100B500021EA02030A4043EA0241016170470AB1F7
:100B6000016170470904FBE7014880687047000095
:100B700018000020024881680278114481607047A3
:100B800018000020074810B5016841F0100101600D
:100B9000032000F0A7F80F2000F006F800F050F84E
:100BA000002010BD0020024030B505461F4887B028
:100BB000C16941F00401C161C06906A900F00400E7
:100BC000009001A800F036F90498B0B100F052F995
:100BD00040001749174AB0FBF1F11748491E02605F
:100BE000416040F2E7320021C0E903218160816168
:100BF00000F024FB040003D015E000F03BF9E8E727
:100C00000D4800F069FB04000DD11E2000F03CF8F7
:100C1000102D07D2002229461E2000F043F8074875
:100C2000056000E0012407B0204630BD00100240FE
:100C300040420F0000080040200300201C0000205C
:100C40000F4808B5816941F001018161816901F0B6
:100C500001010091C16941F08051C161C069002268
:100C600000F0805000900F21901E00F01BF8054806
:100C7000416821F0E06141F00071416008BD000071
:100C80000010024000000140002809DB00F01F02B4
:100C9000012191404009800000F1E020C0F80011DE
:100CA00070470000F0B40E4B1B680C46C3F30223E0
:100CB000C3F10705042D00D90425191D072901D208
:100CC000002300E0DB1E012606FA05F1491E214043
:100CD00099409E40761E16403143F0BC01F091B918
:100CE0000CED00E0064900F0070208684FF6FF032C
:100CF000184040EA0220034A104308607047000091
:100D00000CED00E00000FA052DE9F0470F46050064
:100D100061D0434E306800F00700B84209D2306815
:100D200020F0070038433060306800F00700B84218
:100D300051D128683B4C810712D5400703D5606824
:100D400040F4E06060602878000703D5606840F4F4
:100D5000605060606068A96820F0F000084360603F
:100D60002878C00728D06868012810D02168022898
:100D700010D0890700292EDA616821F003010143B0
:100D80006160FFF7F1FE804641F288390DE021688D
:100D90008903EFE78901EDE7FFF7E6FEA0EB080125
:100DA000494502D90320BDE8F0876068696800F012
:100DB0000C00B0EB810FEFD1306800F00700B842B3
:100DC0000BD9306820F0070038433060306800F0FD
:100DD0000700B84201D00120E5E72878400705D593
:100DE0006068E96820F4E0600843606028780007E4
:100DF00006D56068296920F4605040EAC10060604F
:100E000000F058F86168084AC1F30311515CC8400A
:100E10000649086006480068FFF7C6FE0020C2E7E2
:100E200000200240001002409E2A000824000020FA
:100E30001C0000200F2202600C4A536803F00303D9
:100E40004360536803F0F0038360536803F4E06386
:100E5000C36052684FF4E06303EAD20202610448BF
:100E6000006800F0070008607047000000100240B2
:100E7000002002400448054900684968044AC1F35B
:100E80000221515CC840704724000020001002403D
:100E9000AE2A00080448054900684968044AC1F3BD
:100EA000C221515CC840704724000020001002405D
:100EB000AE2A00080E4A51680E4801F00C03042BBC
:100EC00011D0082B0FD10C48C1F38343C903C05C78
:100ED0000AD55168084AC1F34041921E515C054A47
:100EE0005043B0FBF1F0704704494843704700009D
:100EF0000010024000127A008E2A000800093D000E
:100F00002DE9F84F040070D02078C04DC00749D0BB
:100F10006868C0F38100012807D06868C0F38100C9
:100F2000022809D16868C00306D52868800339D52E
:100F300060680028E7D035E06068B0F5803F0BD0EE
:100F400010B1B0F5A02F11D0286820F480302860AF
:100F5000286820F4802002E0286840F4803028606F
:100F6000606890B1FFF700FE06460AE0286840F48A
:100F700080202860F0E700BFFFF7F6FD801B6428A3
:100F800073D828688003F7D50CE0FFF7EDFD06461F
:100F900005E000BFFFF7E8FD801B6428F0D8286853
:100FA0008003F7D420789A4E80074FF001094FF064
:100FB000000839D5686810F00C0F07D06868C0F3D6
:100FC0008100022809D16868C00306D42868800718
:100FD00014D52069012808D110E02069B0B1C6F805
:100FE0000090FFF7C1FD074605E00AE1FFF7BCFDF1
:100FF000C01B0228C4D828688007F7D52868616913
:1010000020F0F80040EAC10028600DE0C6F800803A
:10101000FFF7AAFD074604E0FFF7A6FDC01B022864
:1010200023D828688007F7D4207800072CD5794882
:10103000A169D9B1C0F80090FFF796FD074604E01A
:10104000FFF792FDC01B02280FD8686A8007F7D50A
:1010500071484FF4FA510068B0FBF1F0009000BF06
:101060000098411E0091FAD20EE080E0C0F80080A6
:10107000FFF77AFD074604E0FFF776FDC01B022864
:1010800075D8686A8007F7D42078400760D5E8698A
:101090000027C00008D4E86940F08050E861E869A2
:1010A000012700F0805000905C480168C90513D406
:1010B0000168834641F480710160FFF755FD824667
:1010C00006E000BFFFF750FDA0EB0A0064284ED8F1
:1010D000DBF80000C005F5D5E06801280AD008B1AA
:1010E000052813D0286A20F001002862286A20F021
:1010F000040002E0286A40F001002862E06841F242
:10110000883B98B1FFF730FD82460BE0286A40F03B
:1011100004002862EEE700BFFFF726FDA0EB0A01FE
:1011200059455AD8286A8007F6D50CE0FFF71CFD10
:10113000824605E0FFF718FDA0EB0A0159454CD89F
:10114000286A8007F6D41FB1E86920F08050E86172
:10115000E06988B36968C1F38101022944D002289B
:10116000C6F8608004D0FFF7FFFC044638E034E0A6
:10117000FFF7FAFC074604E0FFF7F6FCC01B022865
:101180002BD828688001F7D4206AB0F5803F05D1BC
:101190006868A16820F4003008436860D4E9080159
:1011A0000843696821F4741108436860C6F86090C8
:1011B000FFF7DAFC044606E025E000BFFFF7D4FCA9
:1011C000001B022809D828688001F7D51BE000BF62
:1011D000FFF7CAFC001B022802D90320BDE8F88FE4
:1011E00028688001F4D40EE00128F7D06868226AEC
:1011F00000F48031914204D1616A00F47010884299
:1012000001D00120EAE70020E8E7000000100240DA
:10121000000042428004424224000020007000404E
:101220004FF0E0210428086903D020F00400086191
:10123000704740F00400FAE77047704710B50400AB
:1012400003D094F83D0010B107E0012010BD00204C
:1012500084F83C00204600F01FF8022084F83D008E
:10126000211D206800F004FD012084F8460084F868
:101270003E0084F83F0084F8400084F8410084F880
:10128000420084F8430084F8440084F8450084F860
:101290003D00002010BD000008B502680C49B2F105
:1012A000804F07D1CA6942F00102CA61CA6902F0DF
:1012B000010200920068074A904207D1C86940F0D5
:1012C0000200C861C86900F00200009008BD00007B
:1012D000001002400004004090F83D10012901D0A8
:1012E00001207047022180F83D100168CA6842F071
:1012F0000102CA6000680B49884208D0B0F1804FF3
:1013000005D00949884202D00849884204D1816841
:1013100001F00701062903D0016841F001010160D5
:1013200000207047002C01400004004000080040ED
:1013300070472DE9F04104460068C66805694FF022
:101340000007A90713D5B10711D5F91E01610120C6
:101350002077206880698007204602D0FFF7E8FFE9
:1013600004E000F07EF8204600F07CF8277768075C
:1013700016D5700714D521686FF0040008610220AB
:1013800020772068806910F4407F204602D0FFF764
:10139000CFFF04E000F065F8204600F063F82777FF
:1013A000280715D5300713D521686FF008000861AC
:1013B000042020772068C0698007204602D0FFF70C
:1013C000B7FF04E000F04DF8204600F04BF8277717
:1013D000E80616D5F00614D521686FF010000861F4
:1013E000082020772068C06910F4407F204602D092
:1013F000FFF79EFF04E000F034F8204600F032F8DA
:101400002777E80708D0F00706D021686FF00100C1
:101410000861204600F028F8280608D5300606D5D1
:1014200021686FF0800008612046FFF705FF68061D
:1014300008D5700606D521686FF040000861204687
:1014400000F040F8A8060AD5B00608D521686FF06C
:10145000200008612046BDE8F041FFF7EEBEBDE880
:10146000F08170477047000010B5044600680F49CE
:10147000884201D1FFF77EFB2068B0F1804F03D195
:101480000B480168491C01600A49206888420CD158
:101490004FF47A73072208A1094800F0D7F90848E9
:1014A00000680168C9434906FBD410BD000800402C
:1014B000100000200004004074696D65330D0A00BF
:1014C000680B00207047704770470000F8B501684E
:1014D00004460868CA684B6910F00F0F4FF000050A
:1014E00059D003F0010602F49077374365D0C10765
:1014F00005D0D10503D5616C41F00101616441075C
:1015000005D5D90703D0616C41F002016164810700
:1015100005D5D90703D0616C41F00401616401076E
:1015200007D502F02001314303D0616C41F008017E
:101530006164616C00293AD0800604D5900602D51A
:10154000204600F01EFC20684069616CC0F38010EA
:10155000090700D460B3204600F0ECFB2068406926
:10156000400621D52068143050E8001F21F04001CA
:1015700040E80012002AF5D1E06BA8B16D49416343
:10158000E06BFFF771F9002811D0E06B416B01B0FF
:10159000BDE8F040084783060FD593060DD52046D9
:1015A000BDE8F84000F0EDBB2046FFF78DFFF8BD29
:1015B0002046FFF789FF6564F8BD266B2023012EC6
:1015C0007CD1C6067AD5D60678D5086848680090DA
:1015D00048694FF00206400640D5E16B0868406854
:1015E0000004000CE8D0A28D8242E5D9E08588692C
:1015F00020282DD020680C3050E8001F21F4807185
:1016000040E80012002AF5D12068143050E8001F8D
:1016100021F0010140E80012002AF5D120681430C1
:1016200050E8001F21F0400140E80012002AF5D1E7
:1016300084F84230256320680C3050E8001F21F008
:10164000100140E80012002AF5D1E06BFFF7E8F83E
:101650006663A08DE18D401A81B22AE0A08DE18DF4
:10166000401A81B2E08D0028A6D00029A4D02268BB
:101670000C3252E8000F20F4907042E80007002F6F
:10168000F5D12068143050E8002F22F0010240E824
:101690000027002FF5D184F84230256320680C30F4
:1016A00050E8002F22F0100240E80023002BF5D173
:1016B00066632046FFF707FFF8BDFFE705062BD559
:1016C000150629D594F841002128F5D1A068B0F578
:1016D000805F01D12069B0B1206A411C216221687C
:1016E00000784860E08C401E0004000CE084E3D1E8
:1016F0002068C16821F08001C1602068C16841F0A4
:101700004001C160D8E7206A0088C0F30800486043
:10171000206A801C2062E5E74006CDD55006CBD577
:10172000CA68204622F04002CA6084F8413000F0C6
:10173000DDF8C1E7251D000870B5040004D094F859
:101740004100002510B106E0012070BD84F8405032
:10175000204600F023F8242084F841002068C16866
:1017600021F40051C160204600F06CFB2068016943
:1017700021F4904101612068416921F02A01416111
:101780002068C16841F40051C1606564202084F87C
:10179000410084F842006563002070BD70B50068A8
:1017A0001A4986B088422FD11948816941F0040155
:1017B0008161816901F004010491816941F48041F2
:1017C00081618069134E00F48040049002200190F2
:1017D000000200240325009069463046CDE9024509
:1017E000FFF7C0F83015CDE900040120CDE902056E
:1017F00069463046FFF7B6F8002202212520FFF7A0
:1018000051FA2520FFF740FA06B070BD00380140BC
:10181000001002400008014090F84230202B01D017
:101820000220704721B11AB10023036300F066BBA8
:101830000120704700680349884202D10249012013
:101840000870704700380140080000202DE9F84377
:10185000044690F84100984616460D46202802D0CE
:101860000220BDE8F88385B17EB1002060642120AC
:1018700084F84100FFF778F9A6848146E684A068E1
:101880002027B0F5805F02D003E00120E9E720695E
:1018900010B12E4600250EE000260CE080212046E7
:1018A00000F047FBA8B9C6B116F8010B21684860E3
:1018B000E08C401EE084E08C4B464FF00002CDF8F7
:1018C00000800028EAD14FF04001204600F031FBB3
:1018D00040B184F841700320C3E735F8020BC0F330
:1018E0000800E3E784F841700020BAE77047FEE79C
:1018F000F0B50F4885B0816941F0080181618069C8
:10190000112400F0080004904FF4806000250326A5
:101910008DE87100074F69463846FFF723F8F81441
:101920008DE8710069463846FFF71CF805B0F0BD38
:1019300000100240000C01404FF400610148FFF725
:1019400001B90000000C014010B5012000F042F880
:10195000012000F037F8FFF7EFFF0446002000F009
:1019600031F8204610BD70B500240546802626FAC1
:1019700004F0284000F02EF8012000F023F80020A9
:1019800000F020F8641CE4B2082CF0D370BD10B550
:10199000012000F01FF8012000F014F8002000F0F2
:1019A00019F8BDE81040002000F00CB810B5002078
:1019B00000F010F8012000F005F8BDE8104001200B
:1019C00000F008B802464FF480610148FFF7C7B83D
:1019D000000C014002464FF400610148FFF7BFB818
:1019E000000C0140F0B585B000242048009401941B
:1019F00002940394816941F010018161816901F0D1
:101A000010010491816941F020018161816901F037
:101A100020010491816941F004018161816901F033
:101A200004010491816941F0080181618069104FCE
:101A300000F008000490002210213846FFF78FF8CC
:101A4000102001250326CDE90005CDE902466946AF
:101A50003846FEF787FF0820CDE90005CDE90246AC
:101A600069463846FEF77EFF05B0F0BD0010024023
:101A7000000C0140FEE7FEE770B5084D0024002190
:101A8000204600F057F805EBC410802100F07AF8EA
:101A9000641CE4B2082CF2D370BD0000680300207F
:101AA00010B5FFF725FFAE2000F055F8D52000F067
:101AB00052F8802000F04FF8A82000F04CF83F20AA
:101AC00000F049F8D32000F046F8002000F043F879
:101AD000402000F040F8A12000F03DF8C82000F0C0
:101AE0003AF8DA2000F037F8122000F034F88120BC
:101AF00000F031F8CF2000F02EF8D92000F02BF8BC
:101B0000F12000F028F8DB2000F025F8302000F06C
:101B100022F8A42000F01FF8A62000F01CF88D2069
:101B200000F019F8142000F016F8BDE81040AF20BE
:101B300000F011B810B50C4640F0B00000F00BF802
:101B4000102040EA141000F006F804F00F00BDE881
:101B50001040AFF3008010B50446FFF718FF78205F
:101B6000FFF701FFFFF7F0FE0020FFF7FCFEFFF795
:101B7000EBFE2046FFF7F7FEFFF7E6FEBDE810405C
:101B8000FFF714BF70B50D460646FFF700FF78203B
:101B9000FFF7E9FEFFF7D8FE4020FFF7E4FEFFF76E
:101BA000D3FE002406E0305DFFF7DDFEFFF7CCFE3C
:101BB000641CE4B2AC42F6D3BDE87040FFF7F6BE59
:101BC00010B5502080F31188BFF34F8FBFF36F8F94
:101BD00000F094FE18B104494FF0805008600020D6
:101BE00080F3118810BD000004ED00E030B58FB027
:101BF00028216846FEF7C4FB14210AA8FEF7C0FBA3
:101C000001210804CDE9001000240294022504916A
:101C1000CDE907504FF4E01009906846FFF770F9DE
:101C200008B172B6FEE70F20CDE90A054FF48060D7
:101C3000CDE90C4002210AA80E94FFF765F80028B0
:101C400001D072B6FEE70FB030BD70470148FFF714
:101C500070BB0000B00B00200148FFF76ABB00001A
:101C6000F80B00200148FFF764BB000020030020B0
:101C7000F0B50268194B1A4C1A4D4FF08047984244
:101C800005D0B84203D0A04201D0A84203D122F02F
:101C900070064A683243984205D0B84203D0A04249
:101CA00001D0A84203D122F44074CA6822434C698F
:101CB00022F08002224302608A68C2620A6882625D
:101CC000984201D109690163012141610169C90794
:101CD00003D0016921F001010161F0BD002C014038
:101CE00000040040000800400D4810B54FF080414E
:101CF00001600921416000214722C0E9021201610F
:101D0000FFF79CFA002206211C20FEF7CBFF1C20C7
:101D1000FEF7BAFFBDE810400148FFF7DDBA00004A
:101D2000B00B002010B5406A0021C185C184FFF7C7
:101D3000CBFB10BD01680C3151E8002F22F49072EA
:101D400041E80023002BF5D10168143151E8002F40
:101D500022F0010241E80023002BF5D1016B01299B
:101D600009D101680C3151E8002F22F0100241E83E
:101D70000023002BF5D1202180F8421000210163BF
:101D8000704708B590F84210222901D0022008BD02
:101D900082684FF480539A4201D1016921B1816A6E
:101DA0009A421BD04AB10AE00268816A5268C2F3C3
:101DB00008020A80816A891C08E0026972B102681F
:101DC000526802F07F020A70816A491C8162C18DEB
:101DD000491E0904090CC18503D01BE00268526842
:101DE000F1E70168CA6822F02002CA600168CA6887
:101DF00022F48072CA6001684A6922F001024A61D5
:101E0000202180F8421000214163026B012A03D097
:101E1000FFF710FD002008BD016301680C3151E897
:101E2000002F22F0100241E80023002BF5D10168B9
:101E30000A68D20602D50A6849680091818DFFF7C9
:101E400042FBE7E770B5044600680169E26821F4E7
:101E50004051114301612169A06808436169084349
:101E60002168CA6841F20C639A430243CA60206841
:101E70004169A26921F44071114341611E49206802
:101E8000884202D1FFF706F801E0FEF7F3FF00EB0E
:101E9000C00101EB0012606864218000B2FBF0F326
:101EA000B3FBF1F36FF018067343B2FBF0F5B2FB2E
:101EB000F0F605EB8305322303EB0515B5FBF1F5D1
:101EC000B6FBF1F605F0F00505EB0615B2FBF0F6F2
:101ED000B2FBF0F0B0FBF1F06FF01802504306EBEC
:101EE000800003EB0010B0FBF1F0216800F00F0060
:101EF0002844886070BD00000038014081628285FE
:101F0000C28500214164222180F84210016921B17B
:101F10000168CA6842F48072CA6001684A6942F086
:101F200001024A610068C16841F02001C1600020DF
:101F300070472DE9F843984617460D460446089E1B
:101F400024E0701C22D0FEF70FFEA0EB0800B04288
:101F50001AD8CEB12068C168490717D5802D15D091
:101F6000402D13D00168C94309070FD4016800252B
:101F7000406800902046FFF7DDFE0820606484F88A
:101F800040500120BDE8F8830320FBE7206800688B
:101F900035EA000004D00020B842D2D00020F1E79A
:101FA0000120F9E710B50548FFF790FABDE81040A9
:101FB000022203490148FFF72FBC0000680B0020F4
:101FC000090000200C4810B50A4901604FF4165171
:101FD000416000210C22C0E905210161C1608160DE
:101FE000FFF7AAFBBDE81040022204490248FFF7B0
:101FF00013BC000000380140680B002009000020DD
:10200000FEE70907090E002804DB00F1E02080F854
:102010000014704700F00F0000F1E02080F8141D5C
:10202000704710B5FEF7AEFDFFF7E0FD4820FEF764
:10203000AFFAFFF7D7FCFFF733FDFFF71DFDFEF703
:10204000B7FAFFF7BFFFFEF7CFFB002010BD10B5BA
:1020500000B9012000F0FEFA002010BD2DE9F0418A
:10206000184C0F460546E6682068001D00F02AFA65
:1020700038B9206890F82C100120884021698143EC
:102080002161681C07D137B12168BDE8F0410E48D5
:10209000091D00F05BBA20683544B54245602168EF
:1020A00005D2206CBDE8F041091D00F037BAE06BA5
:1020B000091D00F033FAA06A854200D2A562BDE88E
:1020C000F081000028000020100F00202DE9F041D1
:1020D000054600F047FA2D4CA068401CA06020681F
:1020E0002B4F10B1606930B32BE02560A068012848
:1020F00027D1002606EB860007EB800000F000FAEF
:10210000761C202EF6D3234800F0FAF9214814302B
:1021100000F0F6F91F48283000F0F2F91D483C3075
:1021200000F0EEF91B48503000F0EAF91948E0637E
:102130001430206405E02068E96AC06A884200D84B
:102140002560606A401C60626864E96A0120226957
:1021500088401043206101EB810007EB8000291DBE
:1021600000F0F4F900F01EFA606900280CD0206835
:10217000E96AC06A884207D207494FF08050086078
:10218000BFF34F8FBFF36F8FBDE8F08128000020B1
:10219000400C0020C00E002004ED00E010B5044605
:1021A00090F85D0058B101280CD002280FD05020C3
:1021B00080F31188BFF34F8FBFF36F8FFEE7206B63
:1021C00000F004FA2046BDE8104000F0FFB910BD51
:1021D00010484FF4E051420706D0C01D0D4920F0D1
:1021E0000700411AC1F5E0510B4A00230144C2E93E
:1021F00000030839183A21F0070111604B600B60A9
:102200000B1AC0E9001393604FF000405360506117
:1022100070470000240F002084000020144E154C4D
:10222000A6F52F774FF08058DFF84C9012E000BFF2
:1022300000F098F9F068C568281D00F043F9A0681F
:10224000401EA0606068401E606000F0ABF9284648
:10225000FFF7A4FF60680028EAD138680128F9D99F
:10226000C9F80080BFF34F8FBFF36F8FF2E7000014
:10227000FC0E00202800002004ED00E02DE9F05FB6
:102280008846DDE90B941546834691009A460A9EDE
:10229000A522206BFEF76CF86FF00301206B01EBB9
:1022A0008501084420F00707780707D0502080F305
:1022B0001188BFF34F8FBFF36F8FFEE70025B8F192
:1022C000000F0FD05FF00000221818F8001082F8FD
:1022D000341018F8001011B1401C1028F4D384F801
:1022E000435001E084F83450202E00D31F26E662CC
:1022F000C4E91365201D00F00EF904F1180000F088
:102300000AF92461C6F120006462A0616565A565D3
:1023100084F85C5052465946384600F0C1F82060B7
:10232000B9F1000F01D0C9F80040BDE8F09F0000EE
:1023300030B5114900E011460A688242FBD34B6870
:102340005C18844203D140681844486008464368DA
:102350001C18944209D1084C183C2468A24209D0A8
:1023600052681A4442600A6812680260814200D0D2
:10237000086030BD0460F9E7840000200648C16BA6
:10238000096829B1C16BC968C96849688162704729
:102390004FF0FF31FAE700002800002008484068AD
:1023A000401C4FF0500080F3118804D0BFF34F8FD2
:1023B000BFF36F8FFEE7BFF34F8FBFF36F8FFEE763
:1023C0008C0000202DE9F0410546002700F0A0F91F
:1023D000324E306808B9FFF7FBFE706905424ED1F6
:1023E000C5B3083568070ED005F00700C0F1080036
:1023F0000544680707D0502080F31188BFF34F8F42
:10240000BFF36F8FFEE72DB37068854237D823483E
:10241000183001460C6801E020460C466168A9426C
:1024200002D221680029F7D131688C4227D0076891
:102430002168016060680837411B10290FD96019B5
:10244000420708D0502080F31188BFF34F8FBFF3AD
:102450006F8FFEE713E041606560FFF769FF616819
:102460007068401A7060B268904200D2B0607069C3
:1024700001430020C4E90001F068401CF06000F056
:10248000A3FA780707D0502080F31188BFF34F8F4D
:10249000BFF36F8FFEE73846BDE8F0816C00002087
:1024A00010B5031F4FF080741C601B1F21F0010149
:1024B0001960191F024B0B60143940380A6010BDB7
:1024C0009D230008D0E9013201699A60D0E9012317
:1024D0005A604A68824201D182684A6000220261E1
:1024E0000868401E0860086870470000034B0360DE
:1024F00003F160000860802010607047C000002079
:1025000000F108014FF0FF32C0E90112C160016122
:1025100000210160704700210161704730B50B68F0
:102520005A1C02D000F1080202E0026904E02246CF
:10253000546825689D42FAD953684B6099608A6057
:10254000516008610168491C016030BD42684A6001
:1025500093688B6093685960916008610168491CB9
:1025600001607047502080F31188BFF34F8FBFF395
:102570006F8F0A494868401C486001280CD1084800
:10258000006810F0FF0F07D0502080F31188BFF3D0
:102590004F8FBFF36F8FFEE7704700008C00002065
:1025A00004ED00E00849486828B1401E486001D1A8
:1025B00080F311887047502080F31188BFF34F8F4C
:1025C000BFF36F8FFEE700008C00002070B500287D
:1025D0002AD0164DA0F1080460686969084207D145
:1025E000502080F31188BFF34F8FBFF36F8FFEE74A
:1025F00022683AB1502080F31188BFF34F8FBFF3A8
:102600006F8FFEE78843606000F082F86068696859
:10261000084468602046FFF78BFE2869401C28614B
:10262000BDE8704000F0D0B970BD00006C00002023
:102630004FF0E02000210161816105494FF47A7279
:102640000968B1FBF2F1491E416107210161704740
:102650002400002010B5020014D00F48006B38B1E0
:10266000502080F31188BFF34F8FBFF36F8FFEE7C9
:1026700000F04EF800211046FFF7F0FC00F0A4F93E
:10268000002807D105494FF080500860BFF34F8FF5
:10269000BFF36F8F10BD00002800002004ED00E0A4
:1026A00010B586B00024039405AA04A903A80494D5
:1026B000FFF71CFFDDE903010094CDE901100023C1
:1026C0000FA11148059A00F0EEF810490028C862E1
:1026D00013D0502080F31188BFF34F8FBFF36F8F5B
:1026E0004FF0FF30886201204861CC60FDF746FF63
:1026F00006B0BDE8104000F055B806B010BD0000AF
:1027000049444C45000000001D220008280000201C
:102710000248016B491C016370470000280000203B
:102720001A4810B5016B11B10121C16110BD002122
:10273000C161174909688163436B994204D90268F2
:10274000CB1A546D2344536541630169114AB1FAB0
:1027500081F1C1F11F0101EB810152F821306BB110
:1027600002EB810101F108034A6852684A609A420B
:1027700001D152684A60D168016010BD502080F3D9
:102780001188BFF34F8FBFF36F8FFEE72800002043
:1027900010000020400C00200148406870470000F5
:1027A0006C0000201CB5264908780190FF200870B5
:1027B00008788DF800009DF800009DF8002000F0DA
:1027C000F000904207D0502080F31188BFF34F8F64
:1027D000BFF36F8FFEE79DF800001A4C00F0500029
:1027E00020700720A06005E09DF8002052008DF8C1
:1027F0000020401E9DF800201206F5D4A06003289A
:1028000007D0502080F31188BFF34F8FBFF36F8F35
:10281000FEE74FF44070A060019808700A48016814
:1028200041F470010160016841F070410160FFF7FF
:10283000FFFE00206060FDF7BDFC00201CBD000015
:1028400000E400E08C00002020ED00E02DE9FF5FB7
:102850008346DDE90E87994616468A469000FFF7C3
:10286000B1FD05001CD06020FFF7ACFD040014D0C2
:102870000020256384F85D00CDE90240CDE90087A2
:102880004B46324651465846FFF7F8FC2046FFF7C4
:102890001DFC012004B0BDE8F09F2846FFF796FE1E
:1028A0004FF0FF30F6E7F0B585B0DDE90B640A9D27
:1028B000A6B1DCB1602700972663022684F85D602C
:1028C000002604AFCDE90246CDE90057FFF7D6FC5C
:1028D0002046FFF7FBFB049805B0F0BD502080F3C5
:1028E0001188BFF34F8FBFF36F8FFEE7502080F347
:1028F0001188BFF34F8FBFF36F8FFEE72DE9F041D3
:102900002F4C0026206B28B1A069401CA0613046E6
:10291000BDE8F081E5686D1CE56013D1E06B0068EF
:1029200038B1502080F31188BFF34F8FBFF36F8F02
:10293000FEE7E06B216CE1632064206A401C2062AA
:10294000FFF71CFDA06ADFF87C80854209D3E06BAD
:102950000068A0B1E06BC068C7687868854211D292
:10296000A0622068C06A00EB800158F821000128AD
:1029700000D90126E0690028C9D00126C7E74FF039
:10298000FF30EDE7381DFFF79DFDB86A18B107F17C
:102990001800FFF797FDF96A01202269884010436B
:1029A000206101EB810108EB8100391DFFF7CEFDAD
:1029B000F86A2168C96A8842C9D30126C7E70000BE
:1029C00028000020400C00202DE9F0472C4D002469
:1029D0002746286B38B1FFF7C5FD286B401E2863DA
:1029E000286B40B146E0502080F31188BFF34F8F31
:1029F000BFF36F8FFEE7A968224E0120D1B3A6F581
:102A00002A7980463068E8B1F068C46804F118009B
:102A1000FFF758FD201DFFF755FDE06A2A6908FA07
:102A200000F11143296100EB800109EB8100211DB8
:102A3000FFF78CFDE06A2968C96A8842E2D3C5F8CD
:102A40001C80DFE70CB1FFF799FCAC6944B1464646
:102A5000FFF754FF00B1EE61641EF9D10020A861B8
:102A6000E86938B10849012738070860BFF34F8F7C
:102A7000BFF36F8FFFF796FD3846BDE8F087000083
:102A800028000020E80E002004ED00E0010202030F
:102A90000405060708090A0B0C0D0E0F10100000A4
:102AA00000000000000001020304060708090000FE
:102AB0000000010203040000D82A000800000020E2
:102AC0009800000028010008702B000898000020E2
:102AD000F030000044010008000000000000000089
:102AE00000000000000000000000000000000000E6
:102AF00001000000100000000000000000127A0039
:102B000000000000000000000000000000000000C5
:102B100000000000000000000000000000000000B5
:102B200000000000000000000000000000000000A5
:102B30000000000000000000000000000000000095
:102B40000000000000000000000000000000000085
:102B50000000000000000000000000000000000075
:102B60000000000000000000AAAAAAAA00000000BD
:04000005080000ED02
:00000001FF
