:020000040800F2
:10000000A00F002089010008ED110008BF090008B9
:100010004B11000843020008ED1300080000000027
:100020000000000000000000000000005512000861
:100030004508000800000000EF1100084113000807
:10004000A3010008A3010008A3010008A301000800
:10005000A3010008A3010008A3010008A3010008F0
:10006000A3010008A3010008A3010008A3010008E0
:10007000A3010008A3010008A3010008A3010008D0
:10008000A3010008A3010008A3010008A3010008C0
:10009000A3010008A3010008A3010008A3010008B0
:1000A000A3010008A3010008A3010008A3010008A0
:1000B000A5130008A3010008A3010008A30100087C
:1000C000A3010008A3010008A3010008A301000880
:1000D000A3010008A3010008A3010008A301000870
:1000E000A3010008A3010008A301000800F002F822
:1000F00000F03AF80AA090E8000C82448344AAF188
:100100000107DA4501D100F02FF8AFF2090EBAE885
:100110000F0013F0010F18BFFB1A43F0010318473B
:10012000141D0000341D0000103A24BF78C878C1A7
:10013000FAD8520724BF30C830C144BF04680C60ED
:10014000704700000023002400250026103A28BF35
:1001500078C1FBD8520728BF30C148BF0B60704739
:100160001FB51FBD10B510BD00F036F81146FFF7E2
:10017000F7FF01F03DF900F054F803B4FFF7F2FF88
:1001800003BC00F057F800000948804709480047C1
:10019000FEE7FEE7FEE7FEE7FEE7FEE7FEE7FEE737
:1001A000FEE7FEE704480549054A064B7047000094
:1001B00045130008ED000008A0090020A00F002052
:1001C000A00B0020A00B0020704770477047000074
:1001D00000487047400900207546FFF7F9FFAE461A
:1001E00005006946534620F00700854618B020B543
:1001F000FFF7D8FFBDE820404FF000064FF00007A2
:100200004FF000084FF0000B21F00701AC46ACE8BE
:10021000C009ACE8C009ACE8C009ACE8C0098D462B
:10022000704710B50446AFF300802046BDE810408B
:10023000FFF7A3BF01491820ABBEFEE7260002006E
:10024000704700BFFEE7000008B50121480600F036
:10025000CFFF0121042000F0DBFF18208DF8030000
:100260004FF48050ADF8000003208DF8020069467D
:100270001C4800F00BFB48208DF803004FF4006091
:10028000ADF8000003208DF802006946154800F023
:10029000FDFA00201449C87108720120087102207B
:1002A00048710020887048723020088000208872D1
:1002B0000120C87000208871C8720C4800F0CEF888
:1002C00001200B49487300200881088048808880FD
:1002D000C880C872887201200873084600F03AF896
:1002E00008BD000000080140FC0800200064004038
:1002F0000809002010B5034A0021034800F047F91F
:1003000010BD00001809002000640040F8B5044644
:1003100021460E4800F0B3F9064600250EE06D1C9C
:100320000B4885420AD91020022362221421009032
:10033000502000F0D7FC00F0C1FE05E03146034834
:1003400000F030FA0128EAD100BFF8BD0064004097
:10035000A086010010B50021837A012202FA03F180
:100360003D4A126842F001023B4B1A603A4A1C3285
:1003700012688A43384B1C331A60027BCAB9364A6A
:100380000C3212688A43344B0C331A604288C3889B
:1003900042EA0343304A4032847A42F834300288D9
:1003A000838842EA03432C4A4032847A02EBC40237
:1003B0005360027B012A19D1274A0C3212680A4382
:1003C000254B0C331A604288038842EA0343224AD1
:1003D0004032847A42F83430C288838842EA034348
:1003E0001D4A4032847A02EBC4025360C27A3AB9A1
:1003F000194A121D12688A43174B1B1D1A6006E02A
:10040000154A121D12680A43134B1B1D1A600289FC
:1004100032B9114A143212688A430F4B14331A60EE
:100420000289012A06D10C4A143212680A430A4B87
:1004300014331A60427B012A06D1074A1C32126823
:100440000A43054B1C331A60034A126822F001026A
:10045000014B1A6010BD00000066004030B5024636
:1004600000200023146824F002041460146844F08F
:100470000104146000E05B1C546804F001041CB922
:100480004FF6FF74A342F6D1546804F001040CB98E
:1004900000206CE08C79012C04D1146844F08004B5
:1004A000146003E0146824F080041460CC79012CFB
:1004B00004D1146844F04004146003E0146824F08C
:1004C000400414600C7A012C04D1146844F0200418
:1004D000146003E0146824F0200414604C7A012CAA
:1004E00004D1146844F01004146003E0146824F08C
:1004F000100414608C7A012C04D1146844F00804B0
:10050000146003E0146824F008041460CC7A012C11
:1005100004D1146844F00404146003E0146824F067
:10052000040414608C78A407CD7844EA05640D793E
:1005300044EA05444D7944EA05540D886D1E2C4368
:10054000D461146824F001041460002300E05B1CF3
:10055000546804F001041CB14FF6FF74A342F6D1B5
:10056000546804F001040CB1002000E0012030BD0B
:100570000246002019B9D36803F0030006E0012900
:1005800003D1136903F0030000E00020704710B5A9
:1005900000F5D87303EB01131B6803F00403137217
:1005A000137A53B900F5D87303EB01131B6840F2BB
:1005B000FF7404EA5353136009E000F5D87303EBAA
:1005C00001131B686FF0604404EAD303536000F525
:1005D000D87303EB01131B6803F00203537200F599
:1005E000D87303EB01135B6803F00F03937200F5FC
:1005F000D87303EB01135B681B0AD37400F5D8733F
:1006000003EB01139B68D37200F5D87303EB01135E
:100610009B681C0A147300F5D87303EB01139B68E5
:100620001C0C547300F5D87303EB01139B681B0E6D
:10063000937300F5D87303EB0113DB68D37300F5F4
:10064000D87303EB0113DB681C0A147400F5D8732C
:1006500003EB0113DB681C0C547400F5D87303EB37
:100660000113DB681B0E937421B9C36843F02003A8
:10067000C36003E0036943F02003036110BD10B5BC
:1006800002460020936803F08063B3F1806F00D1CD
:1006900010E0936803F00063B3F1006F01D1012013
:1006A00008E0936803F08053B3F1805F01D102202A
:1006B00000E00420042874D002F5C07303EB00139B
:1006C0001B6803F0010402F5C07303EB00131C6008
:1006D0000B7A7BB94B7A0C8843EA445302F5C07419
:1006E00004EB00142468234302F5C07404EB0014E7
:1006F000236010E00B7A4C6843EAC4034C7A23432E
:1007000002F5C07404EB00142468234302F5C0749E
:1007100004EB001423608B7A03F00F038B7202F555
:10072000C07303EB00135B6823F00F0402F5C07382
:1007300003EB00135C6002F5C07303EB00135B680E
:100740008C7A234302F5C07404EB001463608B7B46
:100750001C064B7B44EA03440B7B44EA0323CC7A1C
:10076000234302F5C07404EB0014A3608B7C1C06C9
:100770004B7C44EA03440B7C44EA0323CC7B2343B5
:1007800002F5C07404EB0014E36002F5C07303EBE0
:1007900000131B6843F0010402F5C07303EB001360
:1007A0001C6010BD10B50246002321B1012907D0FD
:1007B00002290FD109E090681D4C00EA04030BE008
:1007C00090681C4C00EA040306E090681A4C00EAAA
:1007D000040301E0002300BF00BF184C181BA34214
:1007E00016D007DC83B16FF08060184470B1022826
:1007F00018D111E0B0F5007F10D0114C204448B161
:10080000B0F5003F0ED10BE002230DE000230BE01A
:10081000002309E0002307E0012305E0012303E0B2
:10082000012301E0002300BF00BFD8B210BD0000CB
:10083000030000040003000800000310000100088A
:100840000001FFF7704700B5034603E04FF47A70EC
:1008500000F005F8181EA3F10103F7D100BD00EB6D
:10086000C001C9004FF0E0225161002191610521D2
:10087000116100BF4FF0E021096901F480310029C6
:10088000F8D004214FF0E022116170472DE9F041CA
:10089000024600250026002000230024002791F8AE
:1008A00003C00CF00F0591F803C00CF0100CBCF164
:1008B000000F03D091F802C04CEA050591F800C082
:1008C000BCF1000F31D0146800202BE04FF0010C78
:1008D0000CFA00F3B1F800C00CEA03069E4220D1E6
:1008E00083004FF00F0C0CFA03F7BC4305FA03FC2E
:1008F0004CEA040491F803C0BCF1280F06D14FF074
:10090000010C0CFA00FCC2F814C00AE091F803C014
:10091000BCF1480F05D14FF0010C0CFA00FCC2F8F5
:1009200010C0401C0828D1D31460B1F800C0BCF13D
:10093000FF0F34DD546800202EE000F1080C4FF06A
:10094000010808FA0CF3B1F800C00CEA03069E4255
:1009500021D183004FF00F0C0CFA03F7BC4305FACA
:1009600003FC4CEA040491F803C0BCF1280F05D144
:1009700000F1080C08FA0CF8C2F8148091F803C0D2
:10098000BCF1480F07D100F1080C4FF0010808FA3C
:100990000CF8C2F81080401C0828CED35460BDE883
:1009A000F0810246002093680B400BB1012000E06B
:1009B000002070470AB1016100E04161704700BF4B
:1009C000FEE7000008B50121082000F021FC1420FA
:1009D0008DF803004FF44060ADF8000003208DF85F
:1009E000020069460148FFF751FF08BD000C0140B5
:1009F00010B5012000F0ECFB012000F0DBFB002033
:100A000000F0E6FB002000F0D5FB10BD10B5002083
:100A100000F0DEFB012000F0CDFB012000F0D8FB50
:100A200010BD2DE9F04107460D46102D31D2DFE80B
:100A300005F0080A0C0E10121416181B1E2124278C
:100A40002A2D012425E0022423E0042421E00824A7
:100A50001FE010241DE020241BE0402419E0802426
:100A600017E04FF4807414E04FF4007411E04FF479
:100A700080640EE04FF400640BE04FF4805408E013
:100A80004FF4005405E04FF4804402E04FF400447A
:100A900000BF00BF21463846FFF783FF68B9142026
:100AA000FFF7D1FE00BF21463846FFF77AFF002846
:100AB000F9D01420FFF7C7FE01263046BDE8F081CB
:100AC000F8B505460E463148854200D10427304826
:100AD000854200D108272F48854200D110272E4893
:100AE000854200D120272D48854200D140272C483F
:100AF000854200D180272B48854200D18715102ED2
:100B000031D2DFE806F0080A0C0E10121416181B7A
:100B10001E2124272A2D012425E0022423E0042479
:100B200021E008241FE010241DE020241BE04024C5
:100B300019E0802417E04FF4807414E04FF400743F
:100B400011E04FF480640EE04FF400640BE04FF4CA
:100B5000805408E04FF4005405E04FF4804402E074
:100B60004FF4004400BF00BF0121384600F050FBA5
:100B700048208DF80300ADF8004003208DF80200F6
:100B800069462846FFF782FEF8BD000000080140D4
:100B9000000C014000100140001401400018014009
:100BA000001C0140002001402DE9F04304460D46A1
:100BB00016461F46284630E0234629E04FEAE07CEF
:100BC00000EB5C7C4FEAEC0CDFF8588008EBCC1CA7
:100BD0001CF803C002464FEAE07800EB58784FEA71
:100BE000E808A0EBC8094FF0010808FA09F82CEA58
:100BF000080C01464FEAE07800EB58784FEAE80825
:100C0000DFF8209009EBC81808F803C0591CCBB2D4
:100C1000A1199942D2DA411CC8B2E9198142CBDA52
:100C2000BDE8F083FC00002010B5FFF7CBFE642088
:100C3000FFF709FEAE2000F055FAD52000F052FA79
:100C4000802000F04FFAA82000F04CFA3F2000F07E
:100C500049FAD32000F046FA002000F043FA402081
:100C600000F040FAA12000F03DFAC82000F03AFA66
:100C7000DA2000F037FA122000F034FA812000F078
:100C800031FACF2000F02EFAD92000F02BFAF12013
:100C900000F028FADB2000F025FA302000F022FADC
:100CA000A42000F01FFAA62000F01CFA8D2000F00E
:100CB00019FA142000F016FAAF2000F013FA10BD54
:100CC00070B505460C4645F0B00000F00BFA102157
:100CD00041EA141000F006FA04F00F0000F002FAE6
:100CE00070BD00002DE9FE430746894614461D46A7
:100CF000DDF82880B8F1100F7BD1002036E004F039
:100D00000F010A2903D1412101AA11542BE004F05B
:100D10000F010B2903D1422101AA115423E004F051
:100D20000F010C2903D1432101AA11541BE004F047
:100D30000F010D2903D1442101AA115413E004F03D
:100D40000F010E2903D1452101AA11540BE004F033
:100D50000F010F2903D1462101AA115403E004F029
:100D60000F0101AA11542409411CC8B20828C6DB8E
:100D70003AE0082101FB0671C8B210230822494657
:100D8000FFF712FF01A8405D002813DB01A8405DBA
:100D900009280FDC01A8405D1030594901EB001013
:100DA000082101FB06710090C8B2102308224946B1
:100DB00000F0AAF801A8405D412813DB01A8405DBE
:100DC00046280FDC01A8405D20384D4901EB00109A
:100DD000082101FB06710090C8B210230822494681
:100DE00000F092F8701CC6B2281EA5F10101CDB228
:100DF000BFD1B8F1060F7CD1002036E004F00F011E
:100E00000A2903D1412101AA11542BE004F00F015A
:100E10000B2903D1422101AA115423E004F00F0150
:100E20000C2903D1432101AA11541BE004F00F0146
:100E30000D2903D1442101AA115413E004F00F013C
:100E40000E2903D1452101AA11540BE004F00F0132
:100E50000F2903D1462101AA115403E004F00F0128
:100E600001AA11542409411CC8B20828C6DB3EE07F
:100E7000082101FB0671C8B2082306224946FFF784
:100E800093FE01A8405D002815DB01A8405D0928FC
:100E900011DC01A8405D103000EB4000194901EB66
:100EA0004000082101FB06710090C8B20823062209
:100EB000494600F029F801A8405D412815DB01A84A
:100EC000405D462811DC01A8405D203800EB400061
:100ED0000C4901EB4000082101FB06710090C8B2EB
:100EE00008230622494600F00FF8701CC6B2281EDF
:100EF00000E003E0A5F10101CDB2B9D1BDE8FE8368
:100F000058150008481B00082DE9F04705460C4617
:100F100016461F46DDF820803B46324621462846CD
:100F2000FFF742FE002069E0002163E022464FEA1D
:100F3000E47C04EB5C7C00EBEC0CDFF8D89009EB74
:100F4000CC1C05EB01091CF809C023464FEAE479E3
:100F500004EB59794FEAE909A4EBC90900FB061A29
:100F600018F80AA00AFA09FA4CEA0A0C4FEAE479DE
:100F700004EB597900EBE909DFF898A00AEBC919ED
:100F800005EB010A09F80AC04FEAE47C04EB5C7C3B
:100F90004FEAEC0C0CF1010C8444DFF8789009EB7B
:100FA000CC1C05EB01091CF809C04FEAE47904EBFD
:100FB00059794FEAE909A4EBC909C9F1080900FB0D
:100FC000061A18F80AA04AFA09FA4CEA0A0C4FEA7B
:100FD000E47904EB59794FEAE90909F101098144FF
:100FE000DFF830A00AEBC91905EB010A09F80AC0BD
:100FF0004A1CD1B2B14299DB411CC8B2791ECA1752
:1010000001EB5272012303EBE20282428CDCBDE869
:10101000F0870000FC0000202DE9F84106468846D4
:1010200014461F460025102F1ED11AE0082101FB8F
:101030000561C8B2102308224146FFF7B5FD2078AC
:1010400020381C4901EB0010082101FB05610090CC
:10105000C8B2102308224146FFF756FF641C681CE3
:10106000C5B220780028E1D1062F20D11CE008214C
:1010700001FB0561C8B2082306224146FFF794FD33
:101080002078203800EB40000B4901EB400008219C
:1010900001FB05610090C8B2082306224146FFF714
:1010A00033FF641C681CC5B220780028DFD1BDE87E
:1010B000F881000058150008481B000810B50024EE
:1010C0000BE0E0B20021FFF7FBFD054901EBC41086
:1010D000802100F01DF8601C84B2082CF1DB10BDEB
:1010E000FC00002010B50446FFF782FC782000F0D9
:1010F0004CF800F03BF8002000F047F800F036F81C
:10110000204600F042F800F031F8FFF77FFC10BDF8
:1011100070B505460E46FFF76BFC782000F035F8F9
:1011200000F024F8402000F030F800F01FF8002410
:1011300006E0285D00F029F800F018F8601CC4B241
:10114000B442F6DBFFF762FC70BD00BFFEE70000B3
:1011500010B54FF400610448FFF723FC04460A2051
:10116000FFF77DFB204610BD000C014010B50120AB
:1011700000F02EF8012000F01DF8FFF7E9FF04460B
:10118000002000F017F8204610BD70B50546002479
:101190000DE08021214101EA050000F019F801204D
:1011A00000F008F8002000F005F8601CC4B2082C1C
:1011B000EFDB70BD10B5044622464FF48061034852
:1011C000FFF7F8FB0A20FFF74AFB10BD000C0140B7
:1011D00010B5044622464FF400610348FFF7EAFBCE
:1011E0000A20FFF73CFB10BD000C01407047704720
:1011F00029B1064AD2690243044BDA6104E0034A8A
:10120000D2698243014BDA6170470000001002404E
:1012100029B1064A92690243044B9A6104E0034AE9
:1012200092698243014B9A617047000000100240AE
:1012300010B500210548FFF79BF9002802DD0120C9
:10124000034908700248007810BD000000640040A7
:1012500000000020704710B500F002F810BD00003B
:101260000CB50020019000903348006840F48030B5
:101270003149086000BF3048006800F40030009039
:101280000198401C0190009818B90198B0F5A06F22
:10129000F1D12948006800F4003010B1012000901D
:1012A00001E0002000900098012843D12348006805
:1012B00040F01000214908600846006820F0030053
:1012C00008600846006840F0020008601A4840685C
:1012D000194948600846406848600846406840F43C
:1012E000806048600846406820F47C1048600846EA
:1012F000406840F4E81048600846006840F080709C
:10130000086000BF0C48006800F000700028F9D0A9
:101310000948406820F003000749486008464068D3
:1013200040F00200486000BF0348406800F00C0035
:101330000828F9D10CBD0000001002400020024036
:101340007047000010B51348006840F001001149D3
:10135000086008464068104908400E494860084641
:1013600000680E4908400B4908600846006820F4F0
:10137000802008600846406820F4FE0048604FF472
:101380001F008860FFF767FF4FF0006004490860A6
:1013900010BD0000001002400000FFF8FFFFF6FE45
:1013A00008ED00E010B50121880700F00EF80128D3
:1013B00005D1034908700121800700F003F810BD32
:1013C00002000020CA430282704730B50246002066
:1013D00000230024158A05EA0103958905EA010422
:1013E00013B10CB1012000E0002030BD00BFFEE7CA
:1013F00008B500214E48FFF763FB01214C48FFF779
:101400005FFBFFF711FCFEF71FFF102349A200212D
:101410000846FFF701FE102347A219460020FFF7F8
:10142000FBFD102345A220210020FFF7F5FDFFF76B
:1014300045FE7BE000213E48FFF7F3FAE0B11020C3
:10144000022300903F48027800214B20FFF74AFC1E
:101450003C49097801EB81013B4A02EB8100FEF730
:1014600055FF38480078401C364908700846007817
:101470000C2801D300200870FFF7DAFE334908700A
:1014800008460078012846D100200870FEF732FF98
:101490002F48007A48B9102000902D4808231021C9
:1014A00002681E20FFF71EFC0CE02948007A042881
:1014B00008D11020009026480823102142681E20E1
:1014C000FFF710FC22480068112809D11020009075
:1014D0001F480823202102682820FFF703FC1AE098
:1014E0001B480068222809D11020009018480823C2
:1014F000202102682820FFF7F5FB0CE01448006863
:10150000332808D1102000901148082320210268B8
:101510002820FFF7E7FB0620022300900D48027801
:1015200032210020FFF7DEFBFFF7C8FD82E7000055
:10153000000C014052783A0049443A004B49443A81
:1015400000000000F800002008000020000000203B
:101550001809002001000020000000000000000029
:101560000000000000000000000000F80000000083
:10157000000000333000000000160E00160E0000C0
:10158000000000000000000040C07840C07840002B
:10159000043F04043F040400007088FC083000008D
:1015A000001820FF211E0000F008F000E0180000E5
:1015B00000211C031E211E0000F00888700000009E
:1015C0001E21232419272110000000160E00000000
:1015D0000000000000000000000000E0180402000D
:1015E000000000071820400000020418E00000007E
:1015F0000040201807000000404080F0804040007C
:101600000202010F01020200000000F000000000D1
:101610000101011F010101000000000000000000A5
:1016200000B070000000000000000000000000009A
:1016300000010101010101010000000000000000A3
:10164000003030000000000000000000806018043E
:10165000006018060100000000E010080810E0001B
:10166000000F102020100F00001010F800000000E4
:101670000020203F2020000000700808088870002B
:1016800000302824222130000030088888483000AB
:101690000018202020110E000000C02010F80000CB
:1016A00000070424243F240000F808888808080064
:1016B0000019212020110E0000E010888818000079
:1016C000000F112020110E0000380808C83808004B
:1016D0000000003F000000000070880808887000CB
:1016E000001C222121221C0000E010080810E0004C
:1016F0000000312222110F00000000C0C0000000D5
:101700000000003030000000000000C0C0000000F9
:10171000000080B070000000000080402010080031
:1017200000010204081020004040404040404000BA
:101730000404040404040400000810204080000095
:101740000020100804020100007048080808F0009A
:101750000000003036010000C030C828E810E0006A
:101760000718272423140B000000C038E0000000F5
:10177000203C23020227382008F88888887000005F
:10178000203F202020110E00C03008080808380033
:10179000071820202010080008F808080810E000AA
:1017A000203F202020100F0008F88888E80810004B
:1017B000203F20202320180008F88888E80810001F
:1017C000203F200003000000C03008080838000057
:1017D00007182020221E020008F808000008F80858
:1017E000203F210101213F20000808F808080000DF
:1017F0000020203F2020000000000808F808080012
:10180000C08080807F00000008F888C02818080089
:10181000203F20012638200008F8080000000000C2
:10182000203F20202020300008F8F800F8F80800B9
:10183000203F003F003F200008F830C00008F808B3
:10184000203F200007183F00E01008080810E000C3
:101850000F10202020100F0008F808080808F000DA
:10186000203F210101010000E01008080810E000FD
:101870000F18242438504F0008F888888888700092
:10188000203F2000030C3020007088080808380032
:101890000038202121221C00180808F80808180028
:1018A0000000203F2000000008F808000008F808A9
:1018B000001F202020201F000878880000C838085A
:1018C000000007380E010000F80800F80008F800D2
:1018D000033C0700073C030008186880806818086C
:1018E00020302C03032C30200838C800C8380800EA
:1018F0000000203F2000000010080808C838080039
:101900002038262120201800000000FE02020200DC
:101910000000007F40404000000C30C0000000008C
:10192000000000010638C00000020202FE000000B4
:10193000004040407F0000000020100804081020F4
:101940000000000000000000000000000000000097
:101950008080808080808080000204080000000079
:101960000000000000000000000080808080000077
:101970000019242222223F2008F800808000000065
:10198000003F112020110E00000000808080000028
:10199000000E112020201100000000808088F80037
:1019A000000E112020103F20000080808080000069
:1019B000001F222222221300008080F088888818CD
:1019C0000020203F202000000000808080808000D8
:1019D000006B94949493600008F80080808000006D
:1019E000203F210000203F20008098980000000048
:1019F0000020203F20200000000000809898000078
:101A000000C08080807F000008F800008080800097
:101A1000203F24022D302000000808F800000000BC
:101A20000020203F20200000808080808080800077
:101A3000203F20003F20003F008080008080000089
:101A400000203F2100203F20000080808080000097
:101A5000001F202020201F008080008080000000C8
:101A600080FFA12020110E000000008080808000F7
:101A7000000E112020A0FF808080800080808000E8
:101A800020203F2120000100000080808080800015
:101A90000033242424241900008080E0808000008A
:101AA0000000001F202000008080000000808000D7
:101AB000001F202020103F20808080000080808038
:101AC00000010E30080601008080008000808080C8
:101AD0000F300C030C300F000080800080808000ED
:101AE0000020312E0E312000808080000080808018
:101AF00080818E70180601000080808080808000C8
:101B00000021302C2221300000000000807C0202E5
:101B100000000000003F404000000000FF00000007
:101B200000000000FF0000000002027C80000000B6
:101B30000040403F000000000080404080000080E6
:101B40000000000000010100000000000000000093
:101B5000002F000000000700070000147F147F140E
:101B600000242A7F2A120023130864620036495594
:101B7000225000000007000000001C22410000006D
:101B800041221C000014083E08140008083E080802
:101B9000000000A06000000808080808000060605D
:101BA0000000002010080402003E5149453E00009C
:101BB000427F4000004261514946002141454B317E
:101BC000001814127F10002745454539003C4A494A
:101BD00049300001710905030036494949360006BC
:101BE0004949291E00003636000000005636000024
:101BF000000814224100001414141414000041229F
:101C00001408000201510906003E4955592E007C76
:101C10001211127C007F49494936003E4141412260
:101C2000007F4141221C007F49494941007F090949
:101C30000901003E4149497A007F0808087F0000F9
:101C4000417F4100002040413F01007F08142241B4
:101C5000007F40404040007F020C027F007F04086C
:101C6000107F003E4141413E007F09090906003EC8
:101C70004151215E007F09192946004649494931F1
:101C80000001017F0101003F4040403F001F204014
:101C9000201F003F4038403F0063140814630007D2
:101CA0000870080700615149454300007F41410029
:101CB000000204081020000041417F0000040201DE
:101CC00002040040404040400000010204000020A7
:101CD00054545478007F48444438003844444420E5
:101CE00000384444487F00385454541800087E0992
:101CF00001020018A4A4A47C007F0804047800005A
:101D0000447D4000004080847D00007F1028440016
:101D10000000417F4000007C04180478007C080427
:101D2000047800384444443800FC24242418001863
:101D3000242418FC007C080404080048545454204F
:101D400000043F444020003C4040207C001C2040D8
:101D5000201C003C4030403C004428102844001C1B
:101D6000A0A0A07C004464544C440000087F4100C3
:101D70000000007F00000000417F08000008040808
:101D80001008C4E300008060F8074020180F08C85E
:101D90000808281800010000FF00100C0340807F95
:101DA0000001061800BAC3001010F01F10F00080E8
:101DB0008282E2928A868000402215081661000025
:101DC00040807F0000000000CAC000202020FE20CC
:101DD00020FF202020FF20202020000000007F4046
:101DE0004047444444474040400000BDE7000000F5
:101DF00000FE929292FE929292FE0000000008086D
:101E00000484621E010001FE0204040808003F0071
:101E100000FF01010101FFFFFFFFFF0101010101BF
:101E2000FFFF80808080B7B7B7B7B78080808080A1
:101E3000FF000000541E000800000020FC0000000D
:101E400028010008501F0008FC000020A40E00001C
:101E50004401000800000000000000002301000011
:101E60000000000000000400010203000000000068
:101E7000340200000000000000020000000000002A
:101E80000000000045030000000000000000040006
:101E900001020300000000005604000000000000E2
:101EA0000002000000000000000000000000000030
:101EB0007856341204000400010203000000000000
:101EC00000000000CDAB8907040200000000000004
:101ED00000000000FE0200000000000000000400FE
:101EE0000102030000000000FF02000000000000EB
:101EF00000020000000000000000000010030000CD
:101F000000000000000004000102030000000000C7
:101F10001F0300000000000000020000000000009D
:101F2000000000002003000000000000000004008A
:101F300001020300000000002F0300000000000069
:101F4000000200000000000000000000000000008F
:04000005080000ED02
:00000001FF
