:020000040800F2
:10000000880600208901000809080008E3030008A9
:100010000508000843020008ED0D0008000000007C
:100020000000000000000000000000009D0C00081F
:100030004702000800000000870B0008890D000837
:10004000A3010008A3010008A3010008A301000800
:10005000A3010008A3010008A3010008A3010008F0
:10006000A3010008A3010008A3010008A3010008E0
:10007000A3010008A3010008A3010008A3010008D0
:10008000A3010008A3010008A3010008A3010008C0
:10009000A3010008A3010008A3010008A3010008B0
:1000A000A3010008A3010008A3010008A3010008A0
:1000B000A3010008A3010008A3010008A301000890
:1000C000A3010008A3010008A3010008A301000880
:1000D000A3010008A3010008A3010008A301000870
:1000E00049020008A3010008A301000800F002F87B
:1000F00000F03AF80AA090E8000C82448344AAF188
:100100000107DA4501D100F02FF8AFF2090EBAE885
:100110000F0013F0010F18BFFB1A43F0010318473B
:100120007813000098130000103A24BF78C878C1F3
:10013000FAD8520724BF30C830C144BF04680C60ED
:10014000704700000023002400250026103A28BF35
:1001500078C1FBD8520728BF30C148BF0B60704739
:100160001FB51FBD10B510BD00F031F81146FFF7E7
:10017000F7FF00F03DFE00F04FF803B4FFF7F2FF89
:1001800003BC00F057F800000948804709480047C1
:10019000FEE7FEE7FEE7FEE7FEE7FEE7FEE7FEE737
:1001A000FEE7FEE704480549054A064B7047000094
:1001B0008D0D0008ED000008880000208806002052
:1001C00088020020880200207047704770477546FB
:1001D00000F02CF8AE4605006946534620F00700B3
:1001E000854618B020B5FFF7DDFFBDE820404FF091
:1001F00000064FF000074FF000084FF0000B21F011
:100200000701AC46ACE8C009ACE8C009ACE8C009DD
:10021000ACE8C0098D46704710B50446AFF30080C6
:100220002046BDE81040FFF7A8BF00000048704717
:100230002400002001491820ABBEFEE72600020082
:10024000704700BFFEE7704710B54FF4804000F0E4
:100250001BF801280DD18103064800F0B4F820B93D
:1002600005480088401C044908804FF4804000F095
:1002700005F810BD000C0140140000200149086081
:100280007047000014040140014600200022074B83
:100290001B6803EA0102054B14331B680B4013B1C2
:1002A0000AB1012000E00020704700000004014076
:1002B0002DE9F041024600250026002000230024FD
:1002C000002791F803C00CF00F0591F803C00CF063
:1002D000100CBCF1000F03D091F802C04CEA0505E8
:1002E00091F800C0BCF1000F31D0146800202BE061
:1002F0004FF0010C0CFA00F3B1F800C00CEA030651
:100300009E4220D183004FF00F0C0CFA03F7BC4340
:1003100005FA03FC4CEA040491F803C0BCF1280F71
:1003200006D14FF0010C0CFA00FCC2F814C00AE030
:1003300091F803C0BCF1480F05D14FF0010C0CFA45
:1003400000FCC2F810C0401C0828D1D31460B1F8DA
:1003500000C0BCF1FF0F34DD546800202EE000F136
:10036000080C4FF0010808FA0CF3B1F800C00CEAD1
:1003700003069E4221D183004FF00F0C0CFA03F7C5
:10038000BC4305FA03FC4CEA040491F803C0BCF139
:10039000280F05D100F1080C08FA0CF8C2F81480F7
:1003A00091F803C0BCF1480F07D100F1080C4FF0E1
:1003B000010808FA0CF8C2F81080401C0828CED3B7
:1003C0005460BDE8F0810246002093680B400BB1F9
:1003D000012000E0002070470AB1016100E04161A6
:1003E000704700BFFEE721B1028842F480620280BC
:1003F00004E002884FF6FF331A400280704770B560
:1004000002460024002500230020958A138B1B043C
:1004100045EA030626F07F4404EA01068E4201D134
:10042000012000E0002070BD21B1028842F00102ED
:10043000028004E002884FF6FE731A400280704783
:1004400021B1028842F48072028004E002884FF6F3
:10045000FF631A400280704721B1028842F40072A3
:10046000028004E002884FF6FF531A400280704772
:100470002DE9F04385B004460D460026B146042719
:10048000DFF8CC80A6884FF6C0700640684600F0C2
:100490009BFBDDF808802F48B8FBF0F01FFA80F9CD
:1004A00046EA0906A68020884FF6FE7108402080A3
:1004B00000262949286888420CD828684000B8FBE3
:1004C000F0F087B2042F00DA04273E4309F101005F
:1004D000208427E0E8884BF6FF71884206D128681F
:1004E00000EB4000B8FBF0F087B209E0286800EBB1
:1004F000C00101EB0010B8FBF0F087B247F4804771
:10050000C7F30B0008B947F0010747F40040064362
:100510004FF4967009FB00F04FF47A7190FBF1F004
:10052000401C2084A683208840F00100208026887B
:100530004FF6F5300640A8886989084306432680AF
:10054000A88929890843208105B0BDE8F08300000F
:1005500000127A0040420F00A08601000146088A7E
:10056000C0B2704712B141F0010102E04FF6FE73D4
:1005700019400182704701827047000000B585B0C4
:100580000121082000F010FB0121880500F0FCFA91
:100590001C208DF813004FF44060ADF810000320CC
:1005A0008DF8120004A91C48FFF782FE4FF480600A
:1005B000ADF80A000001ADF80C004CF2503000908C
:1005C0004BF6FF70ADF806000020ADF80400ADF862
:1005D000080069461148FFF74BFF01210F48FFF75C
:1005E00023FF01216B2000F0CFF800216C2000F0E8
:1005F000CBF80921192000F0C7F806211A2000F0D5
:10060000C3F818211B2000F0BFF818211C2000F0AF
:10061000BBF805B000BD0000000C014000580040D0
:100620002DE9F05F06460F4690469946DDE90AAB94
:100630003B2000F04BF804463C2000F047F805460C
:1006400045EA042000B230803D2000F03FF8044627
:100650003E2000F03BF8054645EA042000B2388011
:100660003F2000F033F80446402000F02FF8054604
:1006700045EA042000B2A8F80000432000F026F864
:100680000446442000F022F8054645EA042000B262
:10069000A9F80000452000F019F80446462000F0B3
:1006A00015F8054645EA042000B2AAF800004720E4
:1006B00000F00CF80446482000F008F8054645EA2A
:1006C000042000B2ABF80000BDE8F09F70B504460E
:1006D00001212A48FFF7B4FE00BF29492748FFF748
:1006E0008EFE0128F9D10022D0212448FFF73AFFDD
:1006F00000BF24492148FFF782FE0128F9D1214695
:100700001E48FFF738FF00BF1E49891C1B48FFF732
:1007100076FE0128F8D101211848FFF791FE00BFAD
:1007200017491648FFF76BFE0128F9D10122D021A5
:100730001248FFF717FF00BF1149491C0F48FFF788
:100740005EFE0128F8D100210C48FFF74CFE012184
:100750000A48FFF781FE00BF09493F310748FFF70C
:100760004EFE0128F8D10548FFF7F8FE05460121A5
:100770000248FFF738FE284670BD000000580040D0
:10078000010003008200070070B504460D460121F8
:100790001948FFF755FE00BF18491748FFF72FFE0D
:1007A0000128F9D10022D0211348FFF7DBFE00BF5A
:1007B00013491148FFF723FE0128F9D121460E48BD
:1007C000FFF7D9FE00BF0E49891E0B48FFF717FE41
:1007D0000128F8D129460848FFF7CDFE00BF084997
:1007E000891C0548FFF70BFE0128F8D101210248BA
:1007F000FFF732FE70BD000000580040010003000A
:100800008200070000BFFEE7704770B500240EE0CD
:100810000021204600F0EFF8002504E0002000F061
:10082000A2F9681CC5B2802DF8DB601CC4B2082C8C
:10083000EEDB70BD08B50121082000F0B5F91420E9
:100840008DF8030003208DF802004FF48070ADF89E
:10085000000069460A48FFF72BFD4FF40070ADF821
:10086000000069460648FFF723FD012211020448F3
:10087000FFF7B2FD012251020148FFF7ADFD08BDAF
:10088000000C014070B50546002415E08020204191
:1008900000EA05024FF400710E48FFF79DFD0122AA
:1008A00011020C48FFF798FD00224FF480710948AF
:1008B000FFF792FD601CC4B2082CE7DB0122110295
:1008C0000448FFF789FD00224FF480710148FFF7CB
:1008D00083FD70BD000C014010B5012251020A4891
:1008E000FFF77AFD012211020748FFF775FD00228C
:1008F0004FF400710448FFF76FFD00224FF4807140
:100900000148FFF769FD10BD000C014010B5002241
:100910004FF400710648FFF75FFD01221102044801
:10092000FFF75AFD012251020148FFF755FD10BDA6
:10093000000C014070B5002406E0002500E06D1CAD
:10094000B5F57A7FFBD3641CB4F57A7FF5D3FFF756
:1009500071FFAE2000F0F7F8D52000F0F4F8802009
:1009600000F0F1F8A82000F0EEF83F2000F0EBF8DE
:10097000D32000F0E8F8002000F0E5F8402000F077
:10098000E2F8A12000F0DFF8C82000F0DCF8DA205F
:1009900000F0D9F8122000F0D6F8812000F0D3F84A
:1009A000CF2000F0D0F8D92000F0CDF8F12000F0F1
:1009B000CAF8DB2000F0C7F8302000F0C4F8A4200B
:1009C00000F0C1F8A62000F0BEF88D2000F0BBF8C2
:1009D000142000F0B8F8AF2000F0B5F8FFF715FFCD
:1009E00070BD10B50246012000E050430B1EA1F17E
:1009F0000101FAD110BD70B505460C4645F0B000B6
:100A000000F0A1F8102141EA141000F09CF804F065
:100A10000F0000F098F870BD2DE9F04105460E4634
:100A20001746721ED206110E6A1E5206100EFFF7EE
:100A3000E2FF002409E0A7F12001134A02EB0111B3
:100A4000085D00F090F8601CC4B2082CF3DB721E45
:100A5000D206110E6A1E012303EB4202D0B2FFF749
:100A6000CAFF00240BE0A7F12001074A02EB0112A4
:100A700004F10801505C00F076F8601CC4B2082C48
:100A8000F1DBBDE8F0810000A80E00082DE9F04779
:100A900081460E4690461F4600241DE0381B411E2D
:100AA0001020FFF79EFFB8FBF0F000F00F050A2DB5
:100AB00008DA05F13000C2B23019C1B24846FFF77A
:100AC000ABFF07E005F13700C2B23019C1B24846AA
:100AD000FFF7A2FF601CC4B2BC42DFDBBDE8F087B9
:100AE0002DE9F0478146884615461E46002D06DB57
:100AF0002B2241464846FFF78FFF2F4605E02D2267
:100B000041464846FFF788FF6F42002417E0301B3C
:100B1000411E0A20FFF765FFB7FBF0F00A21B0FB8A
:100B2000F1F201FB120000F1300A08EB0400401C56
:100B3000C1B252464846FFF76FFF601CC4B2B442D0
:100B4000E5DBBDE8F08710B50446FFF7C5FE782069
:100B5000FFF798FE0020FFF795FE2046FFF792FE74
:100B6000FFF7D4FE10BD10B50446FFF7B5FE7820A0
:100B7000FFF788FE4020FFF785FE2046FFF782FE44
:100B8000FFF7C4FE10BD704729B1064AD26902437F
:100B9000044BDA6104E0034AD2698243014BDA6113
:100BA000704700000010024029B1064A92690243D2
:100BB000044B9A6104E0034A92698243014B9A61B3
:100BC000704700000010024030B5002100220024D0
:100BD00000232D4D6D6805F00C0121B1042905D0CD
:100BE000082923D105E0294D056022E0274D056045
:100BF0001FE0254D6D6805F47012234D6D6805F4F6
:100C00008034022505EB92421CB9214D5543056005
:100C10000BE01D4D6D6805F400351DB11C4D5543AD
:100C2000056002E0194D5543056002E0174D05606F
:100C300000BF00BF144D6D6805F0F0010909154DA6
:100C40006B5C0568DD4045600F4D6D6805F4E06143
:100C5000090A104D6B5C4568DD4085600A4D6D6882
:100C600005F46051C90A0B4D6B5C4568DD40C560F9
:100C7000054D6D6805F44041890B074D6B5CC568F7
:100C8000B5FBF3F5056130BD0010024000127A009B
:100C900000093D000000002010000020704710B542
:100CA00000F002F810BD00000CB50020019000908B
:100CB0003348006840F480303149086000BF304854
:100CC000006800F4003000900198401C01900098EA
:100CD00018B90198B0F5A06FF1D12948006800F467
:100CE000003010B10120009001E000200090009839
:100CF000012843D12348006840F0100021490860D2
:100D00000846006820F0030008600846006840F0CC
:100D1000020008601A48406819494860084640685F
:100D200048600846406840F4806048600846406873
:100D300020F47C1048600846406840F4E8104860A1
:100D40000846006840F08070086000BF0C480068EA
:100D500000F000700028F9D00948406820F0030036
:100D6000074948600846406840F00200486000BFFC
:100D70000348406800F00C000828F9D10CBD0000C1
:100D800000100240002002407047000010B51348D8
:100D9000006840F0010011490860084640681049A9
:100DA00008400E494860084600680E4908400B4953
:100DB00008600846006820F4802008600846406803
:100DC00020F4FE0048604FF41F008860FFF767FFC3
:100DD0004FF000600449086010BD000000100240A0
:100DE0000000FFF8FFFFF6FE08ED00E000BFFEE7A1
:100DF0001CB5FFF79FFDFFF7C1FB7520FFF766FCF1
:100E00002249087040E022482249234B234ACDE979
:100E1000001023492348FFF703FC02231B480278F4
:100E200001210846FFF732FE05231E48B0F90020D5
:100E300001210220FFF754FE05231948B0F90020D4
:100E400001210320FFF74CFE05231448B0F90020D0
:100E500001210420FFF744FE05230F48B0F90020CC
:100E600008210220FFF73CFE05230A48B0F90020C4
:100E700008210320FFF734FE05230548B0F90020C0
:100E800008210420FFF72CFEBDE70000220000200F
:100E9000200000201E0000201C0000201A0000205E
:100EA00018000020160000200000000000000000D4
:100EB0000000000000000000000000F8000000003A
:100EC000000000333000000000100C06100C06007B
:100ED000000000000000000040C07840C0784000E2
:100EE000043F04043F040400007088FC0830000044
:100EF000001820FF211E0000F008F000E01800009C
:100F000000211C031E211E0000F008887000000054
:100F10001E2123241927211010160E0000000000A6
:100F20000000000000000000000000E018040200C3
:100F3000000000071820400000020418E000000034
:100F40000040201807000000404080F08040400032
:100F50000202010F01020200000000F00000000088
:100F60000101011F0101010000000000000000005C
:100F700080B07000000000000000000000000000D1
:100F8000000101010101010100000000000000005A
:100F900000303000000000000000000080601804F5
:100FA000006018060100000000E010080810E000D2
:100FB000000F102020100F00001010F8000000009B
:100FC0000020203F202000000070080808887000E2
:100FD0000030282422213000003008888848300062
:100FE0000018202020110E000000C02010F8000082
:100FF00000070424243F240000F80888880808001B
:101000000019212020110E0000E01088881800002F
:10101000000F112020110E0000380808C838080001
:101020000000003F00000000007088080888700081
:10103000001C222121221C0000E010080810E00002
:101040000000312222110F00000000C0C00000008B
:1010500000000030300000000000008000000000B0
:1010600000008060000000000000804020100800A8
:101070000001020408102000404040404040400071
:10108000040404040404040000081020408000004C
:101090000020100804020100007048080808F00051
:1010A0000000003036010000C030C828E810E00021
:1010B0000718272423140B000000C038E0000000AC
:1010C000203C23020227382008F888888870000016
:1010D000203F202020110E00C030080808083800EA
:1010E000071820202010080008F808080810E00061
:1010F000203F202020100F0008F88888E808100002
:10110000203F20202320180008F88888E8081000D5
:10111000203F200003000000C0300808083800000D
:1011200007182020221E020008F808000008F8080E
:10113000203F210101213F20000808F80808000095
:101140000020203F2020000000000808F8080800C8
:10115000C08080807F00000008F888C02818080040
:10116000203F20012638200008F808000000000079
:10117000203F20202020300008F8F800F8F8080070
:10118000203F003F003F200008F830C00008F8086A
:10119000203F200007183F00E01008080810E0007A
:1011A0000F10202020100F0008F808080808F00091
:1011B000203F210101010000E01008080810E000B4
:1011C0000F18242438504F0008F888888888700049
:1011D000203F2000030C30200070880808083800E9
:1011E0000038202121221C00180808F808081800DF
:1011F0000000203F2000000008F808000008F80860
:10120000001F202020201F000878880000C8380810
:10121000000007380E010000F80800F80008F80088
:10122000033C0700073C0300081868808068180822
:1012300020302C03032C30200838C800C8380800A0
:101240000000203F2000000010080808C8380800EF
:101250002038262120201800000000FE0202020093
:101260000000007F40404000000C30C00000000043
:10127000000000010638C00000020202FE0000006B
:10128000004040407F000000000004020202040011
:10129000000000000000000000000000000000004E
:1012A0008080808080808080000202040000000036
:1012B000000000000000000000008080808000002E
:1012C0000019242222223F2008F80080800000001C
:1012D000003F112020110E000000008080800000DF
:1012E000000E112020201100000000808088F800EE
:1012F000000E112020103F20000080808080000020
:10130000001F222222221300008080F08888881883
:101310000020203F2020000000008080808080008E
:10132000006B94949493600008F800808080000023
:10133000203F210000203F200080989800000000FE
:101340000020203F2020000000000080989800002E
:1013500000C08080807F000008F80000808080004E
:10136000203F24022D302000000808F80000000073
:101370000020203F2020000080808080808080002E
:10138000203F20003F20003F8080008080800000C0
:10139000203F210000203F2000008080808000004E
:1013A000001F202020201F0080800080800000007F
:1013B00080FFA12020110E000000008080808000AE
:1013C000000E112020A0FF8080808000808080009F
:1013D00020203F21200001000000808080808000CC
:1013E0000033242424241900008080E08080000041
:1013F0000000001F2020000080800000008080008E
:10140000001F202020103F208080800000808080EE
:1014100000010E300806010080800080008080807E
:101420000F300C030C300F000080800080808000A3
:101430000020312E0E3120008080800000808080CE
:1014400080818E701806010000808080808080007E
:101450000021302C2221300000000000807C02029C
:1014600000000000003F404000000000FF000000BE
:1014700000000000FF0000000002027C800000006D
:101480000040403F00000000000601010202040489
:101490000000000000000000B81400080000002058
:1014A0002400000028010008DC14000824000020AB
:1014B000640600004401000800000000010203046B
:1014C00001020304060708090204060800000000E0
:0C14D00000000000000000000000000010
:04000005080000ED02
:00000001FF
