:1001F00012021D12028DAD257F011202B1E525709C
:1002000002F522E525B40103752214E525B40203A5
:0D021000752232E525B403DE75226480D925
:03000B000200B23E
:1000B200C0E0C0F0C083C082C0D075D000C000C014
:0D00C20001C002C003C004C005C006C00795
:1000CF00758CFF758AA4051FE51F7002051EAE1EF5
:1000DF00FF7C007D6412019B8C1E8D1F0521E52185
:1000EF0070020520C3E51F9522E51E9400500512EE
:1000FF00029F80031202A8C3E5219414E520940007
:0B010F00400975200075210012025904
:10011A00D007D006D005D004D003D002D001D00039
:0B012A00D0D0D082D083D0F0D0E032E3
:0300230002027462
:09027400C0E0C0D075D000C00745
:09027D00309806C298AF998F2554
:07028600D007D0D0D0E03218
:10021D0053890F438920759850758780758DFA75B0
:0F022D008BFAD28ED2ABC2BBD2BCD2AFD2AC2234
:080003008F993099FDC299228A
:10000E00EF1FAC0670011E4C600A7D027CC7DCFE41
:04001E00DDFC80EC99
:0100220022BB
:09029F00D290D291D292D29322A6
:0902A800C290D291D292D29322AD
:10028D00438901758CFF758AA4D28CD2A9D2AFD2C5
:02029D00B92284
:10023C000909000A0A0A0A0A0A0A0A0C123F065B92
:0C024C004F666D7D077F6F008001080188
:0702B10074092FF8A60522D5
:10013500E4F580EF14B40800505490014D75F003B8
:10014500A4C58325F0C5837302018D0201890201CF
:100155008102017D020175020171020169020165D9
:10016500C2A28002D2A2C2A3C2A48022C2A28002DD
:10017500D2A2D2A3C2A48016C2A28002D2A2C2A3D6
:10018500D2A4800AC2A28002D2A2D2A3D2A474129F
:060195002DF8E6F58022C2
:1002590074092508F8E6FD7C00AF08120135050888
:0A026900E508C3940940037508017D
:010273002268
:03000000020026D5
:0C002600787FE4F6D8FD75812502006D9E
:10019B00BC000BBE0029EF8DF084FFADF022E4CC48
:1001AB00F875F008EF2FFFEE33FEEC33FCEE9DEC11
:1001BB00984005FCEE9DFE0FD5F0E9E4CEFD22ED57
:1001CB00F8F5F0EE8420D21CFEADF075F008EF2FA1
:1001DB00FFED33FD4007985006D5F0F222C398FD92
:0501EB000FD5F0EA222F
:100032000201F0E493A3F8E493A34003F68001F2F3
:1000420008DFF48029E493A3F85407240CC8C333CF
:10005200C4540F4420C8834004F456800146F6DF9E
:10006200E4800B010204081020408090023CE47EF0
:10007200019360BCA3FF543F30E509541FFEE49393
:10008200A360010ECF54C025E060A840B8E493A35A
:10009200FAE493A3F8E493A3C8C582C8CAC583CA85
:1000A200F0A3C8C582C8CAC583CADFE9DEE780BE3D
:0102580000A5
:00000001FF
