:020000040800F2
:10000000A80F002089010008B31300088D12000812
:10001000B11300088F020008951A000800000000C4
:10002000000000000000000000000000B9170008F8
:10003000E102000800000000B7170008BB17000825
:10004000991A0008A3010008A3010008A3010008F1
:10005000A3010008A3010008A3010008E5020008AD
:10006000A3010008A3010008A3010008A3010008E0
:10007000A3010008A3010008A3010008A3010008D0
:10008000A3010008A3010008A3010008A3010008C0
:10009000A3010008A3010008A3010008A3010008B0
:1000A000A3010008A3010008A3010008A3010008A0
:1000B00021180008A3010008A3010008A3010008FB
:1000C000A3010008A3010008A3010008A301000880
:1000D000A3010008751A0008A3010008A301000885
:1000E000A3010008A3010008A301000800F002F822
:1000F00000F03AF80AA090E8000C82448344AAF188
:100100000107DA4501D100F02FF8AFF2090EBAE885
:100110000F0013F0010F18BFFB1A43F0010318473B
:100120003422000054220000103A24BF78C878C15D
:10013000FAD8520724BF30C830C144BF04680C60ED
:10014000704700000023002400250026103A28BF35
:1001500078C1FBD8520728BF30C148BF0B60704739
:100160001FB51FBD10B510BD00F058F81146FFF7C0
:10017000F7FF01F0A7FC00F076F803B4FFF7F2FFF9
:1001800003BC00F07DF8000009488047094800479B
:10019000FEE7FEE7FEE7FEE7FEE7FEE7FEE7FEE737
:1001A000FEE7FEE704480549054A064B7047000094
:1001B0001D180008ED000008A8090020A80F002065
:1001C000A80B0020A80B00204FF0000200B513463A
:1001D00094469646203922BFA0E80C50A0E80C5067
:1001E000B1F12001BFF4F7AF090728BFA0E80C5018
:1001F00048BF0CC05DF804EB890028BF40F8042B11
:1002000008BF704748BF20F8022B11F0804F18BF7D
:1002100000F8012B7047704770477047754600F033
:100220002BF8AE4605006946534620F00700854688
:1002300018B020B5FFF7B6FFBDE820404FF000062C
:100240004FF000074FF000084FF0000B21F00701BE
:10025000AC46ACE8C009ACE8C009ACE8C009ACE801
:10026000C0098D46704710B50446AFF300802046A4
:10027000BDE81040FFF781BF0048704744090020E7
:1002800001491820ABBEFEE7260002007047FEE7DA
:1002900010B504464FF0E0210020086100F096FC04
:1002A0000149E008088010BD020000200B490988C0
:1002B00048434FF0E021486100228A61086940F01C
:1002C000010008610869C30701D0C003FAD50869B5
:1002D00020F0010008618A617047000002000020E0
:1002E0007047000010B5022000F08EF8014902208E
:1002F000086010BD1404014010B590F821100022D0
:10030000022905D00421816380F82020012010BD3E
:1003100001680B6823F00E030B6001680B6823F083
:1003200001030B6090F84030C46B012101FA03F324
:10033000636080F8211080F82020104610BD000076
:1003400010B590F821100024022903D00421816304
:1003500001243DE001680A6822F00E020A6001688B
:100360000A6822F001020A601A4A0168914201D12A
:10037000012121E0174A1432914201D110211BE0E2
:10038000144A2832914201D1891515E0114A3C32B4
:10039000914201D189140FE00E4A5032914202D1AC
:1003A0004FF4803108E00B4A6432914202D14FF49D
:1003B000801101E04FF08071064A083A5160012136
:1003C00080F82110002180F82010416B01B188478E
:1003D000204610BD0800024010B504460520FFF776
:1003E00065FF022C09D10421054800F009F90549EF
:1003F0000128088802D0401E088010BD401CFBE781
:10040000000801400A000020044910B50A680242B1
:1004100002D00860FFF7E0FF10BD000014040140A7
:100420002DE9F84FDFF8B8910024A9F1040B234619
:100430000F2709F1040AABF1040EC9E00125A5401C
:100440002A40AA427DD1674ED1F804C0ACEB060821
:10045000B44532D014DCBCF1030F3AD009DCBCF156
:10046000000F2AD0BCF1010F1CD0BCF1020F31D11A
:100470001DE0BCF1110F17D0BCF1120F2AD119E009
:10048000B8F5881F19D006DCB8F5803F15D0B8F54F
:10049000801F1FD111E0B8F5001F0ED0B8F5041F62
:1004A00018D10AE0CB6815E0CB681B1D12E0CB68C1
:1004B00008330FE0CB680C330CE08B682BB1012BB9
:1004C0004FF0080303D0456104E0042302E0056116
:1004D00000E00023FF2A01D8064601E000F10406EF
:1004E0004FEA840501D9A5F12005D6F8008007FA66
:1004F00005FC28EA0C0803FA05F548EA0508C6F8E1
:1005000000804D68ED0062D5374DAE6946F00106BA
:10051000AE61AD6924F0030605F001050095334D89
:1005200006EB050CDCF80850A607360F07FA06F8AC
:1005300025EA0805DFF8B880404503D14FF00008F0
:1005400017E044E0DFF8AC80404502D14FF00108ED
:100550000FE0DFF8A480404502D14FF0020808E028
:10056000DFF89880404502D14FF0030801E04FF0DA
:10057000040808FA06F848EA0508CCF808804D682F
:10058000D9F80060ED024D4601D5164300E09643D0
:100590002E604D68DAF80060AD02554601D516436D
:1005A00000E096432E604D68DBF80060AD035D46C9
:1005B00001D5164300E096432E604D68DEF80060DA
:1005C000ED03754601D5164300E096432E60641C8A
:1005D0000D682A46E5407FF431AFBDE8F88F000092
:1005E000080401400000111000100240000001400A
:1005F00000080140000C01400010014000140140BF
:100600008068084000D0012070470AB1016170473E
:100610000904FBE7014880687047000014000020CF
:1006200002488168027811448160704714000020FC
:10063000074810B5016841F010010160052000F085
:1006400067F8002000F006F800F024F8002010BD44
:100650000020024070B50D4D04464FF47A712878A1
:10066000B1FBF0F00A490968B1FBF0F000F0BAFA0A
:1006700048B9102C07D200222146501E00F028F85D
:1006800000206C6070BD012070BD000014000020CF
:10069000200000200C4808B5816941F0010181610A
:1006A000816901F001010091C16941F08051C1618E
:1006B000C06900F0805000900448416821F0E0617A
:1006C00041F00071416008BD00100240000001408F
:1006D000F0B40E4B1B680C46C3F30223C3F10705AD
:1006E000042D00D90425191D072901D2002300E09B
:1006F000DB1E012606FA05F1491E214099409E4065
:10070000761E16403143F0BC01F0CCB90CED00E090
:10071000064900F0070208684FF6FF03184040EA58
:100720000220034A10430860704700000CED00E00F
:100730000000FA052DE9F0470F46050061D0434E51
:10074000306800F00700B84209D2306820F0070096
:1007500038433060306800F00700B84251D1286853
:100760003B4C810712D5400703D5606840F4E06038
:1007700060602878000703D5606840F460506060CE
:100780006068A96820F0F000084360602878C0071E
:1007900028D06868012810D02168022810D0890765
:1007A00000292EDA616821F0030101436160FFF73F
:1007B00031FF804641F288390DE021688903EFE777
:1007C0008901EDE7FFF726FFA0EB0801494502D9B3
:1007D0000320BDE8F0876068696800F00C00B0EBAA
:1007E000810FEFD1306800F00700B8420BD93068B4
:1007F00020F0070038433060306800F00700B8424E
:1008000001D00120E5E72878400705D56068E96850
:1008100020F4E060084360602878000706D560682F
:10082000296920F4605040EAC100606000F018F8C7
:100830006168084AC1F30311515CC8400649086069
:1008400006480068FFF706FF0020C2E700200240CC
:10085000001002404423000820000020180000205F
:100860000E4A51680E4801F00C03042B11D0082BDE
:100870000FD10C48C1F38343C903C05C0AD551684A
:10088000084AC1F34041921E515C054A5043B0FBF7
:10089000F1F07047044948437047000000100240DF
:1008A00000127A003423000800093D002DE9F84FBA
:1008B000040070D02078C04DC00749D06868C0F3EC
:1008C0008100012807D06868C0F38100022809D19F
:1008D0006868C00306D52868800339D56068002899
:1008E000E7D035E06068B0F5803F0BD010B1B0F5CF
:1008F000A02F11D0286820F480302860286820F4C8
:10090000802002E0286840F480302860606890B160
:10091000FFF780FE06460AE0286840F48020286041
:10092000F0E700BFFFF776FE801B642873D82868C5
:100930008003F7D50CE0FFF76DFE064605E000BF2B
:10094000FFF768FE801B6428F0D828688003F7D47E
:1009500020789A4E80074FF001094FF0000839D5F2
:10096000686810F00C0F07D06868C0F38100022897
:1009700009D16868C00306D42868800714D52069A7
:10098000012808D110E02069B0B1C6F80090FFF747
:1009900041FE074605E00AE1FFF73CFEC01B0228C6
:1009A000C4D828688007F7D52868616920F0F80066
:1009B00040EAC10028600DE0C6F80080FFF72AFE7B
:1009C000074604E0FFF726FEC01B022823D828684C
:1009D0008007F7D4207800072CD57948A169D9B1D0
:1009E000C0F80090FFF716FE074604E0FFF712FE7E
:1009F000C01B02280FD8686A8007F7D571484FF4EA
:100A0000FA510068B0FBF1F0009000BF0098411E61
:100A10000091FAD20EE080E0C0F80080FFF7FAFD06
:100A2000074604E0FFF7F6FDC01B022875D8686A88
:100A30008007F7D42078400760D5E8690027C00018
:100A400008D4E86940F08050E861E869012700F0C7
:100A5000805000905C480168C90513D40168834642
:100A600041F480710160FFF7D5FD824606E000BFCA
:100A7000FFF7D0FDA0EB0A0064284ED8DBF8000099
:100A8000C005F5D5E06801280AD008B1052813D0C3
:100A9000286A20F001002862286A20F0040002E0A1
:100AA000286A40F001002862E06841F2883B98B172
:100AB000FFF7B0FD82460BE0286A40F00400286290
:100AC000EEE700BFFFF7A6FDA0EB0A0159455AD893
:100AD000286A8007F6D50CE0FFF79CFD824605E00A
:100AE000FFF798FDA0EB0A0159454CD8286A80070A
:100AF000F6D41FB1E86920F08050E861E06988B35E
:100B00006968C1F38101022944D00228C6F86080D7
:100B100004D0FFF77FFD044638E034E0FFF77AFDAC
:100B2000074604E0FFF776FDC01B02282BD8286893
:100B30008001F7D4206AB0F5803F05D16868A168CC
:100B400020F4003008436860D4E90801084369686C
:100B500021F4741108436860C6F86090FFF75AFDED
:100B6000044606E025E000BFFFF754FD001B022805
:100B700009D828688001F7D51BE000BFFFF74AFDC0
:100B8000001B022802D90320BDE8F88F28688001E5
:100B9000F4D40EE00128F7D06868226A00F48031AE
:100BA000914204D1616A00F47010884201D00120A2
:100BB000EAE70020E8E7000000100240000042429F
:100BC0008004424220000020007000404FF0E021ED
:100BD0000428086903D020F004000861704740F041
:100BE0000400FAE710B5401EB0F1807F01D3012068
:100BF00010BD4FF0E02460610F21601700F052FF3C
:100C00000020A06107202061002010BD70477047C0
:100C100070B590F83C20012A26D0012480F83C4091
:100C2000022280F83D2003685A689D6822F0700611
:100C30000A6832435A600D4B02689A4208D0B2F1FA
:100C4000804F05D00A4B9A4202D00A4B9A4204D1F7
:100C5000496825F080031943916080F83D400021E8
:100C600080F83C10084670BD022070BD002C014089
:100C700000040040000800402DE9F0410D4604004A
:100C800003D094F83D0018B108E00120BDE8F081E0
:100C9000002084F83C00204600F040F8022084F850
:100CA0003D002068816844F2070291438160211D64
:100CB000206800F0EBFD226890689169166A2B6845
:100CC000AF69034340F20330814341EA0721A8683A
:100CD000EF6908434FF6FC418843E96840EA072082
:100CE000014328692F6A000140EA07300843696818
:100CF0006D6926F0220646EA0515294393602268AD
:100D0000906154F8460B0162012004F81F09E07558
:100D10002076E0762077A0750020B7E700B5006860
:100D2000104985B088421BD10F48C16941F00201CA
:100D3000C161C16901F002010491816941F00401BE
:100D400081618069C02100F0040004900020CDE999
:100D5000001002900320039069460448FFF760FBEF
:100D600005B000BD00040040001002400008014032
:100D700070B590F83E60044690F83F5090F84230CD
:100D800090F84320022021B104290ED0012E1BD15E
:100D900014E0012E18D1012B16D184F83E0084F8FE
:100DA000420001220021206820E0012D0CD1012AFF
:100DB0000AD184F83F0084F8430014E0012D03D1E8
:100DC000012B01D1012A01D0012070BD84F83E0021
:100DD00084F83F0084F8420084F843000122002197
:100DE000206800F08FFD01220421206800F08AFDB8
:100DF0002068016841F001010160002070BD000021
:100E000010B50068B0F1804F22D112480022028054
:100E1000114801680B6A41F21114234207D10B6A91
:100E2000A410234203D10B6823F001030B60016877
:100E30004A6201680A6A22F0A0020A6201680A6A2C
:100E400042F020020A620068016841F0010101607D
:100E500010BD000008000020800800202DE9F041AE
:100E600004460068C66805694FF00007A90713D556
:100E7000B10711D5F91E0161012020772068806932
:100E80008007204602D0FFF7BBFF04E000F07EF8A9
:100E9000204600F07CF82777680716D5700714D530
:100EA00021686FF0040008610220207720688069C3
:100EB00010F4407F204602D0FFF7A2FF04E000F0CC
:100EC00065F8204600F063F82777280715D5300726
:100ED00013D521686FF0080008610420207720688E
:100EE000C0698007204602D0FFF78AFF04E000F0C7
:100EF0004DF8204600F04BF82777E80616D5F006A7
:100F000014D521686FF01000086108202077206850
:100F1000C06910F4407F204602D0FFF771FF04E063
:100F200000F034F8204600F032F82777E80708D0C0
:100F3000F00706D021686FF001000861204600F03C
:100F400027F8280608D5300606D521686FF08000FE
:100F500008612046FFF75AFE680608D5700606D5D8
:100F600021686FF040000861204600F012F8A806E2
:100F70000AD5B00608D521686FF020000861204628
:100F8000BDE8F041FFF743BEBDE8F0817047704710
:100F90007047704770477047F8B5016804460868A5
:100FA000CA684B6910F00F0F4FF0000559D003F0DD
:100FB000010602F49077374365D0C10705D0D1050B
:100FC00003D5616C41F001016164410705D5D90782
:100FD00003D0616C41F002016164810705D5D90736
:100FE00003D0616C41F004016164010707D502F090
:100FF0002001314303D0616C41F008016164616CF0
:1010000000293AD0800604D5900602D5204600F08B
:10101000B5FC20684069616CC0F38010090700D4FA
:1010200060B3204600F083FC20684069400621D56B
:101030002068143050E8001F21F0400140E8001201
:10104000002AF5D1E06BA8B16D494163E06BFFF771
:1010500077F9002811D0E06B416B01B0BDE8F0409A
:10106000084783060FD593060DD52046BDE8F84006
:1010700000F084BC2046FFF78EFFF8BD2046FFF746
:101080008AFF6564F8BD266B2023012E7CD1C6063D
:101090007AD5D60678D508684868009048694FF038
:1010A0000206400640D5E16B086840680004000C69
:1010B000E8D0A28D8242E5D9E085886920282DD02C
:1010C00020680C3050E8001F21F4807140E80012C5
:1010D000002AF5D12068143050E8001F21F00101EA
:1010E00040E80012002AF5D12068143050E8001FB3
:1010F00021F0400140E80012002AF5D184F8423086
:10110000256320680C3050E8001F21F0100140E8F2
:101110000012002AF5D1E06BFFF7EEF86663A08DB0
:10112000E18D401A81B22AE0A08DE18D401A81B292
:10113000E08D0028A6D00029A4D022680C3252E805
:10114000000F20F4907042E80007002FF5D12068CE
:10115000143050E8002F22F0010240E80027002F51
:10116000F5D184F84230256320680C3050E8002F18
:1011700022F0100240E80023002BF5D166632046E0
:10118000FFF708FFF8BDFFE705062BD5150629D5A3
:1011900094F841002128F5D1A068B0F5805F01D115
:1011A0002069B0B1206A411C216221680078486042
:1011B000E08C401E0004000CE084E3D12068C1688C
:1011C00021F08001C1602068C16841F04001C16028
:1011D000D8E7206A0088C0F308004860206A801CB5
:1011E0002062E5E74006CDD55006CBD5CA6820463B
:1011F00022F04002CA6084F8413000F01DF8C1E7D7
:101200001F19000890F84230202B01D002207047AF
:1012100021B11AB10023036300F011BC0120704713
:1012200000680349884202D1024901204870704792
:1012300000380140040000207047000010B500682D
:101240000549884206D1054800F01BF80449088882
:10125000401C088010BD0000002C00406C080020DD
:101260000600002010B501684A68D243920507D4F1
:101270008A68D243D20703D1921E8A60FFF7DEFF4D
:1012800010BDC1680068016000207047FEE70000E3
:10129000F0B5114885B0816941F00801816180692C
:1012A000112400F0080004904FF48060002503260C
:1012B0008DE87100094F69463846FFF7B1F8F81418
:1012C0008DE8710069463846FFF7AAF84820FEF716
:1012D000DFFF05B0F0BD000000100240000C01402F
:1012E00010B54FF400610448FFF78AF904460A205C
:1012F000FEF7DCFF204610BD000C014010B50120B8
:1013000000F048F8012000F037F8FFF7E9FF044645
:10131000002000F031F8204610BD70B500240546CD
:10132000802626FA04F0284000F034F8012000F06E
:1013300023F8002000F020F8641CE4B2082CF0D35D
:1013400070BD10B5012000F025F8012000F014F860
:10135000002000F01FF8BDE81040002000F00CB89D
:1013600010B5002000F016F8012000F005F8BDE8E7
:101370001040012000F00EB810B502464FF4806115
:101380000348FFF742F9BDE810400A20FEF78EBF80
:10139000000C014010B502464FF400610348FFF70E
:1013A00034F9BDE810400A20FEF780BF000C014070
:1013B000FEE7FEE770B5084D00240021204600F04E
:1013C00079F805EBC410802100F0CFF9641CE4B279
:1013D000082CF2D370BD000024000020F0B50126D7
:1013E000DFF838E087180B4414E001F0070206FA32
:1013F00002F5CA0804460EEBC21207E012F804C058
:101400002CEA050C02F804C0641CE4B2A742F5D231
:10141000491CC9B28B42E8D2F0BD00002404002070
:1014200010B5FFF735FFAE2000F088F9D52000F0A9
:1014300085F9802000F082F9A82000F07FF93F2094
:1014400000F07CF9D32000F079F9002000F076F963
:10145000402000F073F9A12000F070F9C82000F0DE
:101460006DF9DA2000F06AF9122000F067F98120A6
:1014700000F064F9CF2000F061F9D92000F05EF9A6
:10148000F12000F05BF9DB2000F058F9302000F08B
:1014900055F9A42000F052F9A62000F04FF98D2054
:1014A00000F04CF9142000F049F9BDE81040AF20DD
:1014B00000F044B910B50C4640F0B00000F03EF921
:1014C000102040EA141000F039F904F00F00BDE8D4
:1014D000104000F033B900002DE9F04F1E461446CD
:1014E0000D468346FFF77AFF761EF117002006EBC4
:1014F0005171012202EBE10A29E0002323E000BF41
:101500001549099F00EBD50201EBC21600FB04F957
:101510001F440BEB030219F8078005F0070116F8CA
:1015200002C008FA01F84CEA080C06F802C032447E
:1015300019F8077012F8806FC1F10801CF403E43DF
:101540005B1C1670DBB2A342DAD3401CC0B28245EA
:10155000D3DCBDE8F08F0000240400202DE9FF4F0C
:1015600081B00646DFF8A4A10E981C4617004FF084
:1015700000054FF00A080AF5BE6B53D4102826D098
:1015800006284BD005B0BDE8F08F00BF06EBC509BB
:1015900009F0FF00102308220299FFF71FFF61B234
:1015A0000A2000F000F9B7FBF0F1B1FBF8F208FBFC
:1015B00012110AEB011000F58070009009F0FF0095
:1015C000102308220299FFF787FF6D1CEDB2641EFD
:1015D000E4B2DBD2D6E700BF06EBC50909F0FF0095
:1015E000082306220299FFF7F9FE61B20A2000F0F3
:1015F000DAF8B7FBF0F1B1FBF8F208FB121000EBE0
:1016000040010BEB41006030009009F0FF0008231F
:1016100006220299FFF760FF6D1CEDB2641EE4B272
:10162000DAD2AFE75742102810D00628AAD10823F3
:10163000062230460299FFF7D1FE35480090082374
:10164000062230460299FFF747FF5BE0102308228D
:1016500030460299FFF7C2FE2C481023D03000908C
:10166000082230460299FFF737FF22E006EBC5005B
:1016700000F1080909F0FF00102308220299FFF782
:10168000ADFE61B20A2000F08EF8B7FBF0F1B1FBBD
:10169000F8F208FB12110AEB011000F580700090BF
:1016A00009F0FF00102308220299FFF715FF6D1CB7
:1016B000EDB2641EE4B2D9D264E700BF06EBC50008
:1016C00000F1080909F0FF00082306220299FFF73C
:1016D00085FE61B20A2000F066F8B7FBF0F1B1FBBD
:1016E000F8F208FB121000EB40010BEB41006030F8
:1016F000009009F0FF00082306220299FFF7ECFE94
:101700006D1CEDB2641EE4B2D8D23BE7081B0008A2
:101710004621000870B5084D002400212046FFF73F
:10172000C9FE05EBC410802100F01FF8641CE4B270
:10173000082CF2D370BD00002404002010B504462C
:10174000FFF7FFFD7820FFF7E8FDFFF7D7FD00204A
:10175000FFF7E3FDFFF7D2FD2046FFF7DEFDFFF7C1
:10176000CDFDBDE81040FFF7FBBD70B50D46064648
:10177000FFF7E7FD7820FFF7D0FDFFF7BFFD402022
:10178000FFF7CBFDFFF7BAFD002406E0305DFFF761
:10179000C4FDFFF7B3FD641CE4B2AC42F6D3BDE870
:1017A0007040FFF7DDBD0246012000E05043491EB6
:1017B00049B2FBD2704770477047FEF731BF30B572
:1017C0008FB028216846FEF7FFFC14210AA8FEF717
:1017D000FBFC01210804CDE900100024029402253D
:1017E0000491CDE907504FF4E01009906846FFF7E7
:1017F0005DF808B172B6FEE70F20CDE90A054FF497
:101800008060CDE90C4002210AA80E94FEF792FFF9
:10181000002801D072B6FEE70FB030BD704700005F
:101820000148FFF71BBB00008008002010B51548D9
:1018300000241349046101604FF6FF71C0E90241C1
:101840004460483003210461C0E900140121C0E96B
:101850000214046202214461C0E9061401464838BA
:10186000FFF70AFA08480146046044600548FFF79C
:10187000CFF9BDE810403C210248FFF779BA0000DB
:1018800000040040D80800200C000020F0B50268D9
:10189000194B1A4C1A4D4FF08047984205D0B84268
:1018A00003D0A04201D0A84203D122F070064A68BA
:1018B0003243984205D0B84203D0A04201D0A8429A
:1018C00003D122F44074CA6822434C6922F080029A
:1018D000224302608A68C2620A688262984201D129
:1018E00009690163012141610169C90703D00169E7
:1018F00021F001010161F0BD002C01400004004015
:101900000008004010B501F01F030121046A99404E
:101910008C430462016A9A401143016210BD10B504
:10192000406A0021C185C184FFF735FB10BD016805
:101930000C3151E8002F22F4907241E80023002B73
:10194000F5D10168143151E8002F22F0010241E87D
:101950000023002BF5D1016B012909D101680C315D
:1019600051E8002F22F0100241E80023002BF5D1AE
:10197000202180F8421000210163704708B590F8DB
:101980004210222901D0022008BD82684FF4805302
:101990009A4201D1016921B1816A9A421BD04AB1B0
:1019A0000AE00268816A5268C2F308020A80816A0A
:1019B000891C08E0026972B10268526802F07F0275
:1019C0000A70816A491C8162C18D491E0904090C93
:1019D000C18503D01BE002685268F1E70168CA685C
:1019E00022F02002CA600168CA6822F48072CA60CC
:1019F00001684A6922F001024A61202180F8421000
:101A000000214163026B012A03D0FFF709FC00208B
:101A100008BD016301680C3151E8002F22F010026B
:101A200041E80023002BF5D101680A68D20602D5EF
:101A30000A6849680091818DFFF7ACFAE7E7816297
:101A40008285C28500214164222180F8421001690B
:101A500021B10168CA6842F48072CA6001684A69AB
:101A600042F001024A610068C16841F02001C16092
:101A70000020704710B50548FFF78EFABDE810400A
:101A8000012203490148FFF7BDBB000024080020E4
:101A900004000020FEE700000148FFF7E3BB000060
:101AA0006C0800200907090E002804DB00F1E02083
:101AB00080F80014704700F00F0000F1E02080F87B
:101AC000141D704708B5FEF7B3FDFFF778FE4820F8
:101AD000FEF7DEFBFFF7A4FCFFF76CFCFFF7A6FEAA
:101AE000074D084C10262868406A002182B22280E7
:101AF0000A2308460096FFF731FDFFF70BFEF2E7D9
:101B0000D8080020000000200000000000000000B5
:101B10000000000000000000000000F800000000CD
:101B2000000000333000000000160E00160E00000A
:101B3000000000000000000040C07840C078400075
:101B4000043F04043F040400007088FC08300000D7
:101B5000001820FF211E0000F008F000E01800002F
:101B600000211C031E211E0000F0088870000000E8
:101B70001E21232419272110000000160E0000004A
:101B80000000000000000000000000E01804020057
:101B9000000000071820400000020418E0000000C8
:101BA0000040201807000000404080F080404000C6
:101BB0000202010F01020200000000F0000000001C
:101BC0000101011F010101000000000000000000F0
:101BD00000B07000000000000000000000000000E5
:101BE00000010101010101010000000000000000EE
:101BF0000030300000000000000000008060180489
:101C0000006018060100000000E010080810E00065
:101C1000000F102020100F00001010F8000000002E
:101C20000020203F20200000007008080888700075
:101C300000302824222130000030088888483000F5
:101C40000018202020110E000000C02010F8000015
:101C500000070424243F240000F8088888080800AE
:101C60000019212020110E0000E0108888180000C3
:101C7000000F112020110E0000380808C838080095
:101C80000000003F00000000007088080888700015
:101C9000001C222121221C0000E010080810E00096
:101CA0000000312222110F00000000C0C00000001F
:101CB0000000003030000000000000C0C000000044
:101CC000000080B07000000000008040201008007C
:101CD0000001020408102000404040404040400005
:101CE00004040404040404000008102040800000E0
:101CF0000020100804020100007048080808F000E5
:101D00000000003036010000C030C828E810E000B4
:101D10000718272423140B000000C038E00000003F
:101D2000203C23020227382008F8888888700000A9
:101D3000203F202020110E00C0300808080838007D
:101D4000071820202010080008F808080810E000F4
:101D5000203F202020100F0008F88888E808100095
:101D6000203F20202320180008F88888E808100069
:101D7000203F200003000000C030080808380000A1
:101D800007182020221E020008F808000008F808A2
:101D9000203F210101213F20000808F80808000029
:101DA0000020203F2020000000000808F80808005C
:101DB000C08080807F00000008F888C028180800D4
:101DC000203F20012638200008F80800000000000D
:101DD000203F20202020300008F8F800F8F8080004
:101DE000203F003F003F200008F830C00008F808FE
:101DF000203F200007183F00E01008080810E0000E
:101E00000F10202020100F0008F808080808F00024
:101E1000203F210101010000E01008080810E00047
:101E20000F18242438504F0008F8888888887000DC
:101E3000203F2000030C302000708808080838007C
:101E40000038202121221C00180808F80808180072
:101E50000000203F2000000008F808000008F808F3
:101E6000001F202020201F000878880000C83808A4
:101E7000000007380E010000F80800F80008F8001C
:101E8000033C0700073C03000818688080681808B6
:101E900020302C03032C30200838C800C838080034
:101EA0000000203F2000000010080808C838080083
:101EB0002038262120201800000000FE0202020027
:101EC0000000007F40404000000C30C000000000D7
:101ED000000000010638C00000020202FE000000FF
:101EE000004040407F00000000201008040810203F
:101EF00000000000000000000000000000000000E2
:101F000080808080808080800002040800000000C3
:101F100000000000000000000000808080800000C1
:101F20000019242222223F2008F8008080000000AF
:101F3000003F112020110E00000000808080000072
:101F4000000E112020201100000000808088F80081
:101F5000000E112020103F200000808080800000B3
:101F6000001F222222221300008080F08888881817
:101F70000020203F20200000000080808080800022
:101F8000006B94949493600008F8008080800000B7
:101F9000203F210000203F20008098980000000092
:101FA0000020203F202000000000008098980000C2
:101FB00000C08080807F000008F8000080808000E2
:101FC000203F24022D302000000808F80000000007
:101FD0000020203F202000008080808080808000C2
:101FE000203F20003F20003F0080800080800000D4
:101FF00000203F2100203F200000808080800000E2
:10200000001F202020201F00808000808000000012
:1020100080FFA12020110E00000000808080800041
:10202000000E112020A0FF80808080008080800032
:1020300020203F212000010000008080808080005F
:102040000033242424241900008080E080800000D4
:102050000000001F20200000808000000080800021
:10206000001F202020103F20808080000080808082
:1020700000010E3008060100808000800080808012
:102080000F300C030C300F00008080008080800037
:102090000020312E0E312000808080000080808062
:1020A00080818E7018060100008080808080800012
:1020B0000021302C2221300000000000807C020230
:1020C00000000000003F404000000000FF00000052
:1020D00000000000FF0000000002027C8000000001
:1020E0000040403F00000000008040408000008031
:1020F00000000000000101000000000000000000DE
:10210000002F000000000700070000147F147F1458
:1021100000242A7F2A1200231308646200364955DE
:10212000225000000007000000001C2241000000B7
:1021300041221C000014083E08140008083E08084C
:10214000000000A0600000080808080800006060A7
:102150000000002010080402003E5149453E0000E6
:10216000427F4000004261514946002141454B31C8
:10217000001814127F10002745454539003C4A4994
:102180004930000171090503003649494936000606
:102190004949291E0000363600000000563600006E
:1021A00000081422410000141414141400004122E9
:1021B0001408000201510906003E4955592E007CC1
:1021C0001211127C007F49494936003E41414122AB
:1021D000007F4141221C007F49494941007F090994
:1021E0000901003E4149497A007F0808087F000044
:1021F000417F4100002040413F01007F08142241FF
:10220000007F40404040007F020C027F007F0408B6
:10221000107F003E4141413E007F09090906003E12
:102220004151215E007F091929460046494949313B
:102230000001017F0101003F4040403F001F20405E
:10224000201F003F4038403F00631408146300071C
:102250000870080700615149454300007F41410073
:10226000000204081020000041417F000004020128
:1022700002040040404040400000010204000020F1
:1022800054545478007F484444380038444444202F
:1022900000384444487F00385454541800087E09DC
:1022A00001020018A4A4A47C007F080404780000A4
:1022B000447D4000004080847D00007F1028440061
:1022C0000000417F4000007C04180478007C080472
:1022D000047800384444443800FC242424180018AE
:1022E000242418FC007C080404080048545454209A
:1022F00000043F444020003C4040207C001C204023
:10230000201C003C4030403C004428102844001C65
:10231000A0A0A07C004464544C440000087F41000D
:102320000000007F00000000417F08000008040852
:102330001008010202030405060708090A0B0C0D28
:102340000E0F101000000000000000000102030446
:10235000060708097423000800000020240000007C
:10236000280100089823000824000020840F0000A2
:102370004401000800000000000000000000000010
:10238000000000000000000001000000100000003C
:082390000000000000127A00B9
:04000005080000ED02
:00000001FF
