:020000040800F2
:10000000A00F002089010008731400084D13000898
:10001000711400088F020008CD1A000800000000CB
:1000200000000000000000000000000009170008A8
:10003000E102000800000000071700080B17000885
:10004000D11A0008A3010008A3010008A3010008B9
:10005000A3010008A3010008A3010008C9030008C8
:10006000A3010008A3010008A3010008A3010008E0
:10007000A3010008A3010008A3010008A3010008D0
:10008000A3010008A3010008A3010008A3010008C0
:10009000A3010008A3010008A3010008A3010008B0
:1000A000A301000871170008A3010008A3010008BC
:1000B000A3010008A3010008A3010008A301000890
:1000C000A3010008A3010008A3010008A301000880
:1000D000A3010008AD1A0008A3010008A30100084D
:1000E000A3010008A3010008A301000800F002F822
:1000F00000F03AF80AA090E8000C82448344AAF188
:100100000107DA4501D100F02FF8AFF2090EBAE885
:100110000F0013F0010F18BFFB1A43F0010318473B
:100120006422000084220000103A24BF78C878C1FD
:10013000FAD8520724BF30C830C144BF04680C60ED
:10014000704700000023002400250026103A28BF35
:1001500078C1FBD8520728BF30C148BF0B60704739
:100160001FB51FBD10B510BD00F058F81146FFF7C0
:10017000F7FF01F0C3FC00F076F803B4FFF7F2FFDD
:1001800003BC00F07DF8000009488047094800479B
:10019000FEE7FEE7FEE7FEE7FEE7FEE7FEE7FEE737
:1001A000FEE7FEE704480549054A064B7047000094
:1001B0006D170008ED000008A0090020A00F002026
:1001C000A00B0020A00B00204FF0000200B513464A
:1001D00094469646203922BFA0E80C50A0E80C5067
:1001E000B1F12001BFF4F7AF090728BFA0E80C5018
:1001F00048BF0CC05DF804EB890028BF40F8042B11
:1002000008BF704748BF20F8022B11F0804F18BF7D
:1002100000F8012B7047704770477047754600F033
:100220002BF8AE4605006946534620F00700854688
:1002300018B020B5FFF7B6FFBDE820404FF000062C
:100240004FF000074FF000084FF0000B21F00701BE
:10025000AC46ACE8C009ACE8C009ACE8C009ACE801
:10026000C0098D46704710B50446AFF300802046A4
:10027000BDE81040FFF781BF0048704740090020EB
:1002800001491820ABBEFEE7260002007047FEE7DA
:1002900010B504464FF0E0210020086100F008FD91
:1002A0000149E008088010BD000000200B490988C2
:1002B00048434FF0E021486100228A61086940F01C
:1002C000010008610869C30701D0C003FAD50869B5
:1002D00020F0010008618A617047000000000020E2
:1002E0007047000070B5294C274800252060632026
:1002F000C4E9025040F2CF206060204600F0D0FDFB
:1003000004F1480030218560C0E900150146002253
:10031000483800F09BFD042204F14801204600F01B
:1003200095FD082204F14801204600F08FFD0C22C3
:1003300004F14801204600F089FD2068816941F000
:10034000080181612068816941F400618161206850
:10035000C16941F00801C1612068C16941F40061CF
:10036000C1610021204600F0F5FD0421204600F087
:10037000F1FD0821204600F0EDFD2046BDE870406B
:100380000C2100F0E7BD0000002C0140DC0800203B
:1003900010B50C4C226871B104290ED008290ED07A
:1003A00010640121074800F0A5FC2068016841F0B5
:1003B0000101016010BD5063F3E79063F1E7D06382
:1003C000EFE70000DC08002010B5022000F08EF8F6
:1003D00001490220086010BD1404014010B590F8D6
:1003E00021100022022905D00421816380F82020F9
:1003F000012010BD01680B6823F00E030B6001683B
:100400000B6823F001030B6090F84030C46B0121AE
:1004100001FA03F3636080F8211080F82020104671
:1004200010BD000010B590F821100024022903D05F
:100430000421816301243DE001680A6822F00E0274
:100440000A6001680A6822F001020A601A4A01681B
:10045000914201D1012121E0174A1432914201D188
:1004600010211BE0144A2832914201D1891515E070
:10047000114A3C32914201D189140FE00E4A5032A8
:10048000914202D14FF4803108E00B4A643291422C
:1004900002D14FF4801101E04FF08071064A083A12
:1004A0005160012180F82110002180F82010416B5B
:1004B00001B18847204610BD0800024010B504462F
:1004C0000520FFF7F3FE022C09D10421054800F0B6
:1004D00009F905490128088802D0401E088010BD8E
:1004E000401CFBE70008014006000020044910B54D
:1004F0000A68024202D00860FFF7E0FF10BD00006A
:10050000140401402DE9F84FDFF8B8910024A9F157
:10051000040B23460F2709F1040AABF1040EC9E0CE
:100520000125A5402A40AA427DD1674ED1F804C0DA
:10053000ACEB0608B44532D014DCBCF1030F3AD062
:1005400009DCBCF1000F2AD0BCF1010F1CD0BCF1BA
:10055000020F31D11DE0BCF1110F17D0BCF1120F09
:100560002AD119E0B8F5881F19D006DCB8F5803F0C
:1005700015D0B8F5801F1FD111E0B8F5001F0ED0BF
:10058000B8F5041F18D10AE0CB6815E0CB681B1D35
:1005900012E0CB6808330FE0CB680C330CE08B68BB
:1005A0002BB1012B4FF0080303D0456104E0042375
:1005B00002E0056100E00023FF2A01D8064601E0C1
:1005C00000F104064FEA840501D9A5F12005D6F80B
:1005D000008007FA05FC28EA0C0803FA05F548EA4A
:1005E0000508C6F800804D68ED0062D5374DAE694C
:1005F00046F00106AE61AD6924F0030605F0010581
:100600000095334D06EB050CDCF80850A607360FB5
:1006100007FA06F825EA0805DFF8B880404503D157
:100620004FF0000817E044E0DFF8AC80404502D10D
:100630004FF001080FE0DFF8A480404502D14FF0F1
:10064000020808E0DFF89880404502D14FF0030827
:1006500001E04FF0040808FA06F848EA0508CCF86B
:1006600008804D68D9F80060ED024D4601D516436B
:1006700000E096432E604D68DAF80060AD02554602
:1006800001D5164300E096432E604D68DBF800600C
:10069000AD035D4601D5164300E096432E604D68DC
:1006A000DEF80060ED03754601D5164300E0964381
:1006B0002E60641C0D682A46E5407FF431AFBDE82A
:1006C000F88F0000080401400000111000100240E3
:1006D0000000014000080140000C014000100140F2
:1006E000001401408068084000D0012070470AB122
:1006F000016170470904FBE701488068704700000A
:100700000C00002002488168027811448160704723
:100710000C000020074810B5016841F0100101608D
:10072000052000F067F8002000F006F800F024F83B
:10073000002010BD0020024070B50D4D04464FF45E
:100740007A712878B1FBF0F00A490968B1FBF0F042
:1007500000F0BAFA48B9102C07D200222146501EE8
:1007600000F028F800206C6070BD012070BD000012
:100770000C000020180000200C4808B5816941F0E9
:1007800001018161816901F001010091C16941F0BC
:100790008051C161C06900F08050009004484168F8
:1007A00021F0E06141F00071416008BD001002409D
:1007B00000000140F0B40E4B1B680C46C3F302234B
:1007C000C3F10705042D00D90425191D072901D2FD
:1007D000002300E0DB1E012606FA05F1491E214038
:1007E00099409E40761E16403143F0BC01F076B928
:1007F0000CED00E0064900F0070208684FF6FF0321
:10080000184040EA0220034A104308607047000085
:100810000CED00E00000FA052DE9F0470F46050059
:1008200061D0434E306800F00700B84209D230680A
:1008300020F0070038433060306800F00700B8420D
:1008400051D128683B4C810712D5400703D5606819
:1008500040F4E06060602878000703D5606840F4E9
:10086000605060606068A96820F0F0000843606034
:100870002878C00728D06868012810D0216802288D
:1008800010D0890700292EDA616821F003010143A5
:100890006160FFF731FF804641F288390DE0216841
:1008A0008903EFE78901EDE7FFF726FFA0EB0801D9
:1008B000494502D90320BDE8F0876068696800F007
:1008C0000C00B0EB810FEFD1306800F00700B842A8
:1008D0000BD9306820F0070038433060306800F0F2
:1008E0000700B84201D00120E5E72878400705D588
:1008F0006068E96820F4E0600843606028780007D9
:1009000006D56068296920F4605040EAC100606043
:1009100000F018F86168084AC1F30311515CC8403F
:100920000649086006480068FFF706FF0020C2E796
:10093000002002400010024074230008180000202C
:10094000100000200E4A51680E4801F00C03042BE1
:1009500011D0082B0FD10C48C1F38343C903C05CED
:100960000AD55168084AC1F34041921E515C054ABC
:100970005043B0FBF1F07047044948437047000012
:100980000010024000127A006423000800093D00B4
:100990002DE9F84F040070D02078C04DC00749D031
:1009A0006868C0F38100012807D06868C0F381003F
:1009B000022809D16868C00306D52868800339D5A4
:1009C00060680028E7D035E06068B0F5803F0BD064
:1009D00010B1B0F5A02F11D0286820F48030286025
:1009E000286820F4802002E0286840F480302860E5
:1009F000606890B1FFF780FE06460AE0286840F480
:100A000080202860F0E700BFFFF776FE801B642897
:100A100073D828688003F7D50CE0FFF76DFE064613
:100A200005E000BFFFF768FE801B6428F0D8286847
:100A30008003F7D420789A4E80074FF001094FF0D9
:100A4000000839D5686810F00C0F07D06868C0F34B
:100A50008100022809D16868C00306D4286880078D
:100A600014D52069012808D110E02069B0B1C6F87A
:100A70000090FFF741FE074605E00AE1FFF73CFE64
:100A8000C01B0228C4D828688007F7D52868616988
:100A900020F0F80040EAC10028600DE0C6F80080B0
:100AA000FFF72AFE074604E0FFF726FEC01B0228D8
:100AB00023D828688007F7D4207800072CD57948F8
:100AC000A169D9B1C0F80090FFF716FE074604E00F
:100AD000FFF712FEC01B02280FD8686A8007F7D5FF
:100AE00071484FF4FA510068B0FBF1F0009000BF7C
:100AF0000098411E0091FAD20EE080E0C0F800801C
:100B0000FFF7FAFD074604E0FFF7F6FDC01B0228D9
:100B100075D8686A8007F7D42078400760D5E869FF
:100B20000027C00008D4E86940F08050E861E86917
:100B3000012700F0805000905C480168C90513D47B
:100B40000168834641F480710160FFF7D5FD82465C
:100B500006E000BFFFF7D0FDA0EB0A0064284ED8E6
:100B6000DBF80000C005F5D5E06801280AD008B11F
:100B7000052813D0286A20F001002862286A20F096
:100B8000040002E0286A40F001002862E06841F2B7
:100B9000883B98B1FFF7B0FD82460BE0286A40F031
:100BA00004002862EEE700BFFFF7A6FDA0EB0A01F4
:100BB00059455AD8286A8007F6D50CE0FFF79CFD06
:100BC000824605E0FFF798FDA0EB0A0159454CD895
:100BD000286A8007F6D41FB1E86920F08050E861E8
:100BE000E06988B36968C1F38101022944D0022811
:100BF000C6F8608004D0FFF77FFD044638E034E09B
:100C0000FFF77AFD074604E0FFF776FDC01B0228D8
:100C10002BD828688001F7D4206AB0F5803F05D131
:100C20006868A16820F4003008436860D4E90801CE
:100C30000843696821F4741108436860C6F860903D
:100C4000FFF75AFD044606E025E000BFFFF754FD1C
:100C5000001B022809D828688001F7D51BE000BFD7
:100C6000FFF74AFD001B022802D90320BDE8F88FD8
:100C700028688001F4D40EE00128F7D06868226A61
:100C800000F48031914204D1616A00F4701088420E
:100C900001D00120EAE70020E8E700000010024050
:100CA00000004242800442421800002000700040D0
:100CB0004FF0E0210428086903D020F00400086107
:100CC000704740F00400FAE710B5401EB0F1807F95
:100CD00001D3012010BD4FF0E02460610F216017A7
:100CE00000F0FCFE0020A06107202061002010BD64
:100CF0007047704790F83C20012A0CD0012200F880
:100D00003C2F0223437050F83C3C59614270002153
:100D10000170084670470220704770472DE9F04186
:100D200004460068C66805694FF00007A90713D597
:100D3000B10711D5F91E0161012020772068806973
:100D40008007204602D0FFF7E8FF04E000F0A7F894
:100D5000204600F04DF92777680716D5700714D59F
:100D600021686FF004000861022020772068806904
:100D700010F4407F204602D0FFF7CFFF04E000F0E0
:100D80008EF8204600F034F92777280715D530076C
:100D900013D521686FF008000861042020772068CF
:100DA000C0698007204602D0FFF7B7FF04E000F0DB
:100DB00076F8204600F01CF92777E80616D5F006ED
:100DC00014D521686FF01000086108202077206892
:100DD000C06910F4407F204602D0FFF79EFF04E078
:100DE00000F05DF8204600F003F92777E80708D007
:100DF000F00706D021686FF001000861204600F07E
:100E0000F9F8280608D5300606D521686FF080006D
:100E100008612046FFF76CFF680608D5700606D506
:100E200021686FF040000861204600F011F9A80623
:100E30000AD5B00608D521686FF020000861204669
:100E4000BDE8F041FFF755BFBDE8F08170B504463D
:100E500090F83C00002501280FD0012084F83C00C8
:100E60006AB1042A0FD0082A11D00C2A13D0012508
:100E7000002084F83C00284670BD022070BD206828
:100E800000F0C6FCF4E7206800F0EAFCF0E7206818
:100E900000F012FDECE7206800F03AFDE8E770474B
:100EA00010B5040003D094F83D0010B107E0012014
:100EB00010BD002084F83C00204600F01FF80220FE
:100EC00084F83D00211D206800F058FC012084F8C2
:100ED000460084F83E0084F83F0084F8400084F81F
:100EE000410084F8420084F8430084F8440084F808
:100EF000450084F83D00002010BD000000B50068EA
:100F0000114985B088421DD11048816941F0040122
:100F10008161816901F004010491816941F40061FA
:100F200081618069694600F40060049002200190AC
:100F30004FF470600090002002900320039004485A
:100F4000FFF7E0FA05B000BD002C014000100240A0
:100F50000008014010B50446022249B104290ED010
:100F6000082913D094F84100012816D0012010BDA3
:100F700094F83E000128F9D184F83E200FE094F85F
:100F80003F000128F2D184F83F2008E094F84000A7
:100F90000128EBD184F8402001E084F841200122AF
:100FA000206800F027FC0F492068884203D1426C7A
:100FB00042F4004242642068884208D0B0F1804F79
:100FC00005D00949884202D00849884204D1816885
:100FD00001F00701062903D0016841F00101016019
:100FE000002010BD002C014000040040000800401B
:100FF0007047000010B50446002110234322084624
:1010000000F0CAFA00F036FB0E482168814212D186
:101010000D4C217881B10B483030491E016001210F
:101020000A48FFF767FE09480068016841F00101BE
:1010300001600020207010BD016821F001010160F5
:1010400010BD0000002C014008000020780800209E
:101050007047704770470000F8B50168044608689B
:10106000CA684B6910F00F0F4FF0000559D003F01C
:10107000010602F49077374365D0C10705D0D1054A
:1010800003D5616C41F001016164410705D5D907C1
:1010900003D0616C41F002016164810705D5D90775
:1010A00003D0616C41F004016164010707D502F0CF
:1010B0002001314303D0616C41F008016164616C2F
:1010C00000293AD0800604D5900602D5204600F0CB
:1010D00070FC20684069616CC0F38010090700D47F
:1010E00060B3204600F03EFC20684069400621D5F0
:1010F0002068143050E8001F21F0400140E8001241
:10110000002AF5D1E06BA8B16D494163E06BFFF7B0
:1011100089F9002811D0E06B416B01B0BDE8F040C7
:10112000084783060FD593060DD52046BDE8F84045
:1011300000F03FBC2046FFF78DFFF8BD2046FFF7CB
:1011400089FF6564F8BD266B2023012E7CD1C6067D
:101150007AD5D60678D508684868009048694FF077
:101160000206400640D5E16B086840680004000CA8
:10117000E8D0A28D8242E5D9E085886920282DD06B
:1011800020680C3050E8001F21F4807140E8001204
:10119000002AF5D12068143050E8001F21F0010129
:1011A00040E80012002AF5D12068143050E8001FF2
:1011B00021F0400140E80012002AF5D184F84230C5
:1011C000256320680C3050E8001F21F0100140E832
:1011D0000012002AF5D1E06BFFF700F96663A08DDD
:1011E000E18D401A81B22AE0A08DE18D401A81B2D2
:1011F000E08D0028A6D00029A4D022680C3252E845
:10120000000F20F4907042E80007002FF5D120680D
:10121000143050E8002F22F0010240E80027002F90
:10122000F5D184F84230256320680C3050E8002F57
:1012300022F0100240E80023002BF5D1666320461F
:10124000FFF707FFF8BDFFE705062BD5150629D5E3
:1012500094F841002128F5D1A068B0F5805F01D154
:101260002069B0B1206A411C216221680078486081
:10127000E08C401E0004000CE084E3D12068C168CB
:1012800021F08001C1602068C16841F04001C16067
:10129000D8E7206A0088C0F308004860206A801CF4
:1012A0002062E5E74006CDD55006CBD5CA6820467A
:1012B00022F04002CA6084F8413000F01DF8C1E716
:1012C0005519000890F84230202B01D002207047B9
:1012D00021B11AB10023036300F0CCBB0120704799
:1012E00000680349884202D10249012048707047D2
:1012F00000380140020000207047000010B500686F
:101300000549884206D1054800F01BF804490888C1
:10131000401C088010BD0000002C00406408002024
:101320000400002010B501684A68D243920507D432
:101330008A68D243D20703D1921E8A60FFF7DEFF8C
:1013400010BDC1680068016000207047FEE7000022
:10135000F0B5114885B0816941F00801816180696B
:10136000112400F0080004904FF48060002503264B
:101370008DE87100094F69463846FFF7C3F8F81445
:101380008DE8710069463846FFF7BCF84820FEF743
:101390007FFF05B0F0BD000000100240000C0140CE
:1013A00010B54FF400610448FFF79CF904460A2089
:1013B000FEF77CFF204610BD000C014010B5012057
:1013C00000F048F8012000F037F8FFF7E9FF044685
:1013D000002000F031F8204610BD70B5002405460D
:1013E000802626FA04F0284000F034F8012000F0AE
:1013F00023F8002000F020F8641CE4B2082CF0D39D
:1014000070BD10B5012000F025F8012000F014F89F
:10141000002000F01FF8BDE81040002000F00CB8DC
:1014200010B5002000F016F8012000F005F8BDE826
:101430001040012000F00EB810B502464FF4806154
:101440000348FFF754F9BDE810400A20FEF72EBF0D
:10145000000C014010B502464FF400610348FFF74D
:1014600046F9BDE810400A20FEF720BF000C0140FD
:10147000FEE7FEE770B5084D00240021204600F08D
:1014800079F805EBC410802100F01FF9641CE4B268
:10149000082CF2D370BD00001C000020F0B501261E
:1014A000DFF838E087180B4414E001F0070206FA71
:1014B00002F5CA0804460EEBC21207E012F804C097
:1014C0002CEA050C02F804C0641CE4B2A742F5D271
:1014D000491CC9B28B42E8D2F0BD00001C040020B8
:1014E00010B5FFF735FFAE2000F0D8F8D52000F09A
:1014F000D5F8802000F0D2F8A82000F0CFF83F20E7
:1015000000F0CCF8D32000F0C9F8002000F0C6F8B5
:10151000402000F0C3F8A12000F0C0F8C82000F07F
:10152000BDF8DA2000F0BAF8122000F0B7F88120F8
:1015300000F0B4F8CF2000F0B1F8D92000F0AEF8F8
:10154000F12000F0ABF8DB2000F0A8F8302000F02C
:10155000A5F8A42000F0A2F8A62000F09FF88D20A6
:1015600000F09CF8142000F099F8BDE81040AF207E
:1015700000F094B810B50C4640F0B00000F08EF8C2
:10158000102040EA141000F089F804F00F00BDE8C4
:10159000104000F083B8000078B514460D460646AA
:1015A000102B13D0062B10D108230622FFF776FF4D
:1015B0000D4904EB440001EB4000C038082306222B
:1015C00000902946304600F013F878BD1023082219
:1015D000FFF764FF0548102300EB0410A0F500702E
:1015E00008220090EDE7000028210008381B0008C1
:1015F0002DE9F04F1E4614460D468346FFF74EFF79
:10160000761EF117002006EB5171012202EBE10A70
:1016100029E0002323E000BF1549099F00EBD50214
:1016200001EBC21600FB04F91F440BEB030219F88F
:10163000078005F0070116F802C008FA01F84CEA25
:10164000080C06F802C0324419F8077012F8806FCF
:10165000C1F10801CF403E435B1C1670DBB2A342D0
:10166000DAD3401CC0B28245D3DCBDE8F08F000065
:101670001C04002070B5084D002400212046FFF70F
:1016800079FF05EBC410802100F01FF8641CE4B260
:10169000082CF2D370BD00001C04002010B50446D5
:1016A000FFF7AFFE7820FFF798FEFFF787FE0020D8
:1016B000FFF793FEFFF782FE2046FFF78EFEFFF74F
:1016C0007DFEBDE81040FFF7ABBE70B50D46064687
:1016D000FFF797FE7820FFF780FEFFF76FFE4020B0
:1016E000FFF77BFEFFF76AFE002406E0305DFFF7A0
:1016F00074FEFFF763FE641CE4B2AC42F6D3BDE8AF
:101700007040FFF78DBE70477047FEF7FBBF30B5E6
:101710008FB028216846FEF757FD14210AA8FEF76E
:1017200053FD01210804CDE9001000240294022594
:101730000491CDE907504FF4E01009906846FFF797
:1017400027F908B172B6FEE70F20CDE90A054FF47C
:101750008060CDE90C4002210AA80E94FFF75CF8E6
:10176000002801D072B6FEE70FB030BD7047000010
:101770000148FFF7D3BA000078080020F0B50268EE
:10178000194B1A4C1A4D4FF08047984205D0B84279
:1017900003D0A04201D0A84203D122F070064A68CB
:1017A0003243984205D0B84203D0A04201D0A842AB
:1017B00003D122F44074CA6822434C6922F08002AB
:1017C000224302608A68C2620A688262984201D13A
:1017D00009690163012141610169C90703D00169F8
:1017E00021F001010161F0BD002C01400004004026
:1017F0000008004010B501F01F030121046A994060
:101800008C430462016A9A401143016210BD0000DA
:1018100030B5036A026A22F00102026242688469FA
:1018200024F073050C682C4323F002058B682B43CE
:101830000A4DA8420BD123F00805CB6822F4407270
:101840002B434D6923F0040315438A692A43426000
:10185000846149684163036230BD0000002C01408F
:1018600030B5026A036A23F0100303624368846997
:101870000D6824F4E64444EA05248D6822F0200231
:1018800042EA05120B4DA8420ED1CD6822F080022B
:1018900042EA05124D6923F4406343EA85038D69EA
:1018A00022F0400243EA8503436084614968816312
:1018B000026230BD002C014030B5036A026A22F496
:1018C000807202624268C46923F4007324F07305D5
:1018D0000C682C438D6843EA05230C4DA8420ED1B9
:1018E000CD6823F4006343EA05234D6922F4405296
:1018F00042EA05128D6923F4806342EA05124260D0
:10190000C4614968C163036230BD0000002C01401E
:1019100030B5046A026A22F4805202624268C369E6
:101920000D6823F4E64343EA05238D6824F400544C
:1019300044EA0534064DA84204D14D6922F48042A0
:1019400042EA85124260C36149680164046230BDA5
:10195000002C014010B5406A0021C185C184FFF709
:1019600079FB10BD01680C3151E8002F22F4907210
:1019700041E80023002BF5D10168143151E8002F14
:1019800022F0010241E80023002BF5D1016B01296F
:1019900009D101680C3151E8002F22F0100241E812
:1019A0000023002BF5D1202180F842100021016393
:1019B000704708B590F84210222901D0022008BDD6
:1019C00082684FF480539A4201D1016921B1816A42
:1019D0009A421BD04AB10AE00268816A5268C2F397
:1019E00008020A80816A891C08E0026972B10268F3
:1019F000526802F07F020A70816A491C8162C18DBF
:101A0000491E0904090CC18503D01BE00268526815
:101A1000F1E70168CA6822F02002CA600168CA685A
:101A200022F48072CA6001684A6922F001024A61A8
:101A3000202180F8421000214163026B012A03D06B
:101A4000FFF74EFC002008BD016301680C3151E82E
:101A5000002F22F0100241E80023002BF5D101688D
:101A60000A68D20602D50A6849680091818DFFF79D
:101A7000F0FAE7E781628285C28500214164222174
:101A800080F84210016921B10168CA6842F480728D
:101A9000CA6001684A6942F001024A610068C1688F
:101AA00041F02001C16000207047000010B50548DA
:101AB000FFF7D2FABDE81040012203490148FFF7C1
:101AC00001BC00001C08002002000020FEE700000E
:101AD0000148FFF727BC0000640800200907090E31
:101AE000002804DB00F1E02080F80014704700F0CB
:101AF0000F0000F1E02080F8141D7047FEF70AFE89
:101B0000FFF705FE4820FEF7C3FBFFF7E9FCFFF7F0
:101B1000B1FCFEF7E7FB00211820FEF739FC042199
:101B20003120FEF735FC08214A20FEF731FC0C215C
:101B30006320FEF72DFCFEE700000000000000001F
:101B40000000000000000000000000F8000000009D
:101B5000000000333000000000160E00160E0000DA
:101B6000000000000000000040C07840C078400045
:101B7000043F04043F040400007088FC08300000A7
:101B8000001820FF211E0000F008F000E0180000FF
:101B900000211C031E211E0000F0088870000000B8
:101BA0001E21232419272110000000160E0000001A
:101BB0000000000000000000000000E01804020027
:101BC000000000071820400000020418E000000098
:101BD0000040201807000000404080F08040400096
:101BE0000202010F01020200000000F000000000EC
:101BF0000101011F010101000000000000000000C0
:101C000000B07000000000000000000000000000B4
:101C100000010101010101010000000000000000BD
:101C20000030300000000000000000008060180458
:101C3000006018060100000000E010080810E00035
:101C4000000F102020100F00001010F800000000FE
:101C50000020203F20200000007008080888700045
:101C600000302824222130000030088888483000C5
:101C70000018202020110E000000C02010F80000E5
:101C800000070424243F240000F80888880808007E
:101C90000019212020110E0000E010888818000093
:101CA000000F112020110E0000380808C838080065
:101CB0000000003F000000000070880808887000E5
:101CC000001C222121221C0000E010080810E00066
:101CD0000000312222110F00000000C0C0000000EF
:101CE0000000003030000000000000C0C000000014
:101CF000000080B07000000000008040201008004C
:101D000000010204081020004040404040404000D4
:101D100004040404040404000008102040800000AF
:101D20000020100804020100007048080808F000B4
:101D30000000003036010000C030C828E810E00084
:101D40000718272423140B000000C038E00000000F
:101D5000203C23020227382008F888888870000079
:101D6000203F202020110E00C0300808080838004D
:101D7000071820202010080008F808080810E000C4
:101D8000203F202020100F0008F88888E808100065
:101D9000203F20202320180008F88888E808100039
:101DA000203F200003000000C03008080838000071
:101DB00007182020221E020008F808000008F80872
:101DC000203F210101213F20000808F808080000F9
:101DD0000020203F2020000000000808F80808002C
:101DE000C08080807F00000008F888C028180800A4
:101DF000203F20012638200008F8080000000000DD
:101E0000203F20202020300008F8F800F8F80800D3
:101E1000203F003F003F200008F830C00008F808CD
:101E2000203F200007183F00E01008080810E000DD
:101E30000F10202020100F0008F808080808F000F4
:101E4000203F210101010000E01008080810E00017
:101E50000F18242438504F0008F8888888887000AC
:101E6000203F2000030C302000708808080838004C
:101E70000038202121221C00180808F80808180042
:101E80000000203F2000000008F808000008F808C3
:101E9000001F202020201F000878880000C8380874
:101EA000000007380E010000F80800F80008F800EC
:101EB000033C0700073C0300081868808068180886
:101EC00020302C03032C30200838C800C838080004
:101ED0000000203F2000000010080808C838080053
:101EE0002038262120201800000000FE02020200F7
:101EF0000000007F40404000000C30C000000000A7
:101F0000000000010638C00000020202FE000000CE
:101F1000004040407F00000000201008040810200E
:101F200000000000000000000000000000000000B1
:101F30008080808080808080000204080000000093
:101F40000000000000000000000080808080000091
:101F50000019242222223F2008F80080800000007F
:101F6000003F112020110E00000000808080000042
:101F7000000E112020201100000000808088F80051
:101F8000000E112020103F20000080808080000083
:101F9000001F222222221300008080F088888818E7
:101FA0000020203F202000000000808080808000F2
:101FB000006B94949493600008F800808080000087
:101FC000203F210000203F20008098980000000062
:101FD0000020203F20200000000000809898000092
:101FE00000C08080807F000008F8000080808000B2
:101FF000203F24022D302000000808F800000000D7
:102000000020203F20200000808080808080800091
:10201000203F20003F20003F0080800080800000A3
:1020200000203F2100203F200000808080800000B1
:10203000001F202020201F008080008080000000E2
:1020400080FFA12020110E00000000808080800011
:10205000000E112020A0FF80808080008080800002
:1020600020203F212000010000008080808080002F
:102070000033242424241900008080E080800000A4
:102080000000001F202000008080000000808000F1
:10209000001F202020103F20808080000080808052
:1020A00000010E30080601008080008000808080E2
:1020B0000F300C030C300F00008080008080800007
:1020C0000020312E0E312000808080000080808032
:1020D00080818E70180601000080808080808000E2
:1020E0000021302C2221300000000000807C020200
:1020F00000000000003F404000000000FF00000022
:1021000000000000FF0000000002027C80000000D0
:102110000040403F00000000008040408000008000
:1021200000000000000101000000000000000000AD
:10213000002F000000000700070000147F147F1428
:1021400000242A7F2A1200231308646200364955AE
:10215000225000000007000000001C224100000087
:1021600041221C000014083E08140008083E08081C
:10217000000000A060000008080808080000606077
:102180000000002010080402003E5149453E0000B6
:10219000427F4000004261514946002141454B3198
:1021A000001814127F10002745454539003C4A4964
:1021B00049300001710905030036494949360006D6
:1021C0004949291E0000363600000000563600003E
:1021D00000081422410000141414141400004122B9
:1021E0001408000201510906003E4955592E007C91
:1021F0001211127C007F49494936003E414141227B
:10220000007F4141221C007F49494941007F090963
:102210000901003E4149497A007F0808087F000013
:10222000417F4100002040413F01007F08142241CE
:10223000007F40404040007F020C027F007F040886
:10224000107F003E4141413E007F09090906003EE2
:102250004151215E007F091929460046494949310B
:102260000001017F0101003F4040403F001F20402E
:10227000201F003F4038403F0063140814630007EC
:102280000870080700615149454300007F41410043
:10229000000204081020000041417F0000040201F8
:1022A00002040040404040400000010204000020C1
:1022B00054545478007F48444438003844444420FF
:1022C00000384444487F00385454541800087E09AC
:1022D00001020018A4A4A47C007F08040478000074
:1022E000447D4000004080847D00007F1028440031
:1022F0000000417F4000007C04180478007C080442
:10230000047800384444443800FC2424241800187D
:10231000242418FC007C0804040800485454542069
:1023200000043F444020003C4040207C001C2040F2
:10233000201C003C4030403C004428102844001C35
:10234000A0A0A07C004464544C440000087F4100DD
:102350000000007F00000000417F08000008040822
:102360001008010202030405060708090A0B0C0DF8
:102370000E0F101000000000000000000102030416
:1023800006070809A4230008000000201C00000024
:1023900028010008C02300081C000020840F000052
:1023A00044010008000000000000000000000000E0
:1023B00001000000100000000000000000127A0080
:04000005080000ED02
:00000001FF
