:020000040800F2
:10000000E00F0020890100080B1B0008E51900081B
:10001000091B0008D10400080920000800000000A6
:100020000000000000000000000000001D1E00088D
:100030004F050008000000001B1E00081F1E0008DE
:100040000D200008A3010008A3010008A301000877
:10005000A3010008A3010008A3010008510500083E
:10006000A3010008A3010008A3010008A3010008E0
:10007000A3010008A3010008A3010008A3010008D0
:10008000A3010008A3010008A3010008A3010008C0
:10009000A3010008A3010008A3010008A3010008B0
:1000A000A3010008A3010008A3010008851E0008A1
:1000B000A3010008A3010008A3010008A301000890
:1000C000A3010008A3010008A3010008A301000880
:1000D000A3010008E91F0008A3010008A30100080C
:1000E000A3010008A3010008A301000800F002F822
:1000F00000F03AF80AA090E8000C82448344AAF188
:100100000107DA4501D100F02FF8AFF2090EBAE885
:100110000F0013F0010F18BFFB1A43F0010318473B
:10012000F427000014280000103A24BF78C878C1D2
:10013000FAD8520724BF30C830C144BF04680C60ED
:10014000704700000023002400250026103A28BF35
:1001500078C1FBD8520728BF30C148BF0B60704739
:100160001FB51FBD10B510BD00F058F81146FFF7C0
:10017000F7FF01F061FF00F076F803B4FFF7F2FF3C
:1001800003BC00F07DF8000009488047094800479B
:10019000FEE7FEE7FEE7FEE7FEE7FEE7FEE7FEE737
:1001A000FEE7FEE704480549054A064B7047000094
:1001B000811E0008ED000008E0090020E00F00208B
:1001C000E00B0020E00B00204FF0000200B51346CA
:1001D00094469646203922BFA0E80C50A0E80C5067
:1001E000B1F12001BFF4F7AF090728BFA0E80C5018
:1001F00048BF0CC05DF804EB890028BF40F8042B11
:1002000008BF704748BF20F8022B11F0804F18BF7D
:1002100000F8012B7047704770477047754600F033
:100220002BF8AE4605006946534620F00700854688
:1002300018B020B5FFF7B6FFBDE820404FF000062C
:100240004FF000074FF000084FF0000B21F00701BE
:10025000AC46ACE8C009ACE8C009ACE8C009ACE801
:10026000C0098D46704710B50446AFF300802046A4
:10027000BDE81040FFF781BF0048704780090020AB
:1002800001491820ABBEFEE72600020070470000BF
:1002900070B5044600688168C943C90717D18168F1
:1002A00021F00101816000F071FD05460AE000BF08
:1002B00000F06CFD401B022804D920688068C04310
:1002C000C00706D020688068C043C007F0D0002077
:1002D00070BDA06A40F01000A062E06A40F001002A
:1002E000E062012070BD10B50146406A826A12F0DA
:1002F000500F05D0006A026BBDE810400846104759
:10030000816A41F40071816201688968C1F34241E8
:1003100007290CD1017B51B9816A21F48071816276
:10032000816AC90403D4816A41F00101816200F04D
:1003300003FA10BD10B5406A816A41F04001816244
:10034000C16A41F00401C16200F0F8F910BD10B5B6
:10035000406A00F0F2F910BDF8B500260446009698
:1003600000688168C943C9072DD0816841F0010147
:100370008160164816490068B0FBF1F000E0401EAD
:1003800000900028FBD100F001FD054616E000BFFB
:1003900000F0FCFC401B022810D920688068C04394
:1003A000C0070BD0A06A40F01000A062E06A40F0E5
:1003B0000100E06284F824600120F8BD20688068B4
:1003C000C043C007E4D10020F8BD00002400002095
:1003D00040420F002DE9F8433848416941F00101DE
:1003E0004161416901F001010091816941F004011D
:1003F0008161816901F004010091816941F400711A
:10040000816180692F4C00F4007000902C48002519
:10041000C4E90005001560618020E0602020C7006D
:100420002761A560A061C001E061204600F02AFBC1
:10043000A4F1300024490462606201600126067361
:10044000456005754FF00408C0F810804FF4602136
:100450008760C0E9065100F073F94434072721464C
:10046000C4F80080A1F17400C4E9016700F0E6F867
:10047000266002262146A1F17400C4E9016700F05C
:10048000DDF80320A760C4E900602146A1F17400F3
:1004900000F0D4F8A760C4E900582146A1F1740027
:1004A00000F0CCF8A4F1740000F05CF8A4F1740042
:1004B000BDE8F8430422054900F0EEB900100240FF
:1004C0000800024020090020002401400E00002006
:1004D000FEE7000010B504464FF0E021002008615F
:1004E00001F008F80149E008088010BD0000002074
:1004F0000B49098848434FF0E021486100228A6196
:10050000086940F0010008610869C30701D0C00311
:10051000FAD5086920F0010008618A61704700007F
:100520000000002030B590F840500124AC40C56B6D
:100530006C60046863604368102B036803D09960A3
:100540000068C26030BD9A600068C16030BD70470D
:1005500010B5022000F014FB01490220086010BD14
:1005600014040140F8B500250446009590F82400D5
:1005700001280BD0012084F824002046FFF788FED4
:100580002046FFF7E9FE060002D050E00220F8BD49
:10059000A06A20F4885040F00200A062022000F01F
:1005A00085FC25490968B1FBF0F0400000E0401EE1
:1005B00000900028FBD12068816841F0080181602B
:1005C00000F0E4FB074608E000F0E0FBC01B0A284F
:1005D00003D920688068000715D420688068000768
:1005E000F2D42068816841F00401816000F0CEFB04
:1005F000074612E000F0CAFBC01B0A280DD920688C
:100600008068400709D5A06A20F0020040F0100081
:10061000A06284F824500120F8BD2068806840075B
:10062000E8D4A06A20F0020040F00100A06284F843
:1006300024503046F8BD000024000020F8B5002406
:10064000009490F824202546012A12D0012280F837
:1006500024204A681F23072A0DD20668776B521E92
:1006600002EB820293409F430B6893401F437763E2
:1006700019E00220F8BD06680D2A0AD2376BD21F96
:1006800002EB820293409F430B6893401F43376302
:1006900009E0F76A0D3A02EB820293409F430B6830
:1006A00093401F43F7620A68072306680A2A0AD3A1
:1006B000F7680A3A02EB420293409F438B689340EB
:1006C0001F43F76008E0376902EB420293409F4303
:1006D0008B6893401F4337610A68102A01D0112AA2
:1006E00020D1124B02689A4217D193681B0219D489
:1006F000936843F4000393600968102912D10C49F0
:100700000C4A0968B1FBF2F101EB8101490000E0FC
:10071000491E00910029FBD104E0816A41F02001CB
:100720008162012480F824502046F8BD0024014055
:100730002400002040420F007047704770470000BF
:100740002DE9F0414FF0000704003D467ED0A06A3D
:10075000002628B9E66284F82460204600F07EF87E
:100760002046FFF795FDA16AC90600D420B1A06A12
:1007700040F01000A06269E0A16A21F4885141F0C4
:100780000201A1626268E169237B0A4347EA4301EF
:100790000A43A1684FF48077B94209D0012907D0F4
:1007A0005FF0000194F814C0BCF1010F02D00AE020
:1007B0003946F7E7F3B1A36A43F02003A362E36A83
:1007C00043F00103E3622368D3F804C02CF4694CBE
:1007D0004CEA010CC3F804C021688B68DFF870C0D4
:1007E00003EA0C0313438B60A168B9420BD00129C3
:1007F00009D00CE0DFF85CC0A3690CEB43330B437A
:1008000043F40061DFE7218A0D05A5F58015216815
:10081000CB6A23F470032B43CB62216889680E4BAB
:100820001940914208D1E662A16A21F0020141F02B
:100830000101A162BDE8F081A06A20F0020040F051
:100840001000A062E06A40F00100E0620120F1E7E0
:10085000FDF7E1FF00E0FFFFFE0E1FFF1FB5006880
:100860000A49884211D103201721CDE90010002147
:10087000CDE902106946064800F08EF905480221CC
:1008800001608903816000F063FB1FBD002401400B
:1008900000080140700900202DE9F0478946044610
:1008A0003B4900683B4F0E1D9046884201D0B8423C
:1008B00007D1306810F4702F03D001252846BDE819
:1008C000F08794F8240001280CD0012084F824003B
:1008D0002046FFF741FD05004FF0000004D084F8EA
:1008E0002400EBE70220EAE7A16A40F601629143A7
:1008F00041F48071A1622168B94218D1326812F4C2
:10090000702F14D0A16A41F48011A16231684905A9
:1009100005D5A16A21F4005141F48051A162A16A78
:10092000C9040AD5E16A21F00601E16206E0A26A83
:1009300022F48012A2624968E9E7E06284F82400A8
:10094000216A15488862216A1448C862216A1448DD
:10095000086321686FF0020008602068816841F434
:1009600080718160216843464A464C31206A00F01C
:10097000B7F820688168C1F342410729816803D034
:1009800041F48011816099E741F4A001FAE7000089
:100990000024014000280140E70200084F0300083E
:1009A0003503000810B590F821100022022905D067
:1009B0000421816380F82020012010BD01680B68AC
:1009C00023F00E030B6001680B6823F001030B603A
:1009D00090F84030C46B012101FA03F3636080F8A2
:1009E000211080F82020104610BD000010B590F8AE
:1009F00021100024022903D00421816301243DE059
:100A000001680A6822F00E020A6001680A6822F092
:100A100001020A601A4A0168914201D1012121E0D4
:100A2000174A1432914201D110211BE0144A283296
:100A3000914201D1891515E0114A3C32914201D110
:100A400089140FE00E4A5032914202D14FF48031A6
:100A500008E00B4A6432914202D14FF4801101E068
:100A60004FF08071064A083A5160012180F8211048
:100A7000002180F82010416B01B18847204610BD4D
:100A80000800024030B528B308C81349142219449D
:100A9000B1FBF2F18900C163104981630221417702
:100AA0001A6843F6F0718A43D0E900142143D0E973
:100AB00002452C432143046921434469214384694D
:100AC00021431143196000214163012242770177DC
:100AD000084630BD012030BDF8FFFDBF00000240D8
:100AE00070B5044690F82000002501280CD00120A4
:100AF00084F8200094F821600020012E06D084F8AC
:100B000020000225284670BD022070BD022684F810
:100B10002160A0632068066826F001060660204672
:100B2000FFF700FDE06A00282068016802D041F06C
:100B30000E0106E021F0040101602068016841F027
:100B40000A0101602068016841F001010160D9E7F4
:100B500010B504460520FFF7CBFC022C09D1042177
:100B6000054800F009F905490128088802D0401E0F
:100B7000088010BD401CFBE7000801400600002073
:100B8000044910B50A68024202D00860FFF7E0FF8E
:100B900010BD0000140401402DE9F84FDFF8B891B2
:100BA0000024A9F1040B23460F2709F1040AABF135
:100BB000040EC9E00125A5402A40AA427DD1674E16
:100BC000D1F804C0ACEB0608B44532D014DCBCF15B
:100BD000030F3AD009DCBCF1000F2AD0BCF1010FA1
:100BE0001CD0BCF1020F31D11DE0BCF1110F17D0A8
:100BF000BCF1120F2AD119E0B8F5881F19D006DC14
:100C0000B8F5803F15D0B8F5801F1FD111E0B8F5B9
:100C1000001F0ED0B8F5041F18D10AE0CB6815E00C
:100C2000CB681B1D12E0CB6808330FE0CB680C3398
:100C30000CE08B682BB1012B4FF0080303D045610A
:100C400004E0042302E0056100E00023FF2A01D84C
:100C5000064601E000F104064FEA840501D9A5F13A
:100C60002005D6F8008007FA05FC28EA0C0803FAEC
:100C700005F548EA0508C6F800804D68ED0062D524
:100C8000374DAE6946F00106AE61AD6924F003064A
:100C900005F001050095334D06EB050CDCF8085016
:100CA000A607360F07FA06F825EA0805DFF8B88028
:100CB000404503D14FF0000817E044E0DFF8AC8076
:100CC000404502D14FF001080FE0DFF8A480404515
:100CD00002D14FF0020808E0DFF89880404502D1C9
:100CE0004FF0030801E04FF0040808FA06F848EA5C
:100CF0000508CCF808804D68D9F80060ED024D4633
:100D000001D5164300E096432E604D68DAF8006086
:100D1000AD02554601D5164300E096432E604D685E
:100D2000DBF80060AD035D4601D5164300E0964355
:100D30002E604D68DEF80060ED03754601D5164360
:100D400000E096432E60641C0D682A46E5407FF45F
:100D500031AFBDE8F88F0000080401400000111019
:100D6000001002400000014000080140000C01405A
:100D700000100140001401408068084000D00120AC
:100D800070470AB1016170470904FBE701488068B8
:100D90007047000018000020024881680278114462
:100DA0008160704718000020074810B5016841F0C5
:100DB00010010160052000F067F8002000F006F83F
:100DC00000F024F8002010BD0020024070B50D4D49
:100DD00004464FF47A712878B1FBF0F00A490968AB
:100DE000B1FBF0F000F092FB48B9102C07D20022C2
:100DF0002146501E00F028F800206C6070BD0120D4
:100E000070BD000018000020240000200C4808B528
:100E1000816941F001018161816901F00101009165
:100E2000C16941F08051C161C06900F080500090FB
:100E30000448416821F0E06141F00071416008BD63
:100E40000010024000000140F0B40E4B1B680C463D
:100E5000C3F30223C3F10705042D00D90425191D8E
:100E6000072901D2002300E0DB1E012606FA05F166
:100E7000491E214099409E40761E16403143F0BCE9
:100E800001F0CAB80CED00E0064900F0070208685E
:100E90004FF6FF03184040EA0220034A104308605F
:100EA000704700000CED00E00000FA0510B50146A7
:100EB0000020234C012922D0022939D010291DD12C
:100EC00061682268D20119D51E48C1F38342C90363
:100ED000805C0AD561681B4AC1F34041921E515C97
:100EE000194AB2FBF1F1484301E0184948436168EF
:100EF000490203D440000321B0FBF1F010BD226A87
:100F0000C2F30121012903D1920701D5C80310BD05
:100F1000022905D1626A920702D549F6404010BD08
:100F20000329FCD121688903F9D54FF2244010BD73
:100F300000F01AF96168C1F38131491C4900DBE70F
:100F400000100240EA28000800127A0000093D0063
:100F50002DE9F84305460078354CC00754D0E069C8
:100F60000026C00008D4E06940F08050E061E069EC
:100F7000012600F0805000902E480168C90512D467
:100F80000168804641F480710160FFF7FFFE07466B
:100F900005E000BFFFF7FAFEC01B642823D8D8F88D
:100FA0000000C005F6D5206A10F4407021D0A98851
:100FB00001F4407181421CD0206A1F49012220F4B3
:100FC00040700A6000220A602062C00711D0FFF75B
:100FD000DDFE074641F2883808E000BFFFF7D6FE85
:100FE000C11B414502D90320BDE8F883206A800770
:100FF000F4D5206A696820F44070084320621EB16D
:10100000E06920F08050E0612878800705D56068AD
:10101000A96820F44040084360602878C00605D5E0
:101020006068E96820F48000084360600020DBE726
:101030000010024000700040400442422DE9F04799
:101040000F46050061D0434E306800F00700B842FB
:1010500009D2306820F0070038433060306800F073
:101060000700B84251D128683B4C810712D5400790
:1010700003D5606840F4E06060602878000703D51D
:10108000606840F4605060606068A96820F0F0001B
:10109000084360602878C00728D06868012810D00D
:1010A0002168022810D0890700292EDA616821F012
:1010B000030101436160FFF769FE804641F2883910
:1010C0000DE021688903EFE78901EDE7FFF75EFE98
:1010D000A0EB0801494502D90320BDE8F08760680C
:1010E000696800F00C00B0EB810FEFD1306800F0C0
:1010F0000700B8420BD9306820F007003843306051
:10110000306800F00700B84201D00120E5E72878F8
:10111000400705D56068E96820F4E0600843606036
:101120002878000706D56068296920F4605040EAF5
:10113000C100606000F028F86168084AC1F303113B
:10114000515CC8400649086006480068FFF73EFE4B
:101150000020C2E70020024000100240FA280008E8
:10116000240000201C00002004480549006849684C
:10117000044AC1F3C221515CC840704724000020DA
:10118000001002400A2900080E4A51680E4801F07A
:101190000C03042B11D0082B0FD10C48C1F383434F
:1011A000C903C05C0AD55168084AC1F34041921E88
:1011B000515C054A5043B0FBF1F070470449484385
:1011C000704700000010024000127A00D828000882
:1011D00000093D002DE9F84F040070D02078C04D83
:1011E000C00749D06868C0F38100012807D068684B
:1011F000C0F38100022809D16868C00306D52868B9
:10120000800339D560680028E7D035E06068B0F524
:10121000803F0BD010B1B0F5A02F11D0286820F47A
:1012200080302860286820F4802002E0286840F49C
:1012300080302860606890B1FFF7A8FD06460AE09C
:10124000286840F480202860F0E700BFFFF79EFD8B
:10125000801B642873D828688003F7D50CE0FFF75B
:1012600095FD064605E000BFFFF790FD801B642852
:10127000F0D828688003F7D420789A4E80074FF082
:1012800001094FF0000839D5686810F00C0F07D03D
:101290006868C0F38100022809D16868C00306D4D9
:1012A0002868800714D52069012808D110E020693A
:1012B000B0B1C6F80090FFF769FD074605E00AE106
:1012C000FFF764FDC01B0228C4D828688007F7D543
:1012D0002868616920F0F80040EAC10028600DE04C
:1012E000C6F80080FFF752FD074604E0FFF74EFD09
:1012F000C01B022823D828688007F7D4207800076D
:101300002CD57948A169D9B1C0F80090FFF73EFD0E
:10131000074604E0FFF73AFDC01B02280FD8686AB1
:101320008007F7D571484FF4FA510068B0FBF1F02F
:10133000009000BF0098411E0091FAD20EE080E0BC
:10134000C0F80080FFF722FD074604E0FFF71EFD0E
:10135000C01B022875D8686A8007F7D42078400738
:1013600060D5E8690027C00008D4E86940F08050E3
:10137000E861E869012700F0805000905C4801684E
:10138000C90513D40168834641F480710160FFF7F9
:10139000FDFC824606E000BFFFF7F8FCA0EB0A0068
:1013A00064284ED8DBF80000C005F5D5E0680128B8
:1013B0000AD008B1052813D0286A20F0010028625D
:1013C000286A20F0040002E0286A40F00100286248
:1013D000E06841F2883B98B1FFF7D8FC82460BE009
:1013E000286A40F004002862EEE700BFFFF7CEFC59
:1013F000A0EB0A0159455AD8286A8007F6D50CE0B7
:10140000FFF7C4FC824605E0FFF7C0FCA0EB0A0131
:1014100059454CD8286A8007F6D41FB1E86920F0F6
:101420008050E861E06988B36968C1F381010229ED
:1014300044D00228C6F8608004D0FFF7A7FC044619
:1014400038E034E0FFF7A2FC074604E0FFF79EFC1B
:10145000C01B02282BD828688001F7D4206AB0F579
:10146000803F05D16868A16820F4003008436860B7
:10147000D4E908010843696821F4741108436860DD
:10148000C6F86090FFF782FC044606E025E000BF46
:10149000FFF77CFC001B022809D828688001F7D5DB
:1014A0001BE000BFFFF772FC001B022802D90320DB
:1014B000BDE8F88F28688001F4D40EE00128F7D049
:1014C0006868226A00F48031914204D1616A00F4B4
:1014D0007010884201D00120EAE70020E8E7000010
:1014E00000100240000042428004424224000020DA
:1014F000007000404FF0E0210428086903D020F07C
:1015000004000861704740F00400FAE710B5401E7F
:10151000B0F1807F01D3012010BD4FF0E024606165
:101520000F21601700F078FD0020A06107202061E6
:10153000002010BD7047704710B5104A01689142F5
:1015400014D1007F0E4C012811D002280ED10421A5
:101550000C4800F0B4F8401C80B220806421401C8C
:1015600048436188491CB0FBF1F0A08010BD002108
:10157000044800F0A4F8401C608010BD002C01401D
:1015800008000020840800202DE9F041044600688E
:10159000C66805694FF00007A90713D5B10711D533
:1015A000F91E0161012020772068806980072046AC
:1015B00002D0FFF7C1FF04E000F07EF8204600F003
:1015C0007CF82777680716D5700714D521686FF067
:1015D00004000861022020772068806910F4407FB1
:1015E000204602D0FFF7A8FF04E000F065F820468F
:1015F00000F063F82777280715D5300713D5216841
:101600006FF008000861042020772068C069800717
:10161000204602D0FFF790FF04E000F04DF820468E
:1016200000F04BF82777E80616D5F00614D52168A8
:101630006FF010000861082020772068C06910F45E
:10164000407F204602D0FFF777FF04E000F034F837
:10165000204600F032F82777E80708D0F00706D0D8
:1016600021686FF001000861204600F027F8280685
:1016700008D5300606D521686FF080000861204645
:10168000FFF758FF680608D5700606D521686FF089
:1016900040000861204600F027F8A8060AD5B006E9
:1016A00008D521686FF0200008612046BDE8F041B0
:1016B000FFF741BFBDE8F0817047704770470246B1
:1016C000002041B1042909D008290AD00C2901D1F0
:1016D0001068006C70471068406B70471068806B32
:1016E00070471068C06B70477047704770470000C4
:1016F000F8B5016804460868CA684B6910F00F0F16
:101700004FF0000559D003F0010602F490773743FB
:1017100065D0C10705D0D10503D5616C41F0010149
:101720006164410705D5D90703D0616C41F002011E
:101730006164810705D5D90703D0616C41F00401CC
:101740006164010707D502F02001314303D0616CC9
:1017500041F008016164616C00293AD0800604D52B
:10176000900602D5204600F0C2FB20684069616CFB
:10177000C0F38010090700D460B3204600F090FB4E
:1017800020684069400621D52068143050E8001FC9
:1017900021F0400140E80012002AF5D1E06BA8B129
:1017A0006D494163E06BFFF721F9002811D0E06B30
:1017B000416B01B0BDE8F040084783060FD59306A2
:1017C0000DD52046BDE8F84000F091BB2046FFF75C
:1017D0008DFFF8BD2046FFF789FF6564F8BD266BD5
:1017E0002023012E7CD1C6067AD5D60678D5086886
:1017F0004868009048694FF00206400640D5E16B0A
:10180000086840680004000CE8D0A28D8242E5D947
:10181000E085886920282DD020680C3050E8001F12
:1018200021F4807140E80012002AF5D120681430BC
:1018300050E8001F21F0010140E80012002AF5D114
:101840002068143050E8001F21F0400140E80012E9
:10185000002AF5D184F84230256320680C3050E826
:10186000001F21F0100140E80012002AF5D1E06BC2
:10187000FFF798F86663A08DE18D401A81B22AE0E7
:10188000A08DE18D401A81B2E08D0028A6D00029FC
:10189000A4D022680C3252E8000F20F4907042E885
:1018A0000007002FF5D12068143050E8002F22F0F7
:1018B000010240E80027002FF5D184F8423025636B
:1018C00020680C3050E8002F22F0100240E800237E
:1018D000002BF5D166632046FFF707FFF8BDFFE751
:1018E00005062BD5150629D594F841002128F5D1F8
:1018F000A068B0F5805F01D12069B0B1206A411CB9
:101900002162216800784860E08C401E0004000CD1
:10191000E084E3D12068C16821F08001C1602068C3
:10192000C16841F04001C160D8E7206A0088C0F377
:1019300008004860206A801C2062E5E74006CDD59B
:101940005006CBD5CA68204622F04002CA6084F80F
:10195000413000F01DF8C1E7911E000890F84230B8
:10196000202B01D00220704721B11AB1002303635C
:1019700000F01EBB0120704700680349884202D175
:1019800002490120487070470038014002000020E1
:101990007047000010B500680549884206D1054827
:1019A00000F01BF804490888401C088010BD0000A6
:1019B000002C0040700800200400002010B50168D1
:1019C0004A68D243920507D48A68D243D20703D12A
:1019D000921E8A60FFF7DEFF10BDC16800680160DB
:1019E00000207047FEE70000F0B5114885B081691E
:1019F00041F0080181618069112400F00800049021
:101A00004FF48060002503268DE87100094F694678
:101A10003846FFF7C1F8F8148DE87100694638467A
:101A2000FFF7BAF84820FEF755FD05B0F0BD0000FD
:101A300000100240000C014010B54FF40061044852
:101A4000FFF79AF904460A20FEF752FD204610BD22
:101A5000000C014010B5012000F048F8012000F012
:101A600037F8FFF7E9FF0446002000F031F8204680
:101A700010BD70B500240546802626FA04F02840E3
:101A800000F034F8012000F023F8002000F020F8E6
:101A9000641CE4B2082CF0D370BD10B5012000F036
:101AA00025F8012000F014F8002000F01FF8BDE830
:101AB0001040002000F00CB810B5002000F016F81F
:101AC000012000F005F8BDE81040012000F00EB83C
:101AD00010B502464FF480610348FFF752F9BDE8A4
:101AE00010400A20FEF704BD000C014010B502466C
:101AF0004FF400610348FFF744F9BDE810400A20A5
:101B0000FEF7F6BC000C0140FEE7FEE770B5084D9D
:101B100000240021204600F079F805EBC410802154
:101B200000F055F9641CE4B2082CF2D370BD00003B
:101B300028000020F0B50126DFF838E087180B44B4
:101B400014E001F0070206FA02F5CA0804460EEB9B
:101B5000C21207E012F804C02CEA050C02F804C017
:101B6000641CE4B2A742F5D2491CC9B28B42E8D248
:101B7000F0BD00002804002010B5FFF735FFAE20AF
:101B800000F00EF9D52000F00BF9802000F008F9E4
:101B9000A82000F005F93F2000F002F9D32000F062
:101BA000FFF8002000F0FCF8402000F0F9F8A12038
:101BB00000F0F6F8C82000F0F3F8DA2000F0F0F8B2
:101BC000122000F0EDF8812000F0EAF8CF2000F0BC
:101BD000E7F8D92000F0E4F8F12000F0E1F8DB208C
:101BE00000F0DEF8302000F0DBF8A42000F0D8F898
:101BF000A62000F0D5F88D2000F0D2F8142000F0D7
:101C0000CFF8BDE81040AF2000F0CAB810B50C46C0
:101C100040F0B00000F0C4F8102040EA141000F0CA
:101C2000BFF804F00F00BDE8104000F0B9B80000A4
:101C30002DE9F04F1E4614460D468346FFF77AFF06
:101C4000761EF117002006EB5171012202EBE10A2A
:101C500029E0002323E000BF1549099F00EBD502CE
:101C600001EBC21600FB04F91F440BEB030219F849
:101C7000078005F0070116F802C008FA01F84CEADF
:101C8000080C06F802C0324419F8077012F8806F89
:101C9000C1F10801CF403E435B1C1670DBB2A3428A
:101CA000DAD3401CC0B28245D3DCBDE8F08F00001F
:101CB000280400202DE9F8470746099800251C460E
:101CC00016468A464FF00A09102825D006284AD021
:101CD000BDE8F88707EBC50808F0FF0010230822CD
:101CE0005146FFF727FF61B20A2000F08EF8B6FBDD
:101CF000F0F1B1FBF9F209FB12101D49102301EBC1
:101D0000001000F58070009008F0FF000822514696
:101D1000FFF78EFF6D1CEDB2641EE4B2DAD2D7E796
:101D200007EBC50808F0FF00082306225146FFF71D
:101D300001FF61B20A2000F068F8B6FBF0F1B1FBD8
:101D4000F9F209FB12100B4900EB400001EB4000D7
:101D50006030009008F0FF00082306225146FFF78C
:101D600067FF6D1CEDB2641EE4B2D9D2B0E700008B
:101D7000AC2000089C26000870B5084D0024002106
:101D80002046FFF743FF05EBC410802100F01FF849
:101D9000641CE4B2082CF2D370BD000028040020BB
:101DA00010B50446FFF779FE7820FFF762FEFFF7D3
:101DB00051FE0020FFF75DFEFFF74CFE2046FFF7C7
:101DC00058FEFFF747FEBDE81040FFF775BE70B53F
:101DD0000D460646FFF761FE7820FFF74AFEFFF743
:101DE00039FE4020FFF745FEFFF734FE002406E0F1
:101DF000305DFFF73EFEFFF72DFE641CE4B2AC42FF
:101E0000F6D3BDE87040FFF757BE0246012000E060
:101E10005043491E49B2FBD2704770477047FEF7E6
:101E2000BBBF30B58FB028216846FEF7CDF914212D
:101E30000AA8FEF7C9F901210804CDE90010002421
:101E4000029402250491CDE907504FF4E010099067
:101E50006846FFF7BFF908B172B6FEE70F20CDE97B
:101E60000A054FF48060CDE90C4002210AA80E94C7
:101E7000FFF7E4F8002801D072B6FEE70FB030BDDE
:101E8000704700000148FFF77FBB00008408002076
:101E900010B5406A0021C185C184FFF727FC10BD41
:101EA00001680C3151E8002F22F4907241E80023C0
:101EB000002BF5D10168143151E8002F22F0010206
:101EC00041E80023002BF5D1016B012909D10168FC
:101ED0000C3151E8002F22F0100241E80023002BC2
:101EE000F5D1202180F8421000210163704708B528
:101EF00090F84210222901D0022008BD82684FF4D8
:101F000080539A4201D1016921B1816A9A421BD062
:101F10004AB10AE00268816A5268C2F308020A8084
:101F2000816A891C08E0026972B10268526802F095
:101F30007F020A70816A491C8162C18D491E0904B1
:101F4000090CC18503D01BE002685268F1E7016803
:101F5000CA6822F02002CA600168CA6822F480724E
:101F6000CA6001684A6922F001024A61202180F8B2
:101F7000421000214163026B012A03D0FFF7FCFCF1
:101F8000002008BD016301680C3151E8002F22F0E8
:101F9000100241E80023002BF5D101680A68D2063F
:101FA00002D50A6849680091818DFFF79EFBE7E73B
:101FB00081628285C28500214164222180F842101D
:101FC000016921B10168CA6842F48072CA6001687F
:101FD0004A6942F001024A610068C16841F020018B
:101FE000C16000207047000010B50548FFF780FB76
:101FF000BDE81040012203490148FFF7AFBC0000D3
:102000002808002002000020FEE700000148FFF73A
:10201000D5BC0000700800200907090E002804DB69
:1020200000F1E02080F80014704700F00F0000F18C
:10203000E02080F8141D704708B5FEF7B5FEFFF7E5
:10204000F0FE4820FEF746FAFFF796FDFFF75EFD2B
:10205000102502234A22322128200095FFF72AFE6C
:10206000FFF78AFEFEF7B6F90F4C00950021228893
:1020700005230846FFF71EFE0095628805231421FC
:102080000020FFF717FE0095A288052328210020D5
:10209000FFF710FE0095E288052300214620FFF798
:1020A00009FEFFF769FEE0E70E00002000000000D7
:1020B000000000000000000000000000000000F828
:1020C00000000000000000333000000000160E0089
:1020D000160E0000000000000000000040C0784024
:1020E000C0784000043F04043F040400007088FCF2
:1020F00008300000001820FF211E0000F008F0004A
:10210000E018000000211C031E211E0000F00888BA
:10211000700000001E212324192721100000001642
:102120000E0000000000000000000000000000E0C1
:1021300018040200000000071820400000020418E4
:10214000E00000000040201807000000404080F040
:10215000804040000202010F01020200000000F076
:10216000000000000101011F01010100000000004A
:102170000000000000B0700000000000000000003F
:102180000000000000010101010101010000000048
:1021900000000000003030000000000000000000DF
:1021A00080601804006018060100000000E01008BC
:1021B0000810E000000F102020100F00001010F891
:1021C000000000000020203F2020000000700808D0
:1021D0000888700000302824222130000030088850
:1021E000884830000018202020110E000000C02078
:1021F00010F8000000070424243F240000F8088899
:10220000880808000019212020110E0000E0108825
:1022100088180000000F112020110E000038080857
:10222000C83808000000003F000000000070880867
:1022300008887000001C222121221C0000E01008E8
:102240000810E0000000312222110F00000000C041
:10225000C00000000000003030000000000000C09E
:10226000C0000000000080B070000000000080404E
:1022700020100800000102040810200040404040E7
:10228000404040000404040404040400000810203A
:10229000408000000020100804020100007048087F
:1022A0000808F0000000003036010000C030C828E7
:1022B000E810E0000718272423140B000000C038A2
:1022C000E0000000203C23020227382008F888881C
:1022D00088700000203F202020110E00C030080828
:1022E00008083800071820202010080008F80808FF
:1022F0000810E000203F202020100F0008F88888F8
:10230000E8081000203F20202320180008F88888C3
:10231000E8081000203F200003000000C03008083B
:102320000838000007182020221E020008F80800C4
:102330000008F808203F210101213F20000808F88B
:10234000080800000020203F2020000000000808AE
:10235000F8080800C08080807F00000008F888C06E
:1023600028180800203F20012638200008F808001F
:1023700000000000203F20202020300008F8F80056
:10238000F8F80800203F003F003F200008F830C068
:102390000008F808203F200007183F00E010080858
:1023A0000810E0000F10202020100F0008F8080887
:1023B0000808F000203F210101010000E01008089A
:1023C0000810E0000F18242438504F0008F88888BF
:1023D00088887000203F2000030C3020007088089F
:1023E000080838000038202121221C00180808F8AD
:1023F000080818000000203F2000000008F808002E
:102400000008F808001F202020201F0008788800FE
:1024100000C83808000007380E010000F80800F86E
:102420000008F800033C0700073C03000818688018
:102430008068180820302C03032C30200838C8008E
:10244000C83808000000203F2000000010080808DD
:10245000C83808002038262120201800000000FE7F
:10246000020202000000007F40404000000C30C02B
:1024700000000000000000010638C0000002020257
:10248000FE000000004040407F00000000201008D7
:102490000408102000000000000000000000000000
:1024A000000000008080808080808080000204081E
:1024B000000000000000000000000000000080801C
:1024C000808000000019242222223F2008F800808A
:1024D00080000000003F112020110E00000000804D
:1024E00080800000000E11202020110000000080DC
:1024F0008088F800000E112020103F20000080800E
:1025000080800000001F222222221300008080F021
:10251000888888180020203F20200000000080804C
:1025200080808000006B94949493600008F8008091
:1025300080800000203F210000203F2000809898EC
:10254000000000000020203F20200000000000804C
:102550009898000000C08080807F000008F800008C
:1025600080808000203F24022D302000000808F8E1
:10257000000000000020203F20200000808080809C
:1025800080808000203F20003F20003F00808000AE
:102590008080000000203F2100203F20000080803C
:1025A00080800000001F202020201F0080800080ED
:1025B0008000000080FFA12020110E00000000809C
:1025C00080808000000E112020A0FF80808080008D
:1025D0008080800020203F212000010000008080BA
:1025E000808080000033242424241900008080E0AF
:1025F000808000000000001F20200000808000007C
:1026000000808000001F202020103F20808080005C
:102610000080808000010E3008060100808000806C
:10262000008080800F300C030C300F000080800091
:10263000808080000020312E0E31200080808000BC
:102640000080808080818E7018060100008080806C
:10265000808080000021302C22213000000000000A
:10266000807C020200000000003F404000000000AB
:10267000FF00000000000000FF0000000002027CDC
:10268000800000000040403F00000000008040400B
:102690008000008000000000000101000000000038
:1026A00000000000002F00000000070007000014D9
:1026B0007F147F1400242A7F2A12002313086462E7
:1026C00000364955225000000007000000001C227F
:1026D0004100000041221C000014083E08140008BC
:1026E000083E0808000000A060000008080808086C
:1026F000000060600000002010080402003E514904
:10270000453E0000427F40000042615149460021A1
:1027100041454B31001814127F10002745454539BB
:10272000003C4A4949300001710905030036494916
:10273000493600064949291E0000363600000000CF
:10274000563600000008142241000014141414141A
:10275000000041221408000201510906003E4955BB
:10276000592E007C1211127C007F49494936003EE7
:1027700041414122007F4141221C007F494949419A
:10278000007F09090901003E4149497A007F080894
:10279000087F0000417F4100002040413F01007F51
:1027A00008142241007F40404040007F020C027F1D
:1027B000007F0408107F003E4141413E007F09092F
:1027C0000906003E4151215E007F09192946004655
:1027D000494949310001017F0101003F4040403F2C
:1027E000001F2040201F003F4038403F0063140876
:1027F0001463000708700807006151494543000051
:102800007F414100000204081020000041417F0088
:102810000004020102040040404040400000010268
:102820000400002054545478007F48444438003851
:102830004444442000384444487F003854545418D9
:1028400000087E0901020018A4A4A47C007F0804EB
:1028500004780000447D4000004080847D00007FBB
:10286000102844000000417F4000007C04180478D8
:10287000007C0804047800384444443800FC2424D4
:1028800024180018242418FC007C080404080048BC
:102890005454542000043F444020003C4040207CDD
:1028A000001C2040201C003C4030403C00442810CC
:1028B0002844001CA0A0A07C004464544C440000A8
:1028C000087F41000000007F00000000417F0800F9
:1028D000000804081008010202030405060708099D
:1028E0000A0B0C0D0E0F101001020203040506075F
:1028F00008090A0B0C0D0E0F10100000000000005C
:10290000000001020304060708090000000001029C
:102910000304000034290008000000202800000003
:10292000280100085C29000828000020B80F0000DA
:10293000440100080000000000000000000000004A
:102940000000000000000000000000000100000086
:0C295000100000000000000000127A00DF
:04000005080000ED02
:00000001FF
